:020000040000FA
:060000000A128A110C280F
:10000800FE00030EF0000A08F1000A168A11AB2E52
:100018000A128A110F288313B930FD001430FE002C
:100028009730FF00A03084000A168A115E240A1255
:100038008A110A168A11C4230A128A11EE000A16B6
:100048008A11C5230A128A11EF000A168A11C623DB
:100058000A128A11FA000A168A11C7230A128A118B
:10006800FB00B9308400C8300A168A11CF230A125F
:100078008A114B3084006E300A168A11CF230A1277
:100088008A1183010A128A11172B83120313AA00FB
:100098000A302506031D51285228C9280A128A1534
:1000A8007E210A128A110F30831203136805A700F4
:1000B80067080F39A800A9012808F2002908F300E9
:1000C8000A30F4000030F5000A168A1130250A12A9
:1000D8008A118312031327087207CB000030031814
:1000E80001307307CC000F306A05A70069080F3983
:1000F800A800A9012808F2002908F3000A30F40032
:100108000030F5000A168A1130250A128A11831266
:10011800031327087207CD00003003180130730756
:10012800CE000F306C05A7006B080F39A800A90195
:100138002808F2002908F3000A30F4000030F5001E
:100148000A168A1130250A128A1183120313270806
:100158007207CF000030031801307307D0008B30CE
:10016800F6008830F7008030F8000A168A117C26DD
:100178000A128A11023083120313D8000030D90002
:10018800E001DF01DE013F30AA005E080319CD2837
:10019800CE28E9292F3083120313A5000030A600CA
:1001A800162B5808A70027074B3E840001308313FD
:1001B8008007840A0318800AF4290330F20000300B
:1001C800F3005808013EF40059080318013E003EA8
:1001D800F5000A168A1145270A128A117308831234
:1001E8000313D9007208D800F4290A128A157E214F
:1001F8000A128A110A30F2000030F3008312031346
:100208004C08F5004B08F4000A168A1145270A1213
:100218008A11720883120313A7007308A8000A3012
:10022800F6000030F7004C08F9004B08F8000A16F1
:100238008A11BA270A128A11760883120313A900B1
:1002480003300310A90DFF3E031D25290310290DB6
:100258002704AB005108C0392B04D1005108F30022
:1002680002300A168A11B0240A128A110A30F200E2
:100278000030F300831203134E08F5004D08F40014
:100288000A168A1145270A128A1172088312031363
:10029800A7007308A8000A30F6000030F7004E08DF
:1002A800F9004D08F8000A168A11BA270A128A11AD
:1002B800760883120313A90003300310A90DFF3E2B
:1002C800031D61290310290D2704AB00520880394A
:1002D8002B04D2005208F30001300A168A11B02408
:1002E8000A128A110A30F2000030F3008312031355
:1002F8005008F5004F08F4000A168A1145270A121B
:100308008A11720883120313A7007308A8000A3021
:10031800F6000030F7005008F9004F08F8000A16F8
:100328008A11BA270A128A11760883120313A900C0
:1003380003300310A90DFF3E031D9D290310290D4D
:100348002704AB00530880392B04D3005308F3006B
:1003580000300A168A11B0240A128A11F2010130FB
:100368000A168A110F270A128A110030F6008930FE
:10037800F7008230F8000A168A117C260A128A11C0
:100388001A30F6008930F700C230F8000A168A11D0
:100398007C260A128A1183120313DE01DE0A1A3040
:1003A80083120313A9005E30A8006D30A700A70BC5
:1003B800DB29A80BDB29A90BDB29E2291F308312D3
:1003C8000313A5000030A600162B2A082F3A03199C
:1003D800E128183A0319D528733A0319F928F4299A
:1003E80000304C02183003194B02031CFC29FD296C
:1003F800FF29CB01CC0100304E023C3003194D02DD
:10040800031C072A082A0A2ACD01CE01003050020F
:100418003C3003194F02031C122A132A152ACF0154
:10042800D0010130FF007F08E00702306006031D9D
:100438001E2A1F2A712AE0015F080319242A262A86
:100448000130272A0030DF005F0803192C2A2D2AE3
:10045800712A612AFD30F6008830F700C030F800B4
:100468000A168A117C260A128A1105308312031390
:10047800A9000F30A800F030A700A70B412AA80B4D
:10048800412AA90B412A0000712AFD30F600883064
:10049800F700C330F8000A168A117C260A128A115E
:1004A800392AFD30F6008830F700C630F8000A1601
:1004B8008A117C260A128A11392A5908003A031926
:1004C800662A712A5808003A03192E2A013A031994
:1004D800492A033A0319552A712AC0308312031393
:1004E800A3000A30F6000030F7004C08F9004B086A
:1004F800F8000A168A11BA270A128A117608303EBD
:100508000A168A116D240A128A11C1308312031344
:10051800A3000A30F2000030F3004C08F5004B0845
:10052800F4000A168A1145270A128A117208303E09
:100538000A168A116D240A128A11C2308312031313
:10054800A3003A300A168A116D240A128A11C330A0
:1005580083120313A3000A30F6000030F7004E0898
:10056800F9004D08F8000A168A11BA270A128A11EA
:100578007608303E0A168A116D240A128A11C43090
:1005880083120313A3000A30F2000030F3004E0870
:10059800F5004D08F4000A168A1145270A128A1137
:1005A8007208303E0A168A116D240A128A11C53063
:1005B80083120313A3003A300A168A116D240A1213
:1005C8008A11C63083120313A3000A30F6000030E4
:1005D800F7005008F9004F08F8000A168A11BA27E0
:1005E8000A128A117608303E0A168A116D240A12F8
:1005F8008A11C73083120313A3000A30F2000030B7
:10060800F3005008F5004F08F4000A168A11452730
:100618000A128A117208303E0A168A116D240A12CB
:100628008A11CE2808000A168A11F8250A128A119A
:10063800103083120313C90083160313360883127C
:100648000313C30083160313370883120313C4006C
:1006580083160313380883120313C500C601363006
:100668008400A030B2000408B3000C30B400320893
:10067800840083130008B500B20A330884003508E3
:100688008000B30AB40B3B2B5330F5008930F600D9
:1006980000300A168A114F260A128A1101300A12EE
:1006A8008A15AA240A128A1183120313CA008230F7
:1006B80083120313B300DD30B200B20B612BB30B0E
:1006C800612B0A30F6000030F7000A168A1135242B
:1006D8000A128A117308F9007208F8000A168A11BA
:1006E800BA270A128A11760883120313C7006430E6
:1006F8004702031C802B812B832B6330C7003E30BD
:100708004A06031D882B892B9E2B5D30F200893009
:10071800F30043300A168A110D250A128A11831232
:1007280003134708A00043300A128A15C8220A1288
:100738008A117E2D3D304A06031DA32BA42BCB2BFB
:10074800063046020318A92BAA2BCB2B4608B20069
:100758003207363E840083130008F200840A00083A
:100768008403F30043300A168A110D250A128A11F0
:100778000130FF007F0883120313C6074708A00053
:1007880043300A128A15C8220A128A117E2D3B307C
:100798004A06031DD02BD12BF52B46080319D52B60
:1007A800D62BF52B0130C6024608B2003207363E7A
:1007B800840083130008F200840A00088403F3000D
:1007C80043300A168A110D250A128A11831203135F
:1007D8004708A00043300A128A15C8220A128A1153
:1007E8007E2D37304A060319FA2BFB2B012C2F30AC
:1007F8004A06031D002C012C2D2C10304906031D20
:10080800062C072C2D2C1230C9000A168A11242414
:100818000A128A11BA30F6008830F7008030F800E2
:100828000A168A117C260A128A11F201C4300A16A5
:100838008A110F270A128A11F2010F300A168A113B
:100848000F270A128A11033083120313C8001215E6
:100858007E2D13304906031D322C332CA02C443036
:100868004A06031D382C392CA02C8F2C1430C900B3
:100878000630C8007E2D0A168A1124240A128A110D
:10088800153083120313C9000930C8007E2D0A16DB
:100898008A1124240A128A113630F6008830F700AB
:1008A8008030F8000A168A117C260A128A1147300D
:1008B800F6008830F700C030F8000A168A117C2646
:1008C8000A128A110A128A15E4260A128A1133308A
:1008D80083120313B400BB30B300DF30B200B20B95
:1008E800732CB30B732CB40B732C133083120313B8
:1008F800C9000530C8007E2D0A168A1124240A1260
:100908008A11173083120313C9000A30C8007E2DDC
:100918001830C9007E2D4208003A03193A2C013AD2
:1009280003193F2C033A03194B2C013A0319802C65
:10093800073A03198C2C7E2D14304906031DA52C6B
:10094800A62CB12C44304A06031DAB2CAC2CB12C80
:100958001330C9000530C8007E2D13304906031D29
:10096800B62CB72CC92C55304A06031DBC2CBD2CFF
:10097800C92C0A168A1124240A128A1110308312EB
:100988000313C900E601E60A7E2D7E2D4708A5005F
:1009980043300A128A1571220A128A11972D0A16F3
:1009A8008A1124240A128A11103083120313C900F1
:1009B800F2010C300A168A110F270A128A118312C3
:1009C80003131211972D0A168A1124240A128A1168
:1009D800F2010C300A168A110F270A128A118312A3
:1009E800031312111330C9000530C800522B4808F0
:1009F800A5004A080A128A119F250A128A11013A8B
:100A08000319E72C033A0319D32C972D4808A5009E
:100A18004A080A128A152F250A128A11831203130B
:100A2800C200972D4808A7004A080A128A113D27D4
:100A38000A128A11972D0A168A117B250A128A1121
:100A4800133083120313C9000A168A1124240A12C8
:100A58008A11972D0A168A1124240A128A1136300F
:100A6800F6008830F7008030F8000A168A117C26D4
:100A78000A128A114730F6008830F700C030F800B3
:100A88000A168A117C260A128A110A128A15E42685
:100A98000A128A11333083120313B400BB30B30037
:100AA800DF30B200B20B562DB30B562DB40B562DBA
:100AB800133083120313C9000530C800972D480866
:100AC800A5004A080A128A1149200A128A111F3001
:100AD8008312031325062604031D732D742D972DE9
:100AE8001330C9000530C8000A168A1124240A12D6
:100AF8008A11522B831203134908103A0319CA2C7E
:100B0800023A0319FB2C013A03190A2D073A031973
:100B1800162D013A03191F2D033A03192E2D013AF8
:100B28000319632D972D043083120313C800522B29
:100B38000A128A110C2883120313AD006603031DE1
:100B4800A62DA72DAD2DE4010A168A1124240A1218
:100B58008A110330831203132506031DB42DB52D06
:100B6800C42DE20183160313C401C501C601C701E0
:100B78003F3083120313AD000330E1000530E40079
:100B88006408031DC82DC92DCC2DE60102303C2F69
:100B980037302D06031DD12DD22DF02D04306202E1
:100BA8000318D72DD82DF02D6208C43E84003130AB
:100BB800831380006208C43EA3002A300A168A11F3
:100BC8006D240A128A110130FF007F088312031373
:100BD800E2070530E4000C2E2F302D06031DF52DFD
:100BE800F62D0C2E043062020318FB2DFC2D0C2E62
:100BF8006208C43E84003030831380006208C43E1B
:100C0800A3002A300A168A116D240A128A11E72DC8
:100C180004306206031D112E122E3C2FF2010C30F7
:100C28000A168A110F270A128A1183120313AE01BA
:100C3800AF01831203132E08293E84002E080A16DA
:100C48008A11CD250A128A1183138000013083127C
:100C58000313AE070318AF0A0030AF072F08803A16
:100C6800FF0080307F02031D3B2E04302E02031C40
:100C78003E2E3F2E1D2E2930F2000430F3000030A6
:100C8800F400C4300A128A15CB210A128A1172089C
:100C98007304031D502E512E712E0A168A11242416
:100CA8000A128A11C930F6008830F7008230F8003D
:100CB8000A168A117C260A128A113330831203130A
:100CC800A800BB30A700DF30A600A60B692EA70B33
:100CD800692EA80B692E01303C2F013083120313B3
:100CE800E1020A168A1124240A128A1183120313B4
:100CF80061080319802E812EB12EAB30F6008830A2
:100D0800F7008030F8000A168A117C260A128A1128
:100D1800C03083120313A3006108303E0A168A11FB
:100D28006D240A128A11E530F6008830F700C230C7
:100D3800F8000A168A117C260A128A114D3083128D
:100D48000313A8001930A7004F30A600A60BAA2E3F
:100D5800A70BAA2EA80BAA2E192F6108031DB52EC2
:100D6800B62E192F9B30F6008830F7008030F80037
:100D78000A168A117C260A128A114330F600893035
:100D8800F700C030F8000A168A117C260A128A1168
:100D98005830F6008930F700CC30F8000A168A116E
:100DA8007C260A128A113C3083120313E500102FA7
:100DB800C930A3000A30F2000030F3006508A6002D
:100DC800A7012608F4002708F5000A128A15DB2374
:100DD8000A128A117208303E0A168A116D240A1204
:100DE8008A11CA3083120313A3000A30F2000030BC
:100DF800F3006508A600A7012608F4002708F500F7
:100E08000A128A151F230A128A117208303E0A161E
:100E18008A116D240A128A11831203136508031DAF
:100E2800162F172FDC2E0330E1000A168A1124240E
:100E38000A128A11BA30F6008830F7008030F800BC
:100E48000A168A117C260A128A11F201C4300A167F
:100E58008A110F270A128A11F2010F300A168A1115
:100E68000F270A128A1183120313E2010530E400E6
:100E7800080083120313AB006930F6008830F700CE
:100E88008030F8000A168A117C260A128A117A0A1A
:100E9800031D522F7B0A031D522F532F5F2F7A30C9
:100EA800F6008830F700C030F8000A168A117C2650
:100EB8000A128A11F92F0630831203132706031D1D
:100EC800662F672F812FDA01DB010030A500A6000D
:100ED8000A128A15CE250A128A11273083120313A3
:100EE800AA000D30A9002530A800A80B792FA90B5E
:100EF800792FAA0B792F802FF92F37302B06031D56
:100F0800862F872FC02F5C085D0403198C2F8D2F27
:100F18009F2F0130DA070318DB0A0030DB070A309D
:100F28005A065B04031D992F9A2FB42F83120313BB
:100F3800DA01DB01B42F0130DA070318DB0A0030CD
:100F4800DB077B08803AA8005B08803A2802031D6B
:100F5800AF2F5A087A020318B22FB32FB42F9A2F43
:100F6800831203135B08A6005A08A5000A128A1503
:100F7800CE250A128A11F92F2F302B06031DC52FF3
:100F8800C62FF92F5C085D040319CB2FCC2FDF2F58
:100F9800FF30DA070318DB0AFF30DB075A0A031DA4
:100FA800D92F5B0A031DD92FDA2FB42F0930DA00A5
:100FB8000030DB00B42F06302706031DE42FE52F91
:100FC800EA2F7B08DB007A08DA00B42FFF30DA0753
:100FD8000318DB0AFF30DB075A0A031DF72F5B0AE9
:100FE800031DF72FF82FB42FE52F080083160313DE
:100FF80006083F3886000800233420342034203483
:1010080020342034543469346D3465342034203429
:1010180020342034203420342034203445347634AD
:1010280065346E3474342034203420342034203431
:1010380020342034533470346534653464340034D7
:101048004E346F3420346C346F3467347334203446
:1010580061347634613469346C34613462346C34AC
:1010680065340034203420342034203420342034B3
:101078004F34703465346E342034203420342034B6
:1010880020342034003420342034203420342034D8
:10109800433475347434653463346F346D342034B8
:1010A8002034203420340034203420346C346F341D
:1010B80067347334203463346C3465346134723487
:1010C80065346434203420340034233420345434D8
:1010D80049344D34453420342034203420342034ED
:1010E8004534203420345334503400344E346F3473
:1010F80020346C346F34673473342034613476347C
:1011080061346C34613462346C3465340034543482
:1011180069346D34653420342834483448343A34DA
:101128004D344D343A34533453342934003459341B
:101138006F34753420346134723465342034623449
:101148006C346F3463346B3465346434003457342E
:1011580072346F346E3467342034703461347334CD
:101168007334773472346F346434003445346E34F5
:1011780074346534723420345034613473347334C5
:1011880077346F347234643400344C344F34473419
:1011980049344E342034533455344334433445347D
:1011A8005334533400344334683461346E34673410
:1011B8006534203470346134733473347734643470
:1011C800003461347434743465346D347034743478
:1011D800733420346C346534663474340034203409
:1011E8002034203420342034203420342034203457
:1011F8002034203420340034543469346D34653458
:1012080020346334683461346E346734653464344C
:10121800003444346F3477346E346C346F34613452
:10122800643420346C346F34673400345334753488
:1012380063346334653473347334663475346C34AE
:101248006C347934003443346C346534613472342A
:1012580020346C346F346734003453346534743458
:101268002034743469346D34653400345634693448
:101278006534773420346C346F3467340034773411
:10128800613469347434203466346F347234003411
:101298004C346F346734733420343A340034313486
:1012A8003134313431340034733465346334733455
:1012B8000034433420340034473431340034473464
:1012C800323400344734333400344734343400344F
:0C12D80047344E340034473452340034A4
:1012E600831603138801091189100A128A157823B7
:1012F6000A128A15080002300A168A11A2250A1255
:101306008A1583120313D10001300A168A11A22509
:101316000A128A1583120313D20000300A168A11A4
:10132600A2250A128A1583120313D3005108F60068
:1013360004300310F60CFF3E031D9C297608033982
:10134600303EE70051080F39303EE8005208F600FB
:1013560004300310F60CFF3E031DAC29760807394E
:10136600303EE90052080F39303EEA005308F600D5
:1013760004300310F60CFF3E031DBC29760807391E
:10138600303EEB0053080F39303EEC00ED0108000B
:10139600F7000130F3020030031CF403F402730A71
:1013A600031DD929740A031DD929DA29EB29F2016B
:1013B600F3011A2A0130FF007F08F7070130FF000A
:1013C6007F08F2070130F3020030031CF403F40235
:1013D60077088400831300080319F229F3290C2ADD
:1013E6007208840000080319F929FA290C2A7308DF
:1013F60074040319FF29002A0C2A720884000008C5
:10140600F500770884000008750603190B2A0C2AD4
:10141600DD29720884000008F500770884000008BA
:10142600F60075087602F200F301031CF3030800C8
:101436000A128A157E210A128A15C13083120313F5
:10144600A30067080A168A116D240A128A15C2308B
:1014560083120313A30068080A168A116D240A1260
:101466008A15C33083120313A3003A300A168A1171
:101476006D240A128A15C43083120313A300690867
:101486000A168A116D240A128A15C53083120313AF
:10149600A3006A080A168A116D240A128A15C63034
:1014A60083120313A3003A300A168A116D240A1216
:1014B6008A15C73083120313A3006B080A168A1114
:1014C6006D240A128A15C83083120313A3006C0810
:1014D6000A168A116D240A128A150800831203134C
:1014E600A8006B30F6008830F7008230F8000A1644
:1014F6008A117C260A128A150A128A151B220A12DA
:101506008A15831203132808F6000030F700CB3043
:10151600F8000A168A117C260A128A15CE30831222
:101526000313A3000A30F2000030F3002508A600DA
:10153600A7012608F4002708F5000A128A15DB23FE
:101546000A128A157208303E0A168A116D240A128A
:101556008A15CF3083120313A3000A30F20000303D
:10156600F3002508A600A7012608F4002708F500C1
:101576000A128A151F230A128A157208303E0A16A5
:101586008A116D240A128A15080083120313A30018
:101596000A128A157E210A128A156730F200063071
:1015A600F3000030F400B9300A168A117F270A12B8
:1015B6008A15831203132308F2000230F300003069
:1015C600F400BF300A168A117F270A128A150A30DC
:1015D600F2000030F300831203132008A100A201D9
:1015E6002108F4002208F5000A128A15DB230A12E4
:1015F6008A157208303E83160313C1000A30F200C2
:101606000030F300831203132008A100A201210871
:10161600F4002208F5000A128A151F230A128A15F9
:101626007208303E83160313C200C3010A168A11DC
:1016360023260A128A150800F701F51F232B242BEF
:101646002B2BF409F509F40A0319F50AF701F70A31
:10165600F31F2E2B2F2B342BF209F309F20A031951
:10166600F30A720873040319392B3A2B692BF60116
:10167600F60A482B01300310F20DF30DFF3E031D51
:101686003E2B0130FF007F08F607F31F4B2B4C2B38
:101696003D2B73087502031D522B72087402031C3E
:1016A600552B562B5C2B7208F4027308031CF503AA
:1016B600F50201300310F30CF20CFF3E031D5D2B07
:1016C6000130F602031D682B692B4C2B7708031992
:1016D6006D2B6E2B732BF409F509F40A0319F50A21
:1016E6007508F3007408F2000800C330F700CD3027
:1016F600F600F60B7C2BF70B7C2BF20133300A1627
:101706008A110F270A128A151B30F7009E30F60041
:10171600F60B8B2BF70B8B2B0000F20133300A16DE
:101726008A110F270A128A15A630F600F60B992B96
:101736000000F20133300A168A110F270A128A15A1
:10174600A42BA52B0000F20102300A168A110F27DE
:101756000A128A15A630F600F60BAF2B0000F2012E
:1017660028300A168A110F270A128A15A630F600A3
:10177600F60BBB2B0000F20101300A168A110F2767
:101786000A128A150430F7003D30F600F60BC92B15
:10179600F70BC92BCE2BF2010C300A168A110F2734
:1017A6000A128A15A630F600F60BD72B00000800A1
:1017B600F701F31FDF2BE02BE72BF209F309F20AFF
:1017C6000319F30AF701F70AF51FEA2BEB2BF42BA3
:1017D600F409F509F40A0319F50A0130FF007F0838
:1017E600F706F801F901720873040319FB2BFC2BA9
:1017F600332CF601F60A0A2C01300310F20DF30D14
:10180600FF3E031D002C0130FF007F08F607F31F83
:101816000D2C0E2CFF2B01300310F80DF90DFF3E99
:10182600031D0F2C73087502031D1B2C720874020E
:10183600031C1E2C1F2C262C7208F4027308031C92
:10184600F503F502781401300310F30CF20CFF3E99
:10185600031D272C0130F602031D322C332C0E2CCF
:1018660077080319372C382C3D2CF809F909F80AA2
:101876000319F90A7908F3007808F2000800003025
:1018860083120313A4000030A3000030A20000302E
:10189600A10075087404730472040319532C542CA4
:1018A600A12CA501A50A642C0130A0000310F20D9D
:1018B600F30DF40DF50DA00B592C0130FF007F0838
:1018C600A507F51F672C682C572C0130A0000310C4
:1018D600A10DA20DA30DA40DA00B6A2C750879020B
:1018E600031D7F2C74087802031D7F2C7308770272
:1018F600031D7F2C72087602031C822C832C922CEB
:101906007208F6027308031C730FF7027408031CAF
:10191600740FF8027508031C750FF90221140130C3
:101926000310F50CF40CF30CF20CFF3E031D932C84
:101936000130A502031DA02CA12C682C2408F5005B
:101946002308F4002208F3002108F2000800F20040
:101956008312031306083F39F6007208031DB42CE0
:10196600B52CB72C76082E2D373076060319BC2CED
:10197600BD2CC32C2F307606031DC22CC32CF82C8D
:1019860076086E06031DC82CC92CED2C0130D6072F
:101996000318D70A0030D70700305702153003194D
:1019A6005602031CD72CD82C0C2DD601D7013F305C
:1019B600EE00373076060319E12CE22CE72C553081
:1019C600F3000030F400EB2C4430F3000030F40058
:1019D60073082E2D3F306E06031DF22CF32C0C2DB2
:1019E6007608EE00D601D7010C2D37306E060319A6
:1019F600FD2CFE2C042D2F306E06031D032D042D09
:101A06000C2D6E08F5003F30EE00D601D7017508A3
:101A16002E2D3F3076060319112D122D252D6F0818
:101A26000319162D172D252D3730760603191C2D73
:101A36001D2D252D2F3076060319222D232D252D1C
:101A4600EF01B52C3F307606031D2A2D2B2D2D2DAB
:101A5600EF01EF0A3F30080083120313A800053098
:101A66002506031D372D382D392DE301373028067D
:101A7600031D3E2D3F2D4F2D043063020318442DC8
:101A8600452D4F2D0130FF007F08E3070A168A1106
:101A960024240A128A155D2D2F302806031D542D85
:101AA600552D5D2D63080319592D5A2D5D2D0130D5
:101AB600E302492D0430831203136306031D642DCC
:101AC600652D982D6308A6002607AA3E8400831379
:101AD6000008F600840A00088403F7008230F80044
:101AE6000A168A117C260A128A15831203136308C2
:101AF600A6002607AC3E840083130008F600840A7D
:101B060000088403F700C230F8000A168A117C2602
:101B16000A128A15C03083120313A3002A300A164C
:101B26008A116D240A128A15CA2D6308A600260793
:101B3600AC3E840083130008F600840A0008840380
:101B4600F7008230F8000A168A117C260A128A15D6
:101B5600831203136308A6002607AE3E8400831390
:101B66000008F600840A00088403F700C230F80073
:101B76000A168A117C260A128A15803083120313EC
:101B8600A3002A300A168A116D240A128A158312B6
:101B96000313630808000A168A1124240A128A15F8
:101BA6006930F6008830F7008030F8000A168A118E
:101BB6007C260A128A15C03083120313A300250857
:101BC600303E0A168A116D240A128A15C230831213
:101BD6000313A3000A30F20025080A168A1182248C
:101BE6000A128A15053E0A168A11CD250A128A1589
:101BF6000A168A116D240A128A15C330831203133A
:101C0600A3000A30F20025080A168A1182240A1255
:101C16008A15063E0A168A11CD250A128A150A1653
:101C26008A116D240A128A15C43083120313A30085
:101C36003A300A168A116D240A128A15C5308312A3
:101C46000313A3000A30F20025080A168A1182241B
:101C56000A128A15073E0A168A11CD250A128A1516
:101C66000A168A116D240A128A15C63083120313C6
:101C7600A3000A30F20025080A168A1182240A12E5
:101C86008A15083E0A168A11CD250A128A150A16E1
:101C96008A116D240A128A15C73083120313A30012
:101CA6003A300A168A116D240A128A15C830831230
:101CB6000313A3000A30F20025080A168A118224AB
:101CC6000A128A15093E0A168A11CD250A128A15A4
:101CD6000A168A116D240A128A15C9308312031353
:101CE600A3000A30F20025080A168A1182240A1275
:101CF6008A150A3E0A168A11CD250A128A150A166F
:101D06008A116D240A128A15CB3083120313A3009D
:101D16000A30F20025080A168A1182240A128A1548
:101D26000B3E0A168A11CD250A128A150A168A1141
:101D36006D240A128A15CC3083120313A3000A30CD
:101D4600F20025080A168A1182240A128A150C3E08
:101D56000A168A11CD250A128A150A168A116D24C9
:101D66000A128A15CE3083120313A3000A30F2003A
:101D760025080A168A1182240A128A150D3E0A16A9
:101D86008A11CD250A128A150A168A116D240A129D
:101D96008A15CF3083120313A3000A30F2002508F8
:101DA6000A168A1182240A128A150E3E0A168A110A
:101DB600CD250A128A150A168A116D240A128A1569
:101DC6000800FF3083120313AE00FF30AF00AA01F4
:101DD6007A0A031DF22E7B0A031DF22EF32EFD2E28
:101DE6002430F3008830F4000A168A1155250A12A9
:101DF6008A15FF2F4C30F3008930F4000A168A1139
:101E060055250A128A150A300A168A11FF230A1264
:101E16008A150030F3008830F4000A168A11552519
:101E26000A128A150A300A168A11FF230A128A151F
:101E36000D300A168A11FF230A128A15EF2F831214
:101E460003132E08013EAC002F080318013E003E86
:101E5600AD000130AE070318AF0A0030AF07B0017E
:101E6600B1010A30F200831203132C080A168A11F4
:101E760082240A128A15831203133007053EAB002B
:101E86003008203E84002B080A168A11CD250A1236
:101E96008A1583138000013083120313B0070318D9
:101EA600B10A0030B1073108803AFF0080307F0266
:101EB600031D5F2F0A303002031C622F632F342F5D
:101EC600831203132E08303E0A168A11FF230A12C4
:101ED6008A15FC30F3008830F4000A168A1155255D
:101EE6000A128A158312031320080A168A11FF2381
:101EF6000A128A158312031321080A168A11FF2370
:101F06000A128A153A300A168A11FF230A128A150E
:101F16008312031322080A168A11FF230A128A154E
:101F26008312031323080A168A11FF230A128A153D
:101F36003A300A168A11FF230A128A1583120313EE
:101F460024080A168A11FF230A128A15831203131C
:101F560025080A168A11FF230A128A15F930F3009A
:101F66008830F4000A168A1155250A128A1583123A
:101F7600031326080A168A11FF230A128A158312EA
:101F8600031327080A168A11FF230A128A15F3304B
:101F9600F3008830F4000A168A1155250A128A15AC
:101FA6008312031328080A168A11FF230A128A15B8
:101FB6008312031329080A168A11FF230A128A15A7
:101FC6000A300A168A11FF230A128A150D300A16DC
:101FD6008A11FF230A128A15831203132F08803AE7
:101FE600F6007B08803A7602031DFB2F7A082E0244
:101FF600031CFE2FFF2F222F0800FF1B0A28831326
:102006007F1883170008840A0319FF0A08007F084F
:0E2016007F398A000408840A0319FF0A820039
:102788003F340134FF34FF34831603139F17831239
:1027980003131F14080064008001840A0406031947
:1027A80000340406D02B0A168A110A240A168A1144
:1027B80083160313111408000A168A110A240A162C
:1027C8008A1183160313111508000A168A11E023CB
:1027D8000A168A110A168A11D7230A168A110800BE
:1027E800F2000A168A110A240A168A11720883123C
:1027F800031393000800F200720883120313990070
:102808000C1E072C082C042C0C120800831603132A
:1028180014190F2C102C0A2C11081F39031D152C04
:10282800162C0A2C08008312031312149214FA307F
:102838008316031392008C148312031312110800D9
:10284800F20101300A168A110F270A168A1104307C
:10285800F7003D30F600F60B2F2CF70B2F2C342CFD
:102868000800831203131F151F193B2C3C2C382C0E
:102878001E08F500831603131E08F4007508F300FC
:102888007408F200080000300A168A11A2250A16F8
:102898008A11F60076087F39F6007608F3000030D2
:1028A8000A168A11B0240A168A1108007E088A00BE
:1028B8007F0882000A168A115A240A168A11800093
:1028C800840A04087D0603190034FF0A0319FE0A66
:1028D8005E2C83120313A400F20123080A168A113E
:1028E8000F270A168A11F201F20A83120313240829
:1028F8000A168A110F270A168A110800F400F30134
:10290800741C872C882C8C2C7208FF007F08F30716
:102918000310F20D0310F40C7408031D942C952C6D
:10292800842C730808006C3489346F34893460341B
:1029380089346334893466348934693489343A345F
:102948008934273489340D34893431348934D7347F
:1029580088344F344E340034F4000A168A11D723D1
:102968000A168A11D0300A168A11F4230A168A1117
:1029780074080A168A11F4230A168A1173080A16AB
:102988008A11F4230A168A110A168A11E0230A16F4
:102998008A110800F4000A168A11D7230A168A1128
:1029A800A0300A168A11F4230A168A1174080A1626
:1029B8008A11F4230A168A1173080A168A11F42355
:1029C8000A168A110A168A11E0230A168A110800C3
:1029D800F2000A168A110A240A168A1183160313AA
:1029E80091150A168A110A240A168A1183120313EA
:1029F8001308F3007203031D022D032D072D831600
:102A0800031391160A2D83160313911211167308D6
:102A18000800F7007708F6007308F5007208F4005C
:102A2800F20A0319F30A750883120313FF007408E6
:102A380084000A168A1100200A168A11FF007608F7
:102A480084000130F6077F08831380000008031D07
:102A58002E2D2F2D102D0800F601F701721C352D93
:102A6800362D3C2D7408F6070318F70A7508F70782
:102A780001300310F40DF50DFF3E031D3D2D01300F
:102A88000310F30CF20CFF3E031D442D720873046F
:102A9800031D4F2D502D322D7708F3007608F200D4
:102AA80008006A2D7408FF00730884000A168A114A
:102AB80000200A168A110A168A11FF230A168A119B
:102AC8000130F3070318F40A0030F407740883127E
:102AD8000313FF00730884000A168A1100200A16DF
:102AE8008A11003A031D792D7A2D562D0800FF30E2
:102AF800FA00FF30FB0083120313DC01DD015830BC
:102B0800F6008830F7008030F8000A168A117C2613
:102B18000A168A11333083120313A200BB30A100B6
:102B2800DF30A000A00B962DA10B962DA20B962DA1
:102B38000A168A1124240A168A110800F4000A16B3
:102B48008A11D7230A168A11D0300A168A11F4235B
:102B58000A168A1174080A168A11F4230A168A11A9
:102B68000A168A11E9230A168A11D1300A168A111F
:102B7800F4230A168A1100300A168A11EC240A1660
:102B88008A11F5000A168A11E0230A168A117508B7
:102B98000800F4000A168A11D7230A168A11A030F1
:102BA8000A168A11F4230A168A1174080A168A1159
:102BB800F4230A168A110A168A11E9230A168A11B9
:102BC800A1300A168A11F4230A168A1100300A164F
:102BD8008A11EC240A168A11F5000A168A11E023D4
:102BE8000A168A1175080800003083120313A90019
:102BF8000130A8008630A700A030A6000A168A1166
:102C0800DD260A168A110A168A1147240A168A111D
:102C18000A128A1573210A168A110A128A11FA27CA
:102C28000A168A110A168A11C8230A168A110A1660
:102C38008A1117240A168A118B170B1708000530FA
:102C4800F8000130FA070318FB0A0030FB070A30C6
:102C58007A067B04031D312E322E3A2EFA01FB012F
:102C6800013083120313DC000030DD000A30F2006B
:102C78007A080A168A1182240A168A117807F80037
:102C8800B930F5000030F60078080A168A114F2688
:102C98000A168A110800F7006B2E7608FF007508DF
:102CA80084000A168A1100200A168A11F300770890
:102CB8000A168A11CE240A168A110130F50703185C
:102CC800F60A0030F6070130FF007F08F70776089C
:102CD80083120313FF00750884000A168A11002066
:102CE8000A168A11003A031D7A2E7B2E512E0800EF
:102CF800F20178080A168A110F270A168A119A2EE5
:102D0800F201F20A7708FF00760884000A168A1191
:102D180000200A168A110A168A110F270A168A1124
:102D28000130F6070318F70A0030F707770883120F
:102D38000313FF00760884000A168A1100200A1679
:102D48008A11003A031DA92EAA2E842E0800831288
:102D580003138C1CB02EB12ED62E0130D4070318C5
:102D6800D50A0030D507E230540604300319550659
:102D7800031DBF2EC02ED52E65080319C42EC52EDF
:102D8800C72E0130E5026508031DCB2ECC2ED32EAD
:102D980064080319D02ED12ED32E0130E402D401B9
:102DA800D5018C1071088A00700E8300FE0E7E0E0D
:102DB80009008312031394152608AA002708AB00FC
:102DC8002808AC002908AD0002300310AA0DAB0D8D
:102DD800AC0DAD0DFF3E031DE92E2D08F5002C08A6
:102DE800F4002B08F3002A08F2000130F900313012
:102DF800F8002D30F7000030F6000A128A15422438
:102E08000A168A117208FF3E831603139300831271
:102E1800031394160800F5007218132F172F831246
:102E2800031309151A2F8312031309117508F039B2
:102E380088008914A630F300F30B202F00008312BA
:102E48000313891075080F39F30003300310F30DCD
:102E5800FF3E031D2A2F0310730D88008914A63026
:102E6800F300F30B352F00008312031389101B3076
:102E7800F4009E30F300F30B3F2FF40B3F2F0000BC
:102E880008007208730403194A2F4B2F7A2FF60192
:102E9800F60A592F01300310F20DF30DFF3E031D02
:102EA8004F2F0130FF007F08F607F31F5C2F5D2FBF
:102EB8004E2F73087502031D632F72087402031CDA
:102EC800662F672F6D2F7208F4027308031CF50331
:102ED800F50201300310F30CF20CFF3E031D6E2FB8
:102EE8000130F602031D792F7A2F5D2F7508F30044
:102EF8007408F2000800F5007508F6009C2F0130F0
:102F0800F3020030031CF403F40272088400013059
:102F1800F20783130008FF00760884000130F607E3
:102F28007F0880000008031D9A2F9B2F9C2FAB2F32
:102F380073087404031DA12FA22F832FAB2F7608CB
:102F48008400831380010130FF007F08F6070130F9
:102F5800F3020030031CF403F402730A031DB82FB4
:102F6800740A031DB82FB92FA32F08008312031367
:102F7800A001A101760877040319C32FC42FFB2FE2
:102F8800A201A20AD22F01300310F60DF70DFF3E61
:102F9800031DC82F0130FF007F08A207F71FD52F98
:102FA800D62FC72F01300310A00DA10DFF3E031D22
:102FB800D72F77087902031DE32F76087802031CC0
:102FC800E62FE72FEE2F7608F8027708031CF9039F
:102FD800F902201401300310F70CF60CFF3E031D14
:102FE800EF2F0130A202031DFA2FFB2FD62F210845
:082FF800F7002008F6000800B4
:02400E00FB3F76
:00000001FF
