:020000040000FA
:060000000A128A110C280F
:10000800FE00030EF0000A08F1000A128A151E2EDF
:100018000A128A110F288313A630FD000330FE0050
:10002800FA30FF00A03084000A128A1568240A12E8
:100038008A117030FD000B30FE00E930FF00663099
:1000480084000A128A1568240A128A110A128A116F
:10005800FC270A128A11FA000A128A11FD270A12CD
:100068008A11FB004430840066300A128A15CF23B7
:100078000A128A1183010A128A1142280A128A1561
:100088006C250A128A1183120313BC01BC0A6B087F
:10009800B8006C08B9006D08BA00C101323084009C
:1000A80083160313200883138000840A2108800024
:1000B800840A22088000840A23088000840A24080D
:1000C8008000840A25088000003083120313C000D2
:1000D8000030BF000030BE000030BD00A001383045
:1000E8000A128A150A270A128A119A30F5008030F6
:1000F800F60000300A128A15C2250A128A11013048
:100108000A128A115F250A128A1183120313C30087
:10011800823083120313AF00DD30AE00AE0B92289D
:10012800AF0B9228373083120313430603199D2817
:100138009E28A4282F304306031DA328A4280A2993
:100148003F3043060319A928AA28DB284008B10034
:100158003F08B0003E08AF003D08AE000130BD07C3
:100168000030BE070318BF0ABF070318C00AC0073C
:100178003108031DCD283008031DCD282F08031D85
:10018800CD28C9302E02031DC928031CCC28CD2830
:1001980012293730831203134306031DD428D528A8
:1001A800D8284430C30012295530C300122940080A
:1001B800031DEB283F08031DEB283E08031DEB2811
:1001C800C8303D02031DE8280318EB28EC28122943
:1001D8008312031340083F043E043D040319F52825
:1001E800F62812290030C0000030BF000030BE00E1
:1001F8000030BD0037304306031D032904290729B1
:100208003730C30012292F30C30012290030C00034
:100218000030BF000030BE000030BD000A30F600DC
:100228000030F7000A128A153F240A128A1173084F
:10023800F9007208F8000A128A11B4230A128A1106
:10024800760883120313C20064304202031C2D296E
:100258002E2930296330C2003E304306031D35295C
:1002680036294929A430F20038300A128A15A12407
:100278000A128A11831203134208A00038300A12A6
:100288008A150A270A128A11152A3D304306031DCA
:100298004E294F297029063041020318542955293F
:1002A80070294108323E840083130008F200383078
:1002B8000A128A15A1240A128A110130FF007F0848
:1002C80083120313C1074208A00038300A128A15A6
:1002D8000A270A128A11152A3B304306031D75297D
:1002E80076299429410803197A297B299429013010
:1002F800C1024108323E840083130008F2003830FE
:100308000A128A15A1240A128A11831203134208B9
:10031800A00038300A128A150A270A128A11152AEB
:1003280037304306031999299A29A0292F30430603
:10033800031D9F29A029CB293C03031DA429A52916
:10034800CB290230BC000A128A152E240A128A11FF
:100358002F30F6008030F7008030F8000A128A1536
:10036800EF250A128A11F201C4300A128A11C6272F
:100378000A128A11F2010F300A128A11C6270A12CC
:100388008A1183120313BB01BB0A1215152A152AF9
:100398004208A20038300A128A116F270A128A11FD
:1003A800222A0A128A152E240A128A11831203138A
:1003B800BC01BC0AF2010C300A128A11C6270A12C3
:1003C8008A11831203131211222A0A128A152E2463
:1003D8000A128A11F2010C300A128A11C6270A126F
:1003E8008A118312031312110430BC000530BB00BC
:1003F80083283B08A20043080A128A1129220A12FC
:100408008A11013A0319E929023A0319D529222A3E
:100418003B08A20043080A128A11C8240A128A114A
:10042800222A831203133C08013A0319CC29033A00
:100438000319FD29063A03190C2A222A83120313E9
:10044800BB0183280A128A110C2883120313AA00FD
:100458002203031D302A312A3C2ACC01E201E301A0
:10046800E401E5013F30AA000330CB000530CE009F
:100478004E08031D402A412A432A0330B32B373044
:100488002A06031D482A492A672A04304C02031801
:100498004E2A4F2A672A4C08623E84003130831363
:1004A80080004C08C43EA0002A300A128A1577241E
:1004B8000A128A110130FF007F0883120313CC0748
:1004C8000530CE00832A2F302A06031D6C2A6D2A98
:1004D800832A04304C020318722A732A832A4C0890
:1004E800623E84003030831380004C08C43EA00074
:1004F8002A300A128A1577240A128A115E2A0430D1
:100508004C06031D882A892AB32BF2010C300A12E3
:100518008A11C6270A128A1183120313AB01AC0190
:10052800831203132B08263E84002B080A128A150F
:1005380097250A128A11831380000130831203134E
:10054800AB070318AC0A0030AC072C08803AFF0050
:1005580080307F02031DB22A04302B02031CB52A07
:10056800B62A942A2630F2000430F3000030F40052
:1005780062300A128A155A270A128A1172087304FD
:10058800031DC72AC82AE82A0A128A152E240A1225
:100598008A113E30F6008030F7008230F8000A12E7
:1005A8008A15EF250A128A11333083120313A50026
:1005B800BB30A400DF30A300A30BE02AA40BE02A81
:1005C800A50BE02A0130B32B013083120313CB02B1
:1005D8000A128A152E240A128A11831203134B0851
:1005E8000319F72AF82A282B2030F6008030F70064
:1005F8008030F8000A128A15EF250A128A11C030D5
:1006080083120313A0004B08303E0A128A15772480
:100618000A128A115A30F6008030F700C230F8000A
:100628000A128A15EF250A128A114D308312031314
:10063800A5001930A4004F30A300A30B212BA40B55
:10064800212BA50B212B902B4B08031D2C2B2D2B7D
:10065800902B0130F6008030F7008030F8000A1245
:100668008A15EF250A128A119130F6008030F700BA
:10067800C030F8000A128A15EF250A128A119F3035
:10068800F6008030F700CC30F8000A128A15EF2502
:100698000A128A113C3083120313CF00872BC9300A
:1006A800A0000A30F2000030F3004F08A300A401B4
:1006B8002308F4002408F5000A128A114C260A12AD
:1006C8008A117208303E0A128A1577240A128A1192
:1006D800CA3083120313A0000A30F2000030F3007E
:1006E8004F08A300A4012308F4002408F5000A1207
:1006F8008A1116270A128A117208303E0A128A15C0
:1007080077240A128A11831203134F08031D8D2BB5
:100718008E2B532B0330CB000A128A152E240A1273
:100728008A112F30F6008030F7008030F8000A1266
:100738008A15EF250A128A11F201C4300A128A11A9
:10074800C6270A128A11F2010F300A128A11C62727
:100758000A128A1183120313CC010530CE00080057
:1007680083120313A001A101760877040319BD2B96
:10077800BE2BF52BA201A20ACC2B01300310F60DDB
:10078800F70DFF3E031DC22B0130FF007F08A207B3
:10079800F71FCF2BD02BC12B01300310A00DA10DBB
:1007A800FF3E031DD12B77087902031DDD2B760848
:1007B8007802031CE02BE12BE82B7608F802770877
:1007C800031CF903F902201401300310F70CF60C8E
:1007D800FF3E031DE92B0130A202031DF42BF52B6C
:1007E800D02B2108F7002008F6000800B334B634EF
:1007F800A734AA34AD34B034FF1B0A2C83137F18F6
:1008080083170008840A0319FF0A080004308A00C5
:100818000408840A8207003459346F34753420344C
:10082800613472346534203462346C346F34633428
:100838006B34653464340034543449344D344534AD
:1008480020342034203420342034453420342034DB
:10085800533450340034573472346F346E34673440
:1008680020347034613473347334773472346F34B1
:100878006434003445346E3474346534723420344E
:10088800503461347334733477346F34723464346D
:1008980000344C344F34473449344E3420345334C4
:1008A8005534433443344534533453340034433497
:1008B800683461346E34673465342034703461349C
:1008C8007334733477346434003461347434743476
:1008D80065346D3470347434733420346C34653456
:1008E80066347434003444346F3477346E346C3482
:1008F8006F346134643420346C346F3467340034BA
:1009080043346C3465346134723420346C346F345D
:10091800673400345334653474342034743469349F
:100928006D34653400345634693465347734203492
:100938006C346F3467340034773461346934743418
:10094800203466346F347234003431343034313406
:1009580030340034733465346334733400344334CE
:1009680020340034473431340034473432340034CE
:1009780047343334003447343434003447344E3445
:10098800003447345234003483120313A300053073
:100998002206031DD02CD12CD22CCD0137302306B2
:1009A800031DD72CD82CE82C04304D020318DD2C5D
:1009B800DE2CE82C0130FF007F08CD070A128A15CB
:1009C8002E240A128A11F62C2F302306031DED2C33
:1009D800EE2CF62C4D080319F22CF32CF62C0130D2
:1009E800CD02E22C0430831203134D06031DFD2CA7
:1009F800FE2C2D2D4D08653E840083130008F6005B
:100A08000030031D8030F7008230F8000A128A1582
:100A1800EF250A128A11831203134D08663E8400DB
:100A280083130008F6000030031D8030F700C23041
:100A3800F8000A128A15EF250A128A11C0308312AB
:100A48000313A0002A300A128A1577240A128A1181
:100A58005B2D4D08663E840083130008F6000030C5
:100A6800031D8030F7008230F8000A128A15EF253E
:100A78000A128A11831203134D08673E84008313F8
:100A88000008F6000030031D8030F700C230F8007F
:100A98000A128A15EF250A128A118030831203136D
:100AA800A0002A300A128A1577240A128A118312A2
:100AB80003134D080800F2008312031306083F3998
:100AC800F6007208031D692D6A2D6C2D7608E32D3A
:100AD800373076060319712D722D782D2F30760652
:100AE800031D772D782DAD2D76087A06031D7D2DF3
:100AF8007E2DA22D0130C9070318CA0A0030CA0783
:100B080000304A02C93003194902031C8C2D8D2D6F
:100B1800C12DC901CA013F30FA00373076060319E2
:100B2800962D972D9C2D5530F3000030F400A02D04
:100B38004430F3000030F4007308E32D3F307A06A8
:100B4800031DA72DA82DC12D7608FA00C901CA01D9
:100B5800C12D37307A060319B22DB32DB92D2F3098
:100B68007A06031DB82DB92DC12D7A08F5003F303E
:100B7800FA00C901CA017508E32D3F30760603194A
:100B8800C62DC72DDA2D7B080319CB2DCC2DDA2DD8
:100B9800373076060319D12DD22DDA2D2F3076066F
:100BA8000319D72DD82DDA2DFB016A2D3F30760693
:100BB800031DDF2DE02DE22DFB01FB0A3F3008006D
:100BC800003083120313A4000030A3000030A200F9
:100BD8000030A10075087404730472040319F52D1C
:100BE800F62D432EA501A50A062E0130A0000310FC
:100BF800F20DF30DF40DF50DA00BFB2D0130FF00E8
:100C08007F08A507F51F092E0A2EF92D0130A0002F
:100C18000310A10DA20DA30DA40DA00B0C2E750899
:100C28007902031D212E74087802031D212E7308F2
:100C38007702031D212E72087602031C242E252E0E
:100C4800342E7208F6027308031C730FF702740837
:100C5800031C740FF8027508031C750FF9022114A0
:100C680001300310F50CF40CF30CF20CFF3E031DDD
:100C7800352E0130A502031D422E432E0A2E2408CC
:100C8800F5002308F4002208F3002108F200080008
:100C9800F701F31F502E512E582EF209F309F20ACC
:100CA8000319F30AF701F70AF51F5B2E5C2E652E70
:100CB800F409F509F40A0319F50A0130FF007F0861
:100CC800F706F801F9017208730403196C2E6D2EEA
:100CD800A42EF601F60A7B2E01300310F20DF30D57
:100CE800FF3E031D712E0130FF007F08F607F31F3A
:100CF8007E2E7F2E702E01300310F80DF90DFF3E69
:100D0800031D802E73087502031D8C2E7208740251
:100D1800031C8F2E902E972E7208F4027308031C62
:100D2800F503F502781401300310F30CF20CFF3EC2
:100D3800031D982E0130F602031DA32EA42E7F2E2C
:100D480077080319A82EA92EAE2EF809F909F80A72
:100D58000319F90A7908F3007808F2000800C3308B
:100D6800F700CD30F600F60BB72EF70BB72EF201D1
:100D780033300A128A11C6270A128A111B30F7006B
:100D88009E30F600F60BC62EF70BC62E0000F201B9
:100D980033300A128A11C6270A128A11A630F600C1
:100DA800F60BD42E0000F20133300A128A11C6273E
:100DB8000A128A11DF2EE02E0000F20102300A1218
:100DC8008A11C6270A128A11A630F600F60BEA2EF7
:100DD8000000F20128300A128A11C6270A128A1165
:100DE800A630F600F60BF62E0000F20101300A12CA
:100DF8008A11C6270A128A110430F7003D30F6001E
:100E0800F60B042FF70B042F092FF2010C300A12EE
:100E18008A11C6270A128A11A630F600F60B122F7D
:100E280000000800F701F51F1A2F1B2F222FF409C5
:100E3800F509F40A0319F50AF701F70AF31F252F34
:100E4800262F2B2FF209F309F20A0319F30A720865
:100E580073040319302F312F602FF601F60A3F2F44
:100E680001300310F20DF30DFF3E031D352F013045
:100E7800FF007F08F607F31F422F432F342F730814
:100E88007502031D492F72087402031C4C2F4D2F45
:100E9800532F7208F4027308031CF503F50201309E
:100EA8000310F30CF20CFF3E031D542F0130F60221
:100EB800031D5F2F602F432F77080319642F652FB9
:100EC8006A2FF409F509F40A0319F50A7508F300FD
:100ED8007408F200080083120313A5001130F6000D
:100EE8008030F7008230F8000A128A15EF250A12BE
:100EF8008A110A128A15AA270A128A118312031361
:100F08002508F6000030F700CB30F8000A128A15E1
:100F1800EF250A128A11CE3083120313A0000A307B
:100F2800F2000030F3002208A300A4012308F40013
:100F38002408F5000A128A114C260A128A1172082E
:100F4800303E0A128A1577240A128A11CF3083128A
:100F58000313A0000A30F2000030F3002208A300B7
:100F6800A4012308F4002408F5000A128A111627A0
:100F78000A128A117208303E0A128A1577240A1258
:100F88008A110800F5007218CA2FCE2F8312031396
:100F98000915D12F8312031309117508F039880038
:100FA8008914A630F300F30BD72F00008312031324
:100FB800891075080F39F30003300310F30DFF3E55
:100FC800031DE12F0310730D88008914A630F30068
:100FD800F30BEC2F00008312031389101B30F4006D
:100FE8009E30F300F30BF62FF40BF62F00000800E9
:040FF8003F3401344D
:101784008316031306083F388600080083160313E4
:101794009F17831203131F14080064008001840A36
:1017A4000406031900340406D02B0A128A151424E3
:1017B4000A128A1583160313111408000A128A15D3
:1017C40014240A128A158316031311150800883489
:1017D400753468347F344C344F344E340034FF3421
:1017E400FF340A128A15E0230A128A150A128A158E
:1017F400D7230A128A150800F2000A128A15142443
:101804000A128A15720883120313930008008316C0
:1018140003138801091189100A128A11B3260A12C6
:101824008A150800831603131419192C1A2C142C66
:1018340011081F39031D1F2C202C142C080083129F
:10184400031312149214FA308316031392008C14A7
:101854008312031312110800F20101300A128A11D3
:10186400C6270A128A150430F7003D30F600F60B3D
:10187400392CF70B392C3E2C0800831203131F1547
:101884001F19452C462C422C1E08F5008316031301
:101894001E08F4007508F3007408F2000800003014
:1018A4000A128A1541250A128A15F60076087F392C
:1018B400F6007608F30000300A128A15BC240A12D6
:1018C4008A1508007E088A007F0882000A128A1599
:1018D40064240A128A158000840A04087D06031908
:1018E4000034FF0A0319FE0A682C83120313A100B3
:1018F400F20120080A128A11C6270A128A15F20177
:10190400F20A8312031321080A128A11C6270A1243
:101914008A150800F400F301741C912C922C962C67
:101924007208FF007F08F3070310F20D0310F40C94
:101934007408031D9E2C9F2C8E2C73080800F40041
:101944007408F3000130F207FF30720784000A12B2
:101954008A110A240A128A15FF00730884000130D0
:10196400F3077F08831380000008031DBA2CBB2CE7
:10197400A42C0800F4000A128A15D7230A128A1527
:10198400D0300A128A15FE230A128A1574080A1224
:101994008A15FE230A128A1573080A128A15FE2371
:1019A4000A128A150A128A15E0230A128A150800F7
:1019B400F4000A128A15D7230A128A15A0300A12D3
:1019C4008A15FE230A128A1574080A128A15FE2340
:1019D4000A128A1573080A128A15FE230A128A1536
:1019E4000A128A15E0230A128A150800F2000A1264
:1019F4008A1514240A128A158316031391150A12E0
:101A04008A1514240A128A15831203131308F30087
:101A14007203031D0E2D0F2D132D83160313911620
:101A2400162D83160313911211167308080005303E
:101A3400F800013083120313EE070318EF0A003095
:101A4400EF070A306E066F04031D292D2A2D2C2D55
:101A5400EE01EF010A30F2006E080A128A158C2496
:101A64000A128A157807F8005030F5000030F600A5
:101A740078080A128A15C2250A128A150800F40089
:101A84000A128A15D7230A128A15D0300A128A1527
:101A9400FE230A128A1574080A128A15FE230A12F2
:101AA4008A150A128A15F3230A128A15D1300A12EA
:101AB4008A15FE230A128A1500300A128A15F824A0
:101AC4000A128A15F5000A128A15E0230A128A15E9
:101AD40075080800003083120313A9000130A80020
:101AE4008630A700A030A6000A128A1550260A12D2
:101AF4008A150A128A1551240A128A150A128A159D
:101B040009240A128A150A128A15C2230A128A158E
:101B14000A128A15C8230A128A150A128A15212460
:101B24000A128A158B170B170800F4000A128A157B
:101B3400D7230A128A15A0300A128A15FE230A1224
:101B44008A1574080A128A15FE230A128A150A12C3
:101B54008A15F3230A128A15A1300A128A15FE2364
:101B64000A128A1500300A128A15F8240A128A15F4
:101B7400F5000A128A15E0230A128A15750808006E
:101B8400F700DE2D7608FF00750884000A128A111A
:101B940000240A128A15F30077080A128A15DA2437
:101BA4000A128A150130F5070318F60A0030F60701
:101BB4000130FF007F08F707760883120313FF0044
:101BC400750884000A128A1100240A128A15003A40
:101BD400031DED2DEE2DC42D0800F20178080A1224
:101BE4008A11C6270A128A150D2EF201F20A770805
:101BF400FF00760884000A128A1100240A128A154A
:101C04000A128A11C6270A128A150130F607031828
:101C1400F70A0030F707770883120313FF007608EA
:101C240084000A128A1100240A128A15003A031D3C
:101C34001C2E1D2EF72D0800831203138C1C232E3B
:101C4400242E492E0130C7070318C80A0030C807DC
:101C5400E2304706043003194806031D322E332EA2
:101C6400482E4F080319372E382E3A2E0130CF0252
:101C74004F08031D3E2E3F2E462E4E080319432EB9
:101C8400442E462E0130CE02C701C8018C107108C3
:101C94008A00700E8300FE0E7E0E09008312031369
:101CA40094152608AA002708AB002808AC002908C8
:101CB400AD0002300310AA0DAB0DAC0DAD0DFF3E0F
:101CC400031D5C2E2D08F5002C08F4002B08F300EE
:101CD4002A08F2000130F9003130F8002D30F70005
:101CE4000030F6000A128A11E4250A128A157208D5
:101CF400FF3E831603139300831203139416080004
:101D0400F5007508F6009F2E0130F3020030031C25
:101D1400F403F402720884000130F207831300080C
:101D2400FF00760884000130F6077F088000000871
:101D3400031D9D2E9E2E9F2EAE2E73087404031D2C
:101D4400A42EA52E862EAE2E760884008313800141
:101D54000130FF007F08F6070130F3020030031C56
:101D6400F403F402730A031DBB2E740A031DBB2E75
:101D7400BC2EA62E080002300A128A1541250A122A
:101D84008A1583120313C40001300A128A154125EF
:101D94000A128A1583120313C50000300A128A1529
:101DA40041250A128A1583120313C6004408F6005B
:101DB40004300310F60CFF3E031DDB2E76080339B6
:101DC400303EDB0044080F39303EDC004508F600A5
:101DD40004300310F60CFF3E031DEB2E7608073982
:101DE400303EDD0045080F39303EDE004608F6007F
:101DF40004300310F60CFF3E031DFB2E7608073952
:101E0400303EDF0046080F39303EE000E1010800B3
:101E140083120313A3005B30F2000630F30000309A
:101E2400F40050300A128A1582260A128A15831287
:101E340003132308F2000230F3000030F40056309C
:101E44000A128A1582260A128A150A30F200003014
:101E5400F300831203132008A100A2012108F40057
:101E64002208F5000A128A114C260A128A157208F1
:101E7400303E83120313D8000A30F2000030F3001E
:101E84002008A100A2012108F4002208F5000A128A
:101E94008A1116270A128A157208303E8312031318
:101EA400D900DA010A128A1519250A128A150800BE
:101EB400F7000130F3020030031CF403F402730A48
:101EC400031D682F740A031D682F692F7A2FF201EE
:101ED400F301A92F0130FF007F08F7070130FF004D
:101EE4007F08F2070130F3020030031CF403F4020C
:101EF40077088400831300080319812F822F9B2FF6
:101F04007208840000080319882F892F9B2F7308F7
:101F1400740403198E2F8F2F9B2F720884000008DE
:101F2400F500770884000008750603199A2F9B2F83
:101F34006C2F720884000008F500770884000008FC
:101F4400F60075087602F200F301031CF30308009F
:101F54000A128A15BD260A128A15C1308312031388
:101F6400A0005B080A128A1577240A128A15C23067
:101F740083120313A0005C080A128A1577240A123C
:101F84008A15C33083120313A0003A300A128A154B
:101F940077240A128A15C43083120313A0005D0843
:101FA4000A128A1577240A128A15C530831203137C
:101FB400A0005E080A128A1577240A128A15C63010
:101FC40083120313A0003A300A128A1577240A12E6
:101FD4008A15C73083120313A0005F080A128A15FA
:101FE40077240A128A15C83083120313A0006008EC
:0C1FF4000A128A1577240A128A150800C8
:02400E00FB3F76
:00000001FF
