:020000040000FA
:060000000A128A110C280F
:10000800FE00030EF0000A08F1000A128A158F2B71
:100018000A128A110F2883135E30FD000930FE0092
:100028008B30FF004E3084000A128A15D5210A123F
:100038008A110A128A152F210A128A11FA000A1245
:100048008A1530210A128A11FB00B3308400BE30B1
:100058000A128A11F8250A128A11203084003C30CD
:100068000A128A11F8250A128A1183010A128A11C2
:100078003D280A128A15B1220A128A1110308316F5
:100088000313B10083120313590883160313A7003F
:10009800831203135A0883160313A8008312031349
:1000A8005B0883160313A900AF01A03084008312F4
:1000B80003134E0883138000840A4F088000840AC3
:1000C80050088000840A51088000840A5208800081
:1000D800840A53088000003083160313AD000030F3
:1000E800AC000030AB000030AA00AD30F500803025
:1000F800F60000300A128A1533230A128A110130D9
:100108000A128A1173250A128A1183160313B20080
:10011800823083120313CB00DD30CA00CA0B922849
:10012800CB0B9228373083160313320603199D2808
:100138009E28A4282F303206031DA328A4281C2992
:100148003F3032060319A928AA28ED282D08831262
:100158000313CD00831603132C0883120313CC005A
:10016800831603132B0883120313CB008316031380
:100178002A0883120313CA00013083160313AA073F
:100188000030AB070318AC0AAC070318AD0AAD077B
:10019800831203134D08031DDF284C08031DDF28B5
:1001A8004B08031DDF2865304A02031DDB28031CAA
:1001B800DE28DF2824293730831603133206031D6F
:1001C800E628E728EA284430B20024295530B2004E
:1001D80024292D08031DFD282C08031DFD282B08A4
:1001E800031DFD2864302A02031DFA280318FD2880
:1001F800FE282429831603132D082C042B042A0413
:1002080003190729082924290030AD000030AC0063
:100218000030AB000030AA0037303206031D152924
:10022800162919293730B20024292F30B200242981
:100238000030AD000030AC000030AB000030AA0048
:100248000A30F6000030F7000A128A15AC210A12AB
:100258008A117308F9007208F8000A128A156424D2
:100268000A128A11760883160313B000643030022C
:10027800031C3F29402942296330B0003E30320632
:10028800031D472948295D29B730F200A7300A1213
:100298008A150E220A128A11831603133008831254
:1002A8000313BC00A7300A128A1547250A128A11BF
:1002B800A62A3D303206031D6229632986290630A5
:1002C8002F0203186829692986292F08A03E84006F
:1002D80083130008F200A7300A128A150E220A12A8
:1002E8008A110130FF007F0883160313AF07300817
:1002F80083120313BC00A7300A128A1547250A1275
:100308008A11A62A3B303206031D8B298C29AC2979
:100318002F08031990299129AC290130AF022F0821
:10032800A03E840083130008F200A7300A128A1541
:100338000E220A128A11831603133008831203133C
:10034800BC00A7300A128A1547250A128A11A62A64
:10035800373032060319B129B229B8292F303206AD
:10036800031DB729B829E62910303106031DBD2918
:10037800BE29E6291230B1000A128A159B210A12F9
:100388008A114230F6008030F7008030F8000A12F7
:100398008A1560230A128A11F201C4300A128A15DA
:1003A800F3230A128A11F2010F300A128A15F32375
:1003B8000A128A11033083160313AE008312031343
:1003C8001215A62A13303106031DEB29EC29152A2C
:1003D80044303206031DF129F229152A042A143063
:1003E800B1006030AE00A62A1530B100A62A16303A
:1003F800B100A62A1730B100A62A1830B100A62AE3
:100408002608003A0319F329013A0319F829033A8F
:100418000319FB29013A0319FE29073A0319012A8E
:10042800A62A14303106031D1A2A1B2A262A44300C
:100438003206031D202A212A262A1330B10005304E
:10044800AE00A62A13303106031D2B2A2C2A402A77
:1004580055303206031D312A322A402A0A128A15DB
:100468009B210A128A11103083160313B1008312DC
:100478000313B001B00AA62AA62A30088312031370
:10048800BE00A7300A128A15EF250A128A11B62A69
:100498000A128A159B210A128A1110308316031337
:1004A800B100F2010C300A128A15F3230A128A11DC
:1004B800831203131211B62A0A128A159B210A12F3
:1004C8008A11F2010C300A128A15F3230A128A11D2
:1004D800831203131211133083160313B10005306E
:1004E800AE0083282E0883120313BE00831603135D
:1004F80032080A128A11BE220A128A11013A031915
:10050800602A033A03194C2AB62A2E0883120313C9
:10051800BE008316031332080A128A1569270A12C5
:100528008A1183160313A600B62A2E088312031312
:10053800C0008316031332080A128A11DB260A1236
:100548008A11B62A831603133108103A0319412A6F
:10055800023A0319762A013A0319892A073A031934
:10056800992AB62A043083160313AE0083280A1288
:100578008A110C2883120313C6003003031DC52AF1
:10058800C62ACC2AAE010A128A159B210A128A11A0
:100598000330831203133E06031DD32AD42ADF2A0D
:1005A800AC01B801B901BA01BB013F30C600033044
:1005B800AB000530AE002E08031DE32AE42AE72A23
:1005C800B0010230572C37304606031DEC2AED2ABD
:1005D8000B2B04302C020318F22AF32A0B2B2C08BD
:1005E800383E84003130831380002C08C43EBC00A0
:1005F8002A300A128A15E4210A128A110130FF00F2
:100608007F0883120313AC070530AE00272B2F3069
:100618004606031D102B112B272B04302C02031820
:10062800162B172B272B2C08383E840030308313C9
:1006380080002C08C43EBC002A300A128A15E42126
:100648000A128A11022B04302C06031D2C2B2D2B89
:10065800572CF2010C300A128A15F3230A128A1158
:1006680083120313C701C801831203134708423ECC
:10067800840047080A128A15DC220A128A11831399
:100688008000013083120313C7070318C80A00301B
:10069800C8074808803AFF0080307F02031D562BA8
:1006A80004304702031C592B5A2B382B4230F200D6
:1006B8000430F3000030F40038300A128A15F724A9
:1006C8000A128A1172087304031D6B2B6C2B8C2B76
:1006D8000A128A159B210A128A115130F6008030BD
:1006E800F7008230F8000A128A1560230A128A116C
:1006F800333083120313C100BB30C000DF30BF00AA
:10070800BF0B842BC00B842BC10B842B0130572CBF
:10071800013083120313AB020A128A159B210A12B5
:100728008A11831203132B0803199B2B9C2BCC2BA8
:100738003330F6008030F7008030F8000A128A154E
:1007480060230A128A11C03083120313BC002B08DD
:10075800303E0A128A15E4210A128A116D30F60019
:100768008030F700C230F8000A128A1560230A1296
:100778008A114D3083120313C1001930C0004F3065
:10078800BF00BF0BC52BC00BC52BC10BC52B342C11
:100798002B08031DD02BD12B342C2330F6008030AE
:1007A800F7008030F8000A128A1560230A128A11AD
:1007B800A430F6008030F700C030F8000A128A151D
:1007C80060230A128A11B230F6008030F700CC306C
:1007D800F8000A128A1560230A128A113C30831223
:1007E8000313AF002B2CC930BC000A30F2000030D4
:1007F800F3002F08BF00C0013F08F4004008F500CF
:100808000A128A1502270A128A117208303E0A1241
:100818008A15E4210A128A11CA3083120313BC0014
:100828000A30F2000030F3002F08BF00C0013F0873
:10083800F4004008F5000A128A1546260A128A11A1
:100848007208303E0A128A15E4210A128A118312AC
:1008580003132F08031D312C322CF72B0330AB0068
:100868000A128A159B210A128A114230F60080303A
:10087800F7008030F8000A128A1560230A128A11DC
:10088800F201C4300A128A15F3230A128A11F201FE
:100898000F300A128A15F3230A128A1183120313DE
:1008A800AC010530AE0008000130F6008030F700DA
:1008B8008030F8000A128A1560230A128A11C030A3
:1008C80083120313BC003E08303E0A128A15E42145
:1008D8000A128A11C23083120313BC000A30F200D4
:1008E8003E080A128A15F9210A128A11053E0A12CF
:1008F8008A15DC220A128A110A128A15E4210A12C0
:100908008A11C33083120313BC000A30F2003E0878
:100918000A128A15F9210A128A11063E0A128A1544
:10092800DC220A128A110A128A15E4210A128A1193
:10093800C43083120313BC003A300A128A15E4212A
:100948000A128A11C53083120313BC000A30F20060
:100958003E080A128A15F9210A128A11073E0A125C
:100968008A15DC220A128A110A128A15E4210A124F
:100978008A11C63083120313BC000A30F2003E0805
:100988000A128A15F9210A128A11083E0A128A15D2
:10099800DC220A128A110A128A15E4210A128A1123
:1009A800C73083120313BC003A300A128A15E421B7
:1009B8000A128A11C83083120313BC000A30F200ED
:1009C8003E080A128A15F9210A128A11093E0A12EA
:1009D8008A15DC220A128A110A128A15E4210A12DF
:1009E8008A11C93083120313BC000A30F2003E0892
:1009F8000A128A15F9210A128A110A3E0A128A1560
:100A0800DC220A128A110A128A15E4210A128A11B2
:100A1800CA3083120313BC0020300A128A15E4215D
:100A28000A128A11CB3083120313BC000A30F20079
:100A38003E080A128A15F9210A128A110B3E0A1277
:100A48008A15DC220A128A110A128A15E4210A126E
:100A58008A11CC3083120313BC000A30F2003E081E
:100A68000A128A15F9210A128A110C3E0A128A15ED
:100A7800DC220A128A110A128A15E4210A128A1142
:100A8800CE3083120313BC000A30F2003E080A126B
:100A98008A15F9210A128A110D3E0A128A15DC22DA
:100AA8000A128A110A128A15E4210A128A11CF3011
:100AB80083120313BC000A30F2003E080A128A159A
:100AC800F9210A128A110E3E0A128A15DC220A122C
:100AD8008A110A128A15E4210A128A110800F20002
:100AE8008312031306083F39F6007208031D7D2D93
:100AF8007E2D802D7608F72D373076060319852D43
:100B0800862D8C2D2F307606031D8B2D8C2DC12D17
:100B180076087A06031D912D922DB62D0130A50772
:100B28000318A60A0030A60700302602153003195C
:100B38002502031CA02DA12DD52DA501A6013F300E
:100B4800FA00373076060319AA2DAB2DB02D553093
:100B5800F4000030F500B42D4430F4000030F50006
:100B68007408F72D3F307A06031DBB2DBC2DD52DFB
:100B78007608FA00A501A601D52D37307A060319A3
:100B8800C62DC72DCD2D2F307A06031DCC2DCD2D8A
:100B9800D52D7A08F3003F30FA00A501A6017308A5
:100BA800F72D3F3076060319DA2DDB2DEE2D7B0865
:100BB8000319DF2DE02DEE2D373076060319E52DCC
:100BC800E62DEE2D2F3076060319EB2DEC2DEE2DAC
:100BD800FB017E2D3F307606031DF32DF42DF62DF7
:100BE800FB01FB0A3F30080064008001840A040608
:100BF800031900340406F92DFF1B0A2E83137F18EE
:100C080083170008840A0319FF0A080006308A00BF
:100C18000408840A820700342334203454344934C5
:100C28004D344534203420342034203420344534A5
:100C3800203420345334503400344E346F3420344C
:100C48006C346F34673473342034613476346134EF
:100C58006C34613462346C346534003459346F3424
:100C680075342034613472346534203462346C3421
:100C78006F3463346B3465346434003457347234FD
:100C88006F346E34673420347034613473347334A1
:100C9800773472346F346434003445346E347434C9
:100CA8006534723420345034613473347334773497
:100CB8006F347234643400344C344F34473449341C
:100CC8004E34203453345534433443344534533448
:100CD800533400344334683461346E3467346534D3
:100CE80020347034613473347334773464340034AA
:100CF80061347434743465346D34703474347334DA
:100D080020346C34653466347434003444346F34BD
:100D180077346E346C346F346134643420346C341A
:100D28006F346734003443346C346534613472345E
:100D380020346C346F34673400345334653474347D
:100D48002034743469346D3465340034563469346D
:100D58006534773420346C346F3467340034773436
:100D6800613469347434203466346F347234003436
:100D780031343134313431340034733465346334CC
:100D8800733400344334203400344734313400346D
:100D9800473432340034473433340034473434343D
:100DA800003447344E34003447345234003483120C
:100DB8000313C4000130F6008030F7008030F800DB
:100DC8000A128A1560230A128A11831203135C0A15
:100DD800031DF22E5D0A031DF22EF32EFF2E123094
:100DE800F6008030F700C030F8000A128A15602338
:100DF8000A128A11972F60304006031D042F052F11
:100E08001F2FA701A8010030BE00BF000A128A11D7
:100E180058240A128A11273083120313C3000D3095
:100E2800C2002530C100C10B172FC20B172FC30BEF
:100E3800172F1E2F972F37304406031D242F252FD9
:100E48005E2F29082A0403192A2F2B2F3D2F013042
:100E5800A7070318A80A0030A8070A30270628049D
:100E6800031D372F382F522F83120313A701A80110
:100E7800522F0130A7070318A80A0030A8075D08F9
:100E8800803AC1002808803A4102031D4D2F2708E7
:100E98005C020318502F512F522F382F831203133F
:100EA8002808BF002708BE000A128A1158240A120F
:100EB8008A11972F2F304406031D632F642F972F15
:100EC80029082A040319692F6A2F7D2FFF30A707E5
:100ED8000318A80AFF30A807270A031D772F280A36
:100EE800031D772F782F522F0930A7000030A80054
:100EF800522F60304006031D822F832F882F5D08F4
:100F0800A8005C08A700522FFF30A7070318A80AFB
:100F1800FF30A807270A031D952F280A031D952FC0
:100F2800962F522F832F0800003083120313C0001E
:100F38000030BF000030BE000030BD0075087404EA
:100F4800730472040319A92FAA2FF72FC101C10A2C
:100F5800BA2F0130BC000310F20DF30DF40DF50D9E
:100F6800BC0BAF2F0130FF007F08C107F51FBD2F55
:100F7800BE2FAD2F0130BC000310BD0DBE0DBF0D3F
:100F8800C00DBC0BC02F75087902031DD52F74083E
:100F98007802031DD52F73087702031DD52F720819
:100FA8007602031CD82FD92FE82F7208F60273088F
:100FB800031C730FF7027408031C740FF8027508FA
:100FC800031C750FF9023D1401300310F50CF40CE5
:100FD800F30CF20CFF3E031DE92F0130C102031D83
:100FE800F62FF72FBE2F4008F5003F08F4003E0803
:080FF800F3003D08F2000800BF
:10125E003F3401348316031306083F388600080016
:10126E00831603139F17831203131F1408000A1209
:10127E008A1571210A128A15831603131114080098
:10128E000A128A1571210A128A1583160313111573
:10129E0008000A128A1547210A128A150A128A159F
:1012AE003E210A128A150800F2000A128A157121CF
:1012BE000A128A157208831203139300080083160C
:1012CE0003138801091189100A128A159F260A1222
:1012DE008A150800831603131419762977297129A4
:1012EE0011081F39031D7C297D29712908008312DD
:1012FE00031312149214FA308316031392008C14F3
:10130E008312031312110800C634C934BA34BD3423
:10131E00C034C3349B3488347B3492345F344F34BE
:10132E004E340034FF34FF34F20101300A128A15B4
:10133E00F3230A128A150430F7003D30F600F60B3F
:10134E00A629F70BA629AB290800831203131F1534
:10135E001F19B229B329AF291E08F50083160313EE
:10136E001E08F4007508F3007408F200080000303F
:10137E000A128A1586220A128A15F60076087F3915
:10138E00F6007608F30000300A128A1529220A1296
:10139E008A1508007E088A007F0882000A128A15C4
:1013AE00D1210A128A158000840A04087D060319C9
:1013BE000034FF0A0319FE0AD52983120313BD0058
:1013CE00F2013C080A128A15F3230A128A15F20159
:1013DE00F20A831203133D080A128A15F3230A1226
:1013EE008A150800F400F301741CFE29FF29032A54
:1013FE007208FF007F08F3070310F20D0310F40CC0
:10140E007408031D0B2A0C2AFB2973080800F4002C
:10141E007408F3000130F207FF30720784000A12DD
:10142E008A110A260A128A15FF00730884000130F9
:10143E00F3077F08831380000008031D272A282A3C
:10144E00112A0800F4000A128A153E210A128A1582
:10145E00D0300A128A155B210A128A1574080A12F4
:10146E008A155B210A128A1573080A128A155B21E6
:10147E000A128A150A128A1547210A128A150800BD
:10148E00F4000A128A153E210A128A15A0300A1299
:10149E008A155B210A128A1574080A128A155B21B5
:1014AE000A128A1573080A128A155B210A128A1506
:1014BE000A128A1547210A128A150800F2000A122A
:1014CE008A1571210A128A158316031391150A12B1
:1014DE008A1571210A128A15831203131308F30059
:1014EE007203031D7B2A7C2A802A8316031391160E
:1014FE00832A831603139112111673080800F40041
:10150E000A128A153E210A128A15D0300A128A153D
:10151E005B210A128A1574080A128A155B210A12B7
:10152E008A150A128A1550210A128A15D1300A120A
:10153E008A155B210A128A1500300A128A15652255
:10154E000A128A15F5000A128A1547210A128A15FF
:10155E0075080800003083120313C5000130C40063
:10156E008630C300A030C2000A128A15C1230A12A7
:10157E008A150A128A15BE210A128A150A128A15AE
:10158E0066210A128A150A128A1531210A128A1543
:10159E000A128A1537210A128A150A128A157E2115
:1015AE000A128A158B170B170800F4000A128A15F7
:1015BE003E210A128A15A0300A128A155B210A12E0
:1015CE008A1574080A128A155B210A128A150A12E4
:1015DE008A1550210A128A15A1300A128A155B212A
:1015EE000A128A1500300A128A1565220A128A1505
:1015FE00F5000A128A1547210A128A157508080085
:10160E000530F800013083120313DC070318DD0ADE
:10161E000030DD070A305C065D04031D172B182B06
:10162E001E2BDC01DD010130A9000030AA000A30BA
:10163E00F2005C080A128A15F9210A128A15780737
:10164E00F800B330F5000030F60078080A128A155B
:10165E0033230A128A150800F7004F2B7608FF0075
:10166E00750884000A128A1100260A128A15F300E0
:10167E0077080A128A1547220A128A150130F507D1
:10168E000318F60A0030F6070130FF007F08F7074F
:10169E00760883120313FF00750884000A128A115C
:1016AE0000260A128A15003A031D5E2B5F2B352B7E
:1016BE000800F20178080A128A15F3230A128A1515
:1016CE007E2BF201F20A7708FF00760884000A12D8
:1016DE008A1100260A128A150A128A15F3230A1293
:1016EE008A150130F6070318F70A0030F707770856
:1016FE0083120313FF00760884000A128A11002653
:10170E000A128A15003A031D8D2B8E2B682B0800AA
:10171E00831203138C1C942B952BBA2B0130A30729
:10172E000318A40A0030A407E2302306043003197C
:10173E002406031DA32BA42BB92B2F080319A82BAA
:10174E00A92BAB2B0130AF022F08031DAF2BB02BF3
:10175E00B72B2E080319B42BB52BB72B0130AE02C5
:10176E00A301A4018C1071088A00700E8300FE0E76
:10177E007E0E09008312031394154208C600430817
:10178E00C7004408C8004508C90002300310C60D42
:10179E00C70DC80DC90DFF3E031DCD2B4908F50021
:1017AE004808F4004708F3004608F2000130F9003B
:1017BE003130F8002D30F7000030F6000A128A1191
:1017CE0098270A128A157208FF3E83160313930098
:1017DE008312031394160800F5007218F72BFB2BD7
:1017EE00831203130915FE2B8312031309117508B7
:1017FE00F03988008914A630F300F30B042C000096
:10180E0083120313891075080F39F3000330031088
:10181E00F30DFF3E031D0E2C0310730D880089146B
:10182E00A630F300F30B192C00008312031389105A
:10183E001B30F4009E30F300F30B232CF40B232CFF
:10184E0000000800F5007508F600462C0130F30282
:10185E000030031CF403F402720884000130F20716
:10186E0083130008FF00760884000130F6077F0816
:10187E0080000008031D442C452C462C552C730863
:10188E007404031D4B2C4C2C2D2C552C76088400E7
:10189E00831380010130FF007F08F6070130F30249
:1018AE000030031CF403F402730A031D622C740A45
:1018BE00031D622C632C4D2C080083120313BD01F3
:1018CE00BE017608770403196D2C6E2CA52CBC0175
:1018DE00BC0A7C2C01300310F60DF70DFF3E031DE4
:1018EE00722C0130FF007F08BC07F71F7F2C802C65
:1018FE00712C01300310BD0DBE0DFF3E031D812C5A
:10190E0077087902031D8D2C76087802031C902C23
:10191E00912C982C7608F8027708031CF903F9022B
:10192E003D1401300310F70CF60CFF3E031D992CED
:10193E000130BC02031DA42CA52C802C3E08F70000
:10194E003D08F600080002300A128A1586220A1295
:10195E008A1583120313A00001300A128A158622FB
:10196E000A128A1583120313A10000300A128A1577
:10197E0086220A128A1583120313A2002008F6008B
:10198E0004300310F60CFF3E031DC82C76080339F5
:10199E00303EB10020080F39303EB2002108F6006B
:1019AE0004300310F60CFF3E031DD82C76080739C1
:1019BE00303EB30021080F39303EB4002208F60045
:1019CE0004300310F60CFF3E031DE82C7608073991
:1019DE00303EB50022080F39303EB600B701080080
:1019EE00F7000130F3020030031CF403F402730A13
:1019FE00031D052D740A031D052D062D172DF2014D
:101A0E00F301462D0130FF007F08F7070130FF007C
:101A1E007F08F2070130F3020030031CF403F402D6
:101A2E00770884008313000803191E2D1F2D382DEF
:101A3E007208840000080319252D262D382D7308F1
:101A4E00740403192B2D2C2D382D720884000008D8
:101A5E00F50077088400000875060319372D382D18
:101A6E00092D720884000008F5007708840000082C
:101A7E00F60075087602F200F301031CF30308006A
:101A8E0083120313BF003130F2000630F300003032
:101A9E00F400B3300A128A1529240A128A15831209
:101AAE0003133F08F2000230F3000030F400B930A7
:101ABE000A128A1529240A128A150A30F2000030F9
:101ACE00F300831203133C08BD00BE013D08F40071
:101ADE003E08F5000A128A1502270A128A157208A4
:101AEE00303E83160313BB000A30F2000030F300C1
:101AFE00831203133C08BD00BE013D08F4003E08EE
:101B0E00F5000A128A1546260A128A157208303E08
:101B1E0083160313BC00BD010A128A1507230A128D
:101B2E008A1508000A128A15AA240A128A15C130CB
:101B3E0083120313BC0031080A128A15E4210A121B
:101B4E008A15C23083120313BC0032080A128A159A
:101B5E00E4210A128A15C33083120313BC003A30F3
:101B6E000A128A15E4210A128A15C430831203134D
:101B7E00BC0033080A128A15E4210A128A15C530F0
:101B8E0083120313BC0034080A128A15E4210A12C8
:101B9E008A15C63083120313BC003A300A128A1516
:101BAE00E4210A128A15C73083120313BC003508CC
:101BBE000A128A15E4210A128A15C83083120313F9
:101BCE00BC0036080A128A15E4210A128A1508008A
:101BDE0083120313C1000330F6008030F700823009
:101BEE00F8000A128A1560230A128A150A128A153B
:101BFE0099250A128A15831203134108F600003044
:101C0E00F700CB30F8000A128A1560230A128A15E3
:101C1E00CE3083120313BC000A30F2000030F30002
:101C2E003E08BF00C0013F08F4004008F5000A124C
:101C3E008A1502270A128A157208303E0A128A1570
:101C4E00E4210A128A15CF3083120313BC000A3026
:101C5E00F2000030F3003E08BF00C0013F08F40060
:101C6E004008F5000A128A1546260A128A157208CD
:101C7E00303E0A128A15E4210A128A150800F7016D
:101C8E00F51F4A2E4B2E522EF409F509F40A0319AC
:101C9E00F50AF701F70AF31F552E562E5B2EF209A1
:101CAE00F309F20A0319F30A720873040319602E7A
:101CBE00612E902EF601F60A6F2E01300310F20DF2
:101CCE00F30DFF3E031D652E0130FF007F08F60762
:101CDE00F31F722E732E642E73087502031D792E58
:101CEE0072087402031C7C2E7D2E832E7208F40261
:101CFE007308031CF503F50201300310F30CF20C0C
:101D0E00FF3E031D842E0130F602031D8F2E902EF2
:101D1E00732E77080319942E952E9A2EF409F50931
:101D2E00F40A0319F50A7508F3007408F2000800A6
:101D3E00C330F700CD30F600F60BA32EF70BA32E13
:101D4E00F20133300A128A15F3230A128A151B3058
:101D5E00F7009E30F600F60BB22EF70BB22E0000F7
:101D6E00F20133300A128A15F3230A128A15A630AD
:101D7E00F600F60BC02E0000F20133300A128A155F
:101D8E00F3230A128A15CB2ECC2E0000F20102305C
:101D9E000A128A15F3230A128A15A630F600F60BDC
:101DAE00D62E0000F20128300A128A15F3230A12E9
:101DBE008A15A630F600F60BE22E0000F201013075
:101DCE000A128A15F3230A128A150430F7003D30E1
:101DDE00F600F60BF02EF70BF02EF52EF2010C306E
:101DEE000A128A15F3230A128A15A630F600F60B8C
:101DFE00FE2E00000800F701F31F062F072F0E2FEF
:101E0E00F209F309F20A0319F30AF701F70AF51FAB
:101E1E00112F122F1B2FF409F509F40A0319F50AD5
:101E2E000130FF007F08F706F801F901720873040C
:101E3E000319222F232F5A2FF601F60A312F0130C4
:101E4E000310F20DF30DFF3E031D272F0130FF008F
:101E5E007F08F607F31F342F352F262F013003107E
:101E6E00F80DF90DFF3E031D362F73087502031D85
:101E7E00422F72087402031C452F462F4D2F7208F5
:101E8E00F4027308031CF503F502781401300310F5
:101E9E00F30CF20CFF3E031D4E2F0130F602031D14
:101EAE00592F5A2F352F770803195E2F5F2F642F66
:101EBE00F809F909F80A0319F90A7908F3007808FC
:101ECE00F200080083120313BF0005303E06031D07
:101EDE00712F722F732FAD0137303F06031D782FF0
:101EEE00792F892F04302D0203187E2F7F2F892FF3
:101EFE000130FF007F08AD070A128A159B210A12D6
:101F0E008A15972F2F303F06031D8E2F8F2F972F59
:101F1E002D080319932F942F972F0130AD02832F85
:101F2E000430831203132D06031D9E2F9F2FCE2FD9
:101F3E002D08533E840083130008F6000030031D65
:101F4E008030F7008230F8000A128A1560230A12D8
:101F5E008A15831203132D08543E84008313000840
:101F6E00F6000030031D8030F700C230F8000A1270
:101F7E008A1560230A128A15C03083120313BC001F
:101F8E002A300A128A15E4210A128A15FC2F2D080E
:101F9E00543E840083130008F6000030031D803089
:101FAE00F7008230F8000A128A1560230A128A1589
:101FBE00831203132D08553E840083130008F60088
:101FCE000030031D8030F700C230F8000A128A1567
:101FDE0060230A128A15803083120313BC002A3044
:101FEE000A128A15E4210A128A15831203132D0888
:021FFE000800D9
:02400E00FB3F76
:00000001FF
