:020000040000FA
:060000000A128A110C280F
:10000800FE00030EF0000A08F1000A128A152B2FD1
:100018000A128A110F2883136D30FD000D30FE007F
:100028002230FF005D3084000A128A156C250A12FE
:100038008A110A128A11FC270A128A11FB00203041
:10004800840040300A128A15CD240A128A118301CD
:100058000A128A11BA2983120313C9004103031D26
:10006800362837284228A601BC01BD01BE01BF01C0
:100078003F30C9000330A5000530A8002808031D3B
:100088004628472849280330B92937304906031D2F
:100098004E284F286D280430260203185428552866
:1000A8006D2826083C3E84003130831380002608E2
:1000B800C43EFA002A300A128A157B250A128A11D0
:1000C8000130FF007F0883120313A6070530A8003C
:1000D80089282F304906031D72287328892804307F
:1000E8002602031878287928892826083C3E8400A7
:1000F8003030831380002608C43EFA002A300A12E2
:100108008A157B250A128A11642804302606031DE5
:100118008E288F28B929F2010C300A128A158F27E8
:100128000A128A1183120313CA01CB018312031323
:100138004A08453E84004A080A128A15A4260A126B
:100148008A1183138000013083120313CA0703182E
:10015800CB0A0030CB074B08803AFF0080307F0283
:10016800031DB82804304A02031CBB28BC289A285F
:100178004530F2000430F3000030F4003C300A123D
:100188008A11A8260A128A1172087304031DCD2841
:10019800CE28EE280A128A1532250A128A113E3014
:1001A800F6008030F7008230F8000A128A15FC2623
:1001B8000A128A11333083120313C400BB30C30000
:1001C800DF30C200C20BE628C30BE628C40BE628C2
:1001D8000130B929013083120313A5020A128A15C6
:1001E80032250A128A118312031325080319FD28E0
:1001F800FE282E292030F6008030F7008030F800E5
:100208000A128A15FC260A128A11C030FA008312D3
:1002180003132508303E0A128A157B250A128A1113
:100228005A30F6008030F700C230F8000A128A15FA
:10023800FC260A128A114D3083120313C4001930A8
:10024800C3004F30C200C20B2729C30B2729C40B98
:10025800272996292508031D322933299629013093
:10026800F6008030F7008030F8000A128A15FC2664
:100278000A128A119130F6008030F700C030F80079
:100288000A128A15FC260A128A119F30F60080305D
:10029800F700CC30F8000A128A15FC260A128A11D7
:1002A8003C3083120313A9008D29C930FA000A30A3
:1002B800F2000030F3002908C200C3014208F4002C
:1002C8004308F5000A128A11DC240A128A117208FE
:1002D800303E0A128A157B250A128A11CA30FA00A2
:1002E8000A30F2000030F300831203132908C20019
:1002F800C3014208F4004308F5000A128A11A62532
:100308000A128A117208303E0A128A157B250A12CF
:100318008A11831203132908031D93299429592943
:100328000330A5000A128A1532250A128A112F30C5
:10033800F6008030F7008030F8000A128A15FC2693
:100348000A128A11F201C4300A128A158F270A127A
:100358008A11F2010F300A128A158F270A128A11A0
:1003680083120313A6010530A80008000A128A1593
:1003780079260A128A1183120313D901D90A680847
:10038800D5006908D6006A08D700DA014F30840022
:100398005D0883138000840A5E088000840A5F0871
:1003A8008000840A60088000840A61088000840A4A
:1003B80062088000FA0155300A128A11F8260A12DA
:1003C8008A119A30F5008030F60000300A128A153A
:1003D800CF260A128A1101300A128A1524260A1217
:1003E8008A1183120313DC00823083120313CE00B8
:1003F800DD30CD00CD0BFE29CE0BFE290A30F600EC
:100408000030F7000A128A1543250A128A11730868
:10041800F9007208F8000A128A1195270A128A113F
:10042800760883120313DB0064305B02031C1D2A69
:100438001E2A202A6330DB003E305C06031D252A75
:10044800262A392AA430F20055300A128A15A52521
:100458000A128A11831203135B08FA0055300A1234
:100468008A11F8260A128A11052B3D305C06031DF5
:100478003E2A3F2A602A06305A020318442A452A8F
:10048800602A5A084F3E840083130008F200553052
:100498000A128A15A5250A128A110130FF007F0861
:1004A80083120313DA075B08FA0055300A128A111F
:1004B800F8260A128A11052B3B305C06031D652AB3
:1004C800662A842A5A0803196A2A6B2A842A013060
:1004D800DA025A084F3E840083130008F2005530B0
:1004E8000A128A15A5250A128A11831203135B08BA
:1004F800FA0055300A128A11F8260A128A11052BB9
:1005080037305C060319892A8A2A902A2F305C061C
:10051800031D8F2A902ABB2A5903031D942A952A62
:10052800BB2A0230D9000A128A1532250A128A110A
:100538002F30F6008030F7008030F8000A128A1554
:10054800FC260A128A11F201C4300A128A158F2772
:100558000A128A11F2010F300A128A158F270A121D
:100568008A1183120313D801D80A1215052B052BFB
:100578005B08C10055300A128A11FF250A128A1138
:10058800122B0A128A1532250A128A1183120313B2
:10059800D901D90AF2010C300A128A158F270A12DA
:1005A8008A11831203131211122B0A128A1532258B
:1005B8000A128A11F2010C300A128A158F270A12C0
:1005C8008A118312031312110430D9000530D800A0
:1005D800EF295808C1005C080A128A112F200A1254
:1005E8008A11013A0319D92A023A0319C52A122B8A
:1005F8005808C1005C080A128A11E1230A128A11FC
:10060800122B831203135908013A0319BC2A033A1F
:100618000319ED2A063A0319FC2A122B8312031335
:10062800D801EF290A128A110C28FF1B232B8313E8
:100638007F1883170008840A0319FF0A080003308B
:100648008A000408840A8207003459346F347534E8
:100658002034613472346534203462346C346F343D
:1006680063346B34653464340034543449344D3461
:100678004534203420342034203420344534203488
:100688002034533450340034573472346F346E3459
:10069800673420347034613473347334773472348B
:1006A8006F346434003445346E34743465347234D1
:1006B8002034503461347334733477346F34723483
:1006C800643400344C344F34473449344E34203485
:1006D8005334553443344334453453345334003459
:1006E8004334683461346E3467346534203470348C
:1006F800613473347334773464340034613474345B
:10070800743465346D3470347434733420346C3418
:10071800653466347434003444346F3477346E345A
:100728006C346F346134643420346C346F3467341F
:10073800003443346C3465346134723420346C349E
:100748006F3467340034533465347434203474346B
:1007580069346D346534003456346934653477341B
:1007680020346C346F34673400347734613469343E
:100778007434203466346F34723400343134303495
:1007880031343034003473346534633473340034B2
:10079800433420340034473431340034473432345D
:1007A8000034473433340034473434340034473465
:1007B8004E34003447345234003483120313C200D9
:1007C80005304106031DE92BEA2BEB2BA701373037
:1007D8004206031DF02BF12B012C043027020318CD
:1007E800F62BF72B012C0130FF007F08A7070A1210
:1007F8008A1532250A128A110F2C2F304206031D42
:10080800062C072C0F2C270803190B2C0C2C0F2C4B
:100818000130A702FB2B0430831203132706031DA4
:10082800162C172C442C2708623E840083130008DA
:10083800F6000030031D8030F7008230F8000A12FD
:100848008A15FC260A128A11831203132708633EAD
:10085800840083130008F6000030031D8030F70081
:10086800C230F8000A128A15FC260A128A11C03012
:10087800FA002A300A128A157B250A128A11702C6E
:100888002708633E840083130008F6000030031D28
:100898008030F7008230F8000A128A15FC260A1206
:1008A8008A11831203132708643E84008313000807
:1008B800F6000030031D8030F700C230F8000A123D
:1008C8008A15FC260A128A118030FA002A300A1288
:1008D8008A157B250A128A11831203132708080038
:1008E800003083120313C3000030C2000030C1007F
:1008F8000030C00075087404730472040319852C51
:10090800862CD32CC401C40A962C0130FA0003109B
:10091800F20DF30DF40DF50DFA0B8B2C0130FF00E1
:100928007F08C407F51F992C9A2C892C0130FA00EE
:100938000310C00DC10DC20DC30DFA0B9C2C750818
:100948007902031DB12C74087802031DB12C7308B9
:100958007702031DB12C72087602031CB42CB52C47
:10096800C42C7208F6027308031C730FF70274088C
:10097800031C740FF8027508031C750FF902401464
:1009880001300310F50CF40CF30CF20CFF3E031DC0
:10099800C52C0130C402031DD22CD32C9A2C430839
:1009A800F5004208F4004108F3004008F20008008E
:1009B800F701F31FE02CE12CE82CF209F309F20A05
:1009C8000319F30AF701F70AF51FEB2CEC2CF52CA9
:1009D800F409F509F40A0319F50A0130FF007F0844
:1009E800F706F801F901720873040319FC2CFD2CB1
:1009F800342DF601F60A0B2D01300310F20DF30D1C
:100A0800FF3E031D012D0130FF007F08F607F31F8D
:100A18000E2D0F2D002D01300310F80DF90DFF3E9E
:100A2800031D102D73087502031D1C2D7208740216
:100A3800031C1F2D202D272D7208F4027308031C98
:100A4800F503F502781401300310F30CF20CFF3EA5
:100A5800031D282D0130F602031D332D342D0F2DD3
:100A680077080319382D392D3E2DF809F909F80AA8
:100A78000319F90A7908F3007808F2000800C3306E
:100A8800F700CD30F600F60B472DF70B472DF20196
:100A980033300A128A158F270A128A111B30F70081
:100AA8009E30F600F60B562DF70B562D0000F2017E
:100AB80033300A128A158F270A128A11A630F600D7
:100AC800F60B642D0000F20133300A128A158F27C5
:100AD8000A128A116F2D702D0000F20102300A12DD
:100AE8008A158F270A128A11A630F600F60B7A2D7E
:100AF8000000F20128300A128A158F270A128A117B
:100B0800A630F600F60B862D0000F20101300A121D
:100B18008A158F270A128A110430F7003D30F60033
:100B2800F60B942DF70B942D992DF2010C300A1227
:100B38008A158F270A128A11A630F600F60BA22D05
:100B480000000800F701F51FAA2DAB2DB22DF409FE
:100B5800F509F40A0319F50AF701F70AF31FB52D89
:100B6800B62DBB2DF209F309F20A0319F30A72082C
:100B780073040319C02DC12DF02DF601F60ACF2DEF
:100B880001300310F20DF30DFF3E031DC52D01309A
:100B9800FF007F08F607F31FD22DD32DC42D73084D
:100BA8007502031DD92D72087402031CDC2DDD2D7E
:100BB800E32D7208F4027308031CF503F5020130F3
:100BC8000310F30CF20CFF3E031DE42D0130F60276
:100BD800031DEF2DF02DD32D77080319F42DF52DD6
:100BE800FA2DF409F509F40A0319F50A7508F30052
:100BF8007408F200080083120313C4001130F600D1
:100C08008030F7008230F8000A128A15FC260A1292
:100C18008A110A128A1156260A128A11831203139C
:100C28004408F6000030F700CB30F8000A128A15A5
:100C3800FC260A128A11CE30FA000A30F20000307F
:100C4800F300831203134108C200C3014208F400F1
:100C58004308F5000A128A11DC240A128A11720864
:100C6800303E0A128A157B250A128A11CF30FA0003
:100C78000A30F2000030F300831203134108C20067
:100C8800C3014208F4004308F5000A128A11A62598
:100C98000A128A117208303E0A128A157B250A1236
:100CA8008A1108000A128A1148270A128A11C130CB
:100CB800FA008312031335080A128A157B250A12D3
:100CC8008A11C230FA008312031336080A128A15F1
:100CD8007B250A128A11C330FA003A300A128A15A3
:100CE8007B250A128A11C430FA00831203133708CD
:100CF8000A128A157B250A128A11C530FA00831256
:100D0800031338080A128A157B250A128A11C6307D
:100D1800FA003A300A128A157B250A128A11C7305E
:100D2800FA008312031339080A128A157B250A125E
:100D38008A11C830FA00831203133A080A128A1576
:100D48007B250A128A110800F7000130F3020030EF
:100D5800031CF403F402730A031DB62E740A031D60
:100D6800B62EB72EC82EF201F301F72E0130FF0080
:100D78007F08F7070130FF007F08F2070130F30210
:100D88000030031CF403F40277088400831300087E
:100D98000319CF2ED02EE92E7208840000080319FB
:100DA800D62ED72EE92E730874040319DC2EDD2EF7
:100DB800E92E720884000008F5007708840000080E
:100DC80075060319E82EE92EBA2E72088400000869
:100DD800F500770884000008F60075087602F2002E
:100DE800F301031CF303080083120313C200353018
:100DF800F2000630F3000030F4002A300A128A1597
:100E0800C5270A128A11831203134208F20002301E
:100E1800F3000030F40030300A128A15C5270A1290
:100E28008A110A30F2000030F3007A0883120313A3
:100E3800C000C1014008F4004108F5000A128A11F7
:100E4800DC240A128A117208303E83120313B2009E
:100E58000A30F2000030F3007A08C000C1014008EF
:100E6800F4004108F5000A128A11A6250A128A110F
:100E78007208303E83120313B300B4010A128A15B4
:100E8800FC250A128A11080002300A128A154E2619
:100E98000A128A1183120313A00001300A128A155C
:100EA8004E260A128A1183120313A10000300A1277
:100EB8008A154E260A128A1183120313A2002008EB
:100EC800F60004300310F60CFF3E031D662F76086B
:100ED8000339303EB50020080F39303EB6002108EE
:100EE800F60004300310F60CFF3E031D762F76083B
:100EF8000739303EB70021080F39303EB8002208C4
:100F0800F60004300310F60CFF3E031D862F76080A
:100F18000739303EB90022080F39303EBA00BB010C
:100F2800080083120313C001C1017608770403196E
:100F38009E2F9F2FD62FC201C20AAD2F013003105A
:100F4800F60DF70DFF3E031DA32F0130FF007F08AC
:100F5800C207F71FB02FB12FA22F01300310C00D09
:100F6800C10DFF3E031DB22F77087902031DBE2F66
:100F780076087802031CC12FC22FC92F7608F80201
:100F88007708031CF903F902401401300310F70C29
:100F9800F60CFF3E031DCA2F0130C202031DD52FD8
:100FA800D62FB12F4108F7004008F6000800F200DC
:100FB8000A128A1508250A128A1183160313911535
:100FC8000A128A1508250A128A11831203131308B4
:100FD800F3007203031DF12FF22FF62F831603136C
:100FE8009116F92F8316031391121116730808002E
:020FF8000134C2
:101980008316031306083F388600080083160313E6
:101990009F17831203131F14080064008001840A38
:1019A0000406031900340406CE2C0A128A150825F1
:1019B0000A128A1583160313111408000A128A15D5
:1019C00008250A128A1583160313111508000A1236
:1019D0008A15DE240A128A150A128A15D5240A12DB
:1019E0008A150800F2000A128A1508250A128A15BB
:1019F00072088312031393000800831603138801EF
:101A0000091189100A128A1143250A128A15080041
:101A10008316031314190D2D0E2D082D11081F39CF
:101A2000031D132D142D082D080083120313121407
:101A30009214FA308316031392008C14831203134A
:101A400012110800B334B634A734AA34AD34B0341C
:101A50008834753468347F344C344F344E34003419
:101A6000FF34FF34F20101300A128A158F270A125F
:101A70008A150430F7003D30F600F60B3D2DF70BCC
:101A80003D2D422D0800831203131F151F19492DE8
:101A90004A2D462D1E08F500831603131E08F40078
:101AA0007508F3007408F200080000300A128A1565
:101AB0004E260A128A15F60076087F39F600760857
:101AC000F30000300A128A15C0250A128A15080090
:101AD0007E088A007F0882000A128A1568250A1289
:101AE0008A158000840A04087D0603190034FF0A61
:101AF0000319FE0A6C2D83120313C000F2017A0849
:101B00000A128A158F270A128A15F201F20A831225
:101B1000031340080A128A158F270A128A15080033
:101B2000F400F301741C952D962D9A2D7208FF0078
:101B30007F08F3070310F20D0310F40C7408031D63
:101B4000A22DA32D922D73080800F4007408F30051
:101B50000130F207FF30720784000A128A11232332
:101B60000A128A15FF00730884000130F3077F080A
:101B7000831380000008031DBE2DBF2DA82D080073
:101B8000F4000A128A15D5240A128A15D0300A12D6
:101B90008A15F2240A128A1574080A128A15F22488
:101BA0000A128A1573080A128A15F2240A128A1573
:101BB0000A128A15DE240A128A150800F4000A1295
:101BC0008A15D5240A128A15A0300A128A15F22421
:101BD0000A128A1574080A128A15F2240A128A1542
:101BE00073080A128A15F2240A128A150A128A1533
:101BF000DE240A128A1508000530F800013083122D
:101C00000313EB070318EC0A0030EC070A306B06ED
:101C10006C04031D0C2E0D2E0F2EEB01EC010A306F
:101C2000F2006B080A128A1590250A128A157807A5
:101C3000F8002A30F5000030F60078080A128A15FC
:101C4000CF260A128A150800F3007308031D292EF7
:101C50002A2E2F2E8312031306083F394D2E3F30B4
:101C6000831203130605F2003F3072060319392E62
:101C70003A2E412E7B0803193E2E3F2E412EFB01AA
:101C80002A2E3F300605F2003F307206031D492E12
:101C90004A2E4C2EFB01FB0A3F300800F4000A12CA
:101CA0008A15D5240A128A15D0300A128A15F22410
:101CB0000A128A1574080A128A15F2240A128A1561
:101CC0000A128A15E7240A128A15D1300A128A15D7
:101CD000F2240A128A1500300A128A11DB270A122E
:101CE0008A15F5000A128A15DE240A128A1575086B
:101CF0000800003083120313C8000130C70086308B
:101D0000C600A030C5000A128A155D270A128A157E
:101D10000A128A1555250A128A150A128A15FD24F7
:101D20000A128A150A128A15C0240A128A150A1282
:101D30008A15C6240A128A150A128A1515250A124E
:101D40008A158B170B170800F4000A128A15D52480
:101D50000A128A15A0300A128A15F2240A128A156C
:101D600074080A128A15F2240A128A150A128A15B0
:101D7000E7240A128A15A1300A128A15F2240A12DF
:101D80008A1500300A128A11DB270A128A15F5001B
:101D90000A128A15DE240A128A1575080800F7004F
:101DA000EB2E7608FF00750884000A128A111923A9
:101DB0000A128A15F30077080A128A15DE250A121C
:101DC0008A150130F5070318F60A0030F6070130CE
:101DD000FF007F08F707760883120313FF007508DA
:101DE00084000A128A1119230A128A15003A031D67
:101DF000FA2EFB2ED12E0800F20178080A128A155D
:101E00008F270A128A151A2FF201F20A7708FF00AB
:101E1000760884000A128A1119230A128A150A12F6
:101E20008A158F270A128A150130F6070318F70A58
:101E30000030F707770883120313FF007608840049
:101E40000A128A1119230A128A15003A031D292F32
:101E50002A2F042F0800831203138C1C302F312FDC
:101E6000562F0130A3070318A40A0030A407E2305C
:101E70002306043003192406031D3F2F402F552F3E
:101E800029080319442F452F472F0130A90229089B
:101E9000031D4B2F4C2F532F28080319502F512F60
:101EA000532F0130A802A301A4018C1071088A00ED
:101EB000700E8300FE0E7E0E09008312031394152C
:101EC0004508C9004608CA004708CB004808CC00AE
:101ED00002300310C90DCA0DCB0DCC0DFF3E031D02
:101EE000692F4C08F5004B08F4004A08F300490834
:101EF000F2000130F9003130F8002D30F7000030E9
:101F0000F6000A128A1174240A128A157208FF3E1A
:101F10008316031393008312031394160800F5002D
:101F20007218932F972F8312031309159A2F831278
:101F3000031309117508F03988008914A630F300DD
:101F4000F30BA02F000083120313891075080F39BB
:101F5000F30003300310F30DFF3E031DAA2F0310FF
:101F6000730D88008914A630F300F30BB52F000021
:101F70008312031389101B30F4009E30F300F30B1F
:101F8000BF2FF40BBF2F00000800F5007508F60006
:101F9000E22F0130F3020030031CF403F402720854
:101FA00084000130F20783130008FF0076088400E4
:101FB0000130F6077F0880000008031DE02FE12FA5
:101FC000E22FF12F73087404031DE72FE82FC92FA8
:101FD000F12F76088400831380010130FF007F0811
:101FE000F6070130F3020030031CF403F402730A15
:101FF000031DFE2F740A031DFE2FFF2FE92F08007B
:02400E00FB3F76
:00000001FF
