:020000040000FA
:060000000A128A110C280F
:10000800FE00030EF0000A08F1000A128A155C2BA4
:100018000A128A110F2883135E30FD000930FE0092
:100028003130FF004E3084000A128A157B210A12F3
:100038008A110A128A11FE250A128A11FA000A1276
:100048008A11FF250A128A11FB00B3308400BE30E2
:100058000A128A15E9200A128A11203084003C30DD
:100068000A128A15E9200A128A1183010A128A11D2
:100078003D280A128A157E220A128A111030831628
:100088000313B10083120313590883160313A7003F
:10009800831203135A0883160313A8008312031349
:1000A8005B0883160313A900AF01A03084008312F4
:1000B80003134E0883138000840A4F088000840AC3
:1000C80050088000840A51088000840A5208800081
:1000D800840A53088000003083160313AD000030F3
:1000E800AC000030AB000030AA00BE30F500803014
:1000F800F60000300A128A1500230A128A1101300C
:100108000A128A15E4260A128A1183160313B2000A
:10011800823083120313CB00DD30CA00CA0B922849
:10012800CB0B9228373083160313320603199D2808
:100138009E28A4282F303206031DA328A4281C2992
:100148003F3032060319A928AA28ED282D08831262
:100158000313CD00831603132C0883120313CC005A
:10016800831603132B0883120313CB008316031380
:100178002A0883120313CA00013083160313AA073F
:100188000030AB070318AC0AAC070318AD0AAD077B
:10019800831203134D08031DDF284C08031DDF28B5
:1001A8004B08031DDF2865304A02031DDB28031CAA
:1001B800DE28DF2824293730831603133206031D6F
:1001C800E628E728EA284430B20024295530B2004E
:1001D80024292D08031DFD282C08031DFD282B08A4
:1001E800031DFD2864302A02031DFA280318FD2880
:1001F800FE282429831603132D082C042B042A0413
:1002080003190729082924290030AD000030AC0063
:100218000030AB000030AA0037303206031D152924
:10022800162919293730B20024292F30B200242981
:100238000030AD000030AC000030AB000030AA0048
:100248000A30F6000030F7000A128A1552210A1205
:100258008A117308F9007208F8000A128A15312405
:100268000A128A11760883160313B000643030022C
:10027800031C3F29402942296330B0003E30320632
:10028800031D472948295D29C830F200A7300A1202
:100298008A15B4210A128A118316031330088312AF
:1002A8000313BC00A7300A128A11A9270A128A115F
:1002B800BE2A3D303206031D62296329862906308D
:1002C8002F0203186829692986292F08A03E84006F
:1002D80083130008F200A7300A128A15B4210A1203
:1002E8008A110130FF007F0883160313AF07300817
:1002F80083120313BC00A7300A128A11A9270A1215
:100308008A11BE2A3B303206031D8B298C29AC2961
:100318002F08031990299129AC290130AF022F0821
:10032800A03E840083130008F200A7300A128A1541
:10033800B4210A128A118316031330088312031397
:10034800BC00A7300A128A11A9270A128A11BE2AEC
:10035800373032060319B129B229B8292F303206AD
:10036800031DB729B829E62910303106031DBD2918
:10037800BE29E6291230B1000A128A1541210A1253
:100388008A115330F6008030F7008030F8000A12E6
:100398008A152D230A128A11F201C4300A128A150D
:1003A800C0230A128A11F2010F300A128A15C023DB
:1003B8000A128A11033083160313AE008312031343
:1003C8001215BE2A13303106031DEB29EC291E2A0B
:1003D80044303206031DF129F2291E2A0D2A143051
:1003E800B1000630AE00BE2A0A128A1541210A124F
:1003F8008A11153083160313B1000930AE00BE2AE6
:100408001630B100BE2A1730B100BE2A1830B1002C
:10041800BE2A2608003A0319F329013A0319F829D4
:10042800033A0319042A013A0319072A073A031958
:100438000A2ABE2A14303106031D232A242A2F2A09
:1004480044303206031D292A2A2A2F2A1330B100E4
:100458000530AE00BE2A13303106031D342A352A72
:10046800492A55303206031D3A2A3B2A492A0A12DC
:100478008A1541210A128A11103083160313B1001C
:1004880083120313B001B00ABE2ABE2A30088312B1
:100498000313BE00A7300A128A156A250A128A11A8
:1004A800D12A0A128A1541210A128A11103083169C
:1004B8000313B100F2010C300A128A15C0230A1284
:1004C8008A11831203131211D12A0A128A154121A3
:1004D8000A128A11F2010C300A128A15C0230A1274
:1004E8008A11831203131211133083160313B100F8
:1004F8000530AE0083282E0883120313BE0083162E
:10050800031332080A128A11D9220A128A11013AEF
:100518000319692A033A0319552AD12A2E08831286
:100528000313BE008316031332080A128A156927BB
:100538000A128A1183160313A600D12A2E088312E1
:100548000313C0008316031332080A128A11EC261B
:100558000A128A11D12A0A128A152C220A128A1121
:10056800133083160313B1000A128A1541210A12A7
:100578008A11D12A831603133108103A03194A2A1B
:10058800023A03197F2A013A0319922A073A0319F2
:10059800A22A013A0319AF2AD12A04308316031379
:1005A800AE0083280A128A110C2883120313C6008E
:1005B8003003031DE02AE12AE72AAE010A128A1550
:1005C80041210A128A110330831203133E06031DC8
:1005D800EE2AEF2AFA2AAC01B801B901BA01BB0127
:1005E8003F30C6000330AB000530AE002E08031DB7
:1005F800FE2AFF2A022BB0010230722C3730460641
:10060800031D072B082B262B04302C0203180D2B57
:100618000E2B262B2C08383E8400313083138000A3
:100628002C08C43EBC002A300A128A158A210A12F4
:100638008A110130FF007F0883120313AC070530CD
:10064800AE00422B2F304606031D2B2B2C2B422BA2
:1006580004302C020318312B322B422B2C08383E45
:1006680084003030831380002C08C43EBC002A303C
:100678000A128A158A210A128A111D2B04302C06A7
:10068800031D472B482B722CF2010C300A128A15D5
:10069800C0230A128A1183120313C701C8018312E7
:1006A80003134708423E840047080A128A15A92204
:1006B8000A128A1183138000013083120313C707BB
:1006C8000318C80A0030C8074808803AFF0080307D
:1006D8007F02031D712B04304702031C742B752BFA
:1006E800532B4230F2000430F3000030F40038306D
:1006F8000A128A15C4240A128A1172087304031D87
:10070800862B872BA72B0A128A1541210A128A11D8
:100718006230F6008030F7008230F8000A128A153D
:100728002D230A128A11333083120313C100BB3000
:10073800C000DF30BF00BF0B9F2BC00B9F2BC10B2E
:100748009F2B0130722C013083120313AB020A1263
:100758008A1541210A128A11831203132B080319DF
:10076800B62BB72BE72B4430F6008030F7008030EB
:10077800F8000A128A152D230A128A11C030831232
:100788000313BC002B08303E0A128A158A210A126C
:100798008A117E30F6008030F700C230F8000A1265
:1007A8008A152D230A128A114D3083120313C100B2
:1007B8001930C0004F30BF00BF0BE02BC00BE02B3F
:1007C800C10BE02B4F2C2B08031DEB2BEC2B4F2CD4
:1007D8003430F6008030F7008030F8000A128A15AD
:1007E8002D230A128A11B530F6008030F700C03088
:1007F800F8000A128A152D230A128A11C330F6004E
:100808008030F700CC30F8000A128A152D230A121E
:100818008A113C3083120313AF00462CC930BC0048
:100828000A30F2000030F3002F08BF00C0013F0873
:10083800F4004008F5000A128A157D260A128A116A
:100848007208303E0A128A158A210A128A11CA30A1
:1008580083120313BC000A30F2000030F3002F08A3
:10086800BF00C0013F08F4004008F5000A128A15CD
:10087800C1250A128A117208303E0A128A158A2185
:100888000A128A11831203132F08031D4C2C4D2CB6
:10089800122C0330AB000A128A1541210A128A1160
:1008A8005330F6008030F7008030F8000A128A15BD
:1008B8002D230A128A11F201C4300A128A15C023A4
:1008C8000A128A11F2010F300A128A15C0230A127D
:1008D8008A1183120313AC010530AE0008000A1216
:1008E8008A1541210A128A111230F6008030F70069
:1008F8008030F8000A128A152D230A128A11C03096
:1009080083120313BC003E08303E0A128A158A215E
:100918000A128A11C23083120313BC000A30F20093
:100928003E080A128A159F210A128A11053E0A12E8
:100938008A15A9220A128A110A128A158A210A120C
:100948008A11C33083120313BC000A30F2003E0838
:100958000A128A159F210A128A11063E0A128A155E
:10096800A9220A128A110A128A158A210A128A11E0
:10097800C43083120313BC003A300A128A158A2144
:100988000A128A11C53083120313BC000A30F20020
:100998003E080A128A159F210A128A11073E0A1276
:1009A8008A15A9220A128A110A128A158A210A129C
:1009B8008A11C63083120313BC000A30F2003E08C5
:1009C8000A128A159F210A128A11083E0A128A15EC
:1009D800A9220A128A110A128A158A210A128A1170
:1009E800C73083120313BC003A300A128A158A21D1
:1009F8000A128A11C83083120313BC000A30F200AD
:100A08003E080A128A159F210A128A11093E0A1203
:100A18008A15A9220A128A110A128A158A210A122B
:100A28008A11C93083120313BC000A30F2003E0851
:100A38000A128A159F210A128A110A3E0A128A1579
:100A4800A9220A128A110A128A158A210A128A11FF
:100A5800CB3083120313BC000A30F2003E080A129E
:100A68008A159F210A128A110B3E0A128A15A92299
:100A78000A128A110A128A158A210A128A11CC309E
:100A880083120313BC000A30F2003E080A128A15CA
:100A98009F210A128A110C3E0A128A15A9220A12EB
:100AA8008A110A128A158A210A128A11CE308312F3
:100AB8000313BC000A30F2003E080A128A159F216F
:100AC8000A128A110D3E0A128A15A9220A128A11DF
:100AD8000A128A158A210A128A11CF308312031347
:100AE800BC000A30F2003E080A128A159F210A1239
:100AF8008A110E3E0A128A15A9220A128A110A12AE
:100B08008A158A210A128A110800003083120313F9
:100B1800C0000030BF000030BE000030BD007508C6
:100B280074047304720403199A2D9B2DE82DC101D6
:100B3800C10AAB2D0130BC000310F20DF30DF40D0A
:100B4800F50DBC0BA02D0130FF007F08C107F51F74
:100B5800AE2DAF2D9E2D0130BC000310BD0DBE0D76
:100B6800BF0DC00DBC0BB12D75087902031DC62D34
:100B780074087802031DC62D73087702031DC62D5D
:100B880072087602031CC92DCA2DD92D7208F602E7
:100B98007308031C730FF7027408031C740FF80220
:100BA8007508031C750FF9023D1401300310F50C8C
:100BB800F40CF30CF20CFF3E031DDA2D0130C102D8
:100BC800031DE72DE82DAF2D4008F5003F08F40080
:100BD8003E08F3003D08F2000800831203131214C4
:100BE8009214FA308316031392008C1483120313A1
:100BF800121108003F340134FF1B0A2E83137F189B
:100C080083170008840A0319FF0A080006308A00BF
:100C18000408840A82070034203420346C346F348A
:100C280067347334203463346C346534613472341B
:100C3800653464342034203400342334203454346C
:100C480049344D3445342034203420342034203481
:100C58004534203420345334503400344E346F3407
:100C680020346C346F346734733420346134763410
:100C780061346C34613462346C3465340034593412
:100C88006F347534203461347234653420346234FE
:100C98006C346F3463346B346534643400345734E3
:100CA80072346F346E346734203470346134733482
:100CB8007334773472346F346434003445346E34AA
:100CC800743465347234203450346134733473347A
:100CD80077346F347234643400344C344F344734CE
:100CE80049344E3420345334553443344334453432
:100CF8005334533400344334683461346E346734C5
:100D08006534203470346134733473347734643424
:100D1800003461347434743465346D34703474342C
:100D2800733420346C346534663474340034443499
:100D38006F3477346E346C346F34613464342034F7
:100D48006C346F346734003443346C346534613444
:100D5800723420346C346F3467340034533465345F
:100D680074342034743469346D3465340034563442
:100D780069346534773420346C346F346734003424
:100D88007734613469347434203466346F3472349F
:100D9800003431343134313431340034733465340F
:100DA80063347334003443342034003447343134EA
:100DB8000034473432340034473433340034473451
:100DC8003434003447344E34003447345234003419
:100DD80083120313C4001230F6008030F70080300D
:100DE800F8000A128A152D230A128A118312031396
:100DF8005C0A031D032F5D0A031D032F042F102F08
:100E08002330F6008030F700C030F8000A128A1547
:100E18002D230A128A11A82F06304006031D152F0C
:100E2800162F302FA701A8010030BE00BF000A12FC
:100E38008A1173240A128A11273083120313C300FC
:100E48000D30C2002530C100C10B282FC20B282F3E
:100E5800C30B282F2F2FA82F37304406031D352FFB
:100E6800362F6F2F29082A0403193B2F3C2F4E2FAA
:100E78000130A7070318A80A0030A8070A30270678
:100E88002804031D482F492F632F83120313A7013A
:100E9800A801632F0130A7070318A80A0030A80784
:100EA8005D08803AC1002808803A4102031D5E2F80
:100EB80027085C020318612F622F632F492F8312C2
:100EC80003132808BF002708BE000A128A117324DA
:100ED8000A128A11A82F2F304406031D742F752F6C
:100EE800A82F29082A0403197A2F7B2F8E2FFF3069
:100EF800A7070318A80AFF30A807270A031D882F89
:100F0800280A031D882F892F632F0930A700003076
:100F1800A800632F06304006031D932F942F992FA6
:100F28005D08A8005C08A700632FFF30A707031817
:100F3800A80AFF30A807270A031DA62F280A031DA1
:100F4800A62FA72F632F942F080083120313BF0027
:100F58000A128A1577240A128A113130F2000630F3
:100F6800F3000030F400B3300A128A15F6230A128F
:100F78008A11831203133F08F2000230F300003095
:100F8800F400B9300A128A15F6230A128A110A30B7
:100F9800F2000030F300831203133C08BD00BE01C9
:100FA8003D08F4003E08F5000A128A157D260A124B
:100FB8008A117208303E83160313BB000A30F20010
:100FC8000030F300831203133C08BD00BE013D0846
:100FD800F4003E08F5000A128A15C1250A128A1182
:100FE8007208303E83160313BC00BD010A128A152D
:080FF800D4220A128A1108003C
:1011B8008316031306083F388600080083160313B6
:1011C8009F17831203131F14080064008001840A08
:1011D8000406031900340406EA280A128A15242191
:1011E8000A128A1583160313111408000A128A15A5
:1011F80024210A128A1583160313111508000A12EE
:101208008A15FA200A128A150A128A15F1200A127A
:101218008A150800F2000A128A1524210A128A1572
:1012280072088312031393000800831603138801BE
:10123800091189100A128A151A260A128A15080035
:1012480083160313141929292A29242911081F3957
:10125800031D2F29302924290800D734DA34CB3448
:10126800CE34D134D434AC3499348C34A33470347F
:101278004F344E340034FF34FF34F20101300A1287
:101288008A15C0230A128A150430F7003D30F6008B
:10129800F60B4C29F70B4C2951290800831203132C
:1012A8001F151F195829592955291E08F500831695
:1012B80003131E08F4007508F3007408F200080010
:1012C80000300A128A1553220A128A15F600760887
:1012D8007F39F6007608F30000300A128A15CF210C
:1012E8000A128A1508007E088A007F0882000A12FE
:1012F8008A1577210A128A158000840A04087D0657
:1013080003190034FF0A0319FE0A7B298312031309
:10131800BD00F2013C080A128A15C0230A128A1578
:10132800F201F20A831203133D080A128A15C02338
:101338000A128A150800F400F301741CA429A529CF
:10134800A9297208FF007F08F3070310F20D0310A4
:10135800F40C7408031DB129B229A12973080800E7
:10136800F4007408F3000130F207FF3072078400BC
:101378000A128A110A260A128A15FF0073088400C5
:101388000130F3077F08831380000008031DCD296F
:10139800CE29B7290800F4000A128A15F1200A128A
:1013A8008A15D0300A128A150E210A128A15740875
:1013B8000A128A150E210A128A1573080A128A154A
:1013C8000E210A128A150A128A15FA200A128A159B
:1013D8000800F4000A128A15F1200A128A15A030B2
:1013E8000A128A150E210A128A1574080A128A1519
:1013F8000E210A128A1573080A128A150E210A127A
:101408008A150A128A15FA200A128A150800F200AB
:101418000A128A1524210A128A15831603139115B4
:101428000A128A1524210A128A1583120313130833
:10143800F3007203031D212A222A262A8316031386
:101448009116292A8316031391121116730808009E
:10145800FF3083120313DC00FF30DD00A901AA016D
:101468000130F6008030F7008030F8000A128A1543
:101478002D230A128A15333083120313BE00BB30A2
:10148800BD00DF30BC00BC0B472ABD0B472ABE0B92
:10149800472A0A128A1541210A128A150800F400FF
:1014A8000A128A15F1200A128A15D0300A128A15F2
:1014B8000E210A128A1574080A128A150E210A12B8
:1014C8008A150A128A1503210A128A15D1300A12BE
:1014D8008A150E210A128A1500300A128A150B2263
:1014E8000A128A15F5000A128A15FA200A128A15B4
:1014F80075080800003083120313C5000130C400CA
:101508008630C300A030C2000A128A158E230A1240
:101518008A150A128A1564210A128A150A128A156E
:1015280019210A128A150A128A15DC200A128A154C
:101538000A128A15E2200A128A150A128A11F1255E
:101548000A128A158B170B170800F4000A128A155D
:10155800F1200A128A15A0300A128A150E210A12E1
:101568008A1574080A128A150E210A128A150A1297
:101578008A1503210A128A15A1300A128A150E212A
:101588000A128A1500300A128A150B220A128A15C5
:10159800F5000A128A15FA200A128A157508080039
:1015A8000530F800013083120313DC070318DD0A45
:1015B8000030DD070A305C065D04031DE42AE52AD5
:1015C800EB2ADC01DD010130A9000030AA000A3055
:1015D800F2005C080A128A159F210A128A157807F8
:1015E800F800B330F5000030F60078080A128A15C2
:1015F80000230A128A150800F7001C2B7608FF0042
:10160800750884000A128A1100260A128A15F30046
:1016180077080A128A15ED210A128A150130F50792
:101628000318F60A0030F6070130FF007F08F707B5
:10163800760883120313FF00750884000A128A11C2
:1016480000260A128A15003A031D2B2B2C2B022B7D
:101658000800F20178080A128A15C0230A128A15AE
:101668004B2BF201F20A7708FF00760884000A1271
:101678008A1100260A128A150A128A15C0230A122C
:101688008A150130F6070318F70A0030F7077708BC
:1016980083120313FF00760884000A128A110026B9
:1016A8000A128A15003A031D5A2B5B2B352B0800AA
:1016B800831203138C1C612B622B872B0130A30729
:1016C8000318A40A0030A407E230230604300319E3
:1016D8002406031D702B712B862B2F080319752BDD
:1016E800762B782B0130AF022F08031D7C2B7D2B26
:1016F800842B2E080319812B822B842B0130AE02F8
:10170800A301A4018C1071088A00700E8300FE0EDC
:101718007E0E09008312031394154208C60043087D
:10172800C7004408C8004508C90002300310C60DA8
:10173800C70DC80DC90DFF3E031D9A2B4908F500BA
:101748004808F4004708F3004608F2000130F900A1
:101758003130F8002D30F7000030F6000A128A11F7
:1017680089250A128A157208FF3E8316031393000F
:101778008312031394160800F5007218C42BC82BA3
:10178800831203130915CB2B831203130911750850
:10179800F03988008914A630F300F30BD12B000030
:1017A80083120313891075080F39F30003300310EF
:1017B800F30DFF3E031DDB2B0310730D8800891406
:1017C800A630F300F30BE62B0000831203138910F5
:1017D8001B30F4009E30F300F30BF02BF40BF02BCE
:1017E80000000800F5007508F600132C0130F3021C
:1017F8000030031CF403F402720884000130F2077D
:1018080083130008FF00760884000130F6077F087C
:1018180080000008031D112C122C132C222C730895
:101828007404031D182C192CFA2B222C760884001A
:10183800831380010130FF007F08F6070130F302AF
:101848000030031CF403F402730A031D2F2C740ADE
:10185800031D2F2C302C1A2C080083120313BD01F2
:10186800BE017608770403193A2C3B2C722CBC0174
:10187800BC0A492C01300310F60DF70DFF3E031D7D
:101888003F2C0130FF007F08BC07F71F4C2C4D2C64
:101898003E2C01300310BD0DBE0DFF3E031D4E2C26
:1018A80077087902031D5A2C76087802031C5D2CF0
:1018B8005E2C652C7608F8027708031CF903F902F8
:1018C8003D1401300310F70CF60CFF3E031D662C87
:1018D8000130BC02031D712C722C4D2C3E08F70000
:1018E8003D08F600080002300A128A1553220A122F
:1018F8008A1583120313A00001300A128A15532295
:101908000A128A1583120313A10000300A128A15DD
:1019180053220A128A1583120313A2002008F60024
:1019280004300310F60CFF3E031D952C760803398E
:10193800303EB10020080F39303EB2002108F600D1
:1019480004300310F60CFF3E031DA52C760807395A
:10195800303EB30021080F39303EB4002208F600AB
:1019680004300310F60CFF3E031DB52C760807392A
:10197800303EB50022080F39303EB600B7010800E6
:10198800F7000130F3020030031CF403F402730A79
:10199800031DD22C740A031DD22CD32CE42CF20183
:1019A800F301132D0130FF007F08F7070130FF0016
:1019B8007F08F2070130F3020030031CF403F4023D
:1019C80077088400831300080319EB2CEC2C052DF1
:1019D8007208840000080319F22CF32C052D7308F3
:1019E80074040319F82CF92C052D720884000008DA
:1019F800F50077088400000875060319042D052DE5
:101A0800D62C720884000008F500770884000008C6
:101A1800F60075087602F200F301031CF3030800D0
:101A28000A128A1577240A128A15C1308312031301
:101A3800BC0031080A128A158A210A128A15C23096
:101A480083120313BC0032080A128A158A210A126B
:101A58008A15C33083120313BC003A300A128A1560
:101A68008A210A128A15C43083120313BC00330872
:101A78000A128A158A210A128A15C530831203139D
:101A8800BC0034080A128A158A210A128A15C6303F
:101A980083120313BC003A300A128A158A210A12EB
:101AA8008A15C73083120313BC0035080A128A1539
:101AB8008A210A128A15C83083120313BC0036081B
:101AC8000A128A158A210A128A150800831203133A
:101AD800C1001430F6008030F7008230F8000A1296
:101AE8008A152D230A128A150A128A1514250A1234
:101AF8008A15831203134108F6000030F700CB3033
:101B0800F8000A128A152D230A128A15CE3083127C
:101B18000313BC000A30F2000030F3003E08BF0097
:101B2800C0013F08F4004008F5000A128A157D2616
:101B38000A128A157208303E0A128A158A210A1278
:101B48008A15CF3083120313BC000A30F20000302C
:101B5800F3003E08BF00C0013F08F4004008F5004C
:101B68000A128A15C1250A128A157208303E0A120D
:101B78008A158A210A128A150800F701F51FC52D52
:101B8800C62DCD2DF409F509F40A0319F50AF70154
:101B9800F70AF31FD02DD12DD62DF209F309F20A39
:101BA8000319F30A720873040319DB2DDC2D0B2EBD
:101BB800F601F60AEA2D01300310F20DF30DFF3E8F
:101BC800031DE02D0130FF007F08F607F31FED2D00
:101BD800EE2DDF2D73087502031DF42D72087402B3
:101BE800031CF72DF82DFE2D7208F4027308031C50
:101BF800F503F50201300310F30CF20CFF3E031D50
:101C0800FF2D0130F602031D0A2E0B2EEE2D77084C
:101C180003190F2E102E152EF409F509F40A0319CD
:101C2800F50A7508F3007408F2000800C330F700DD
:101C3800CD30F600F60B1E2EF70B1E2EF2013330B8
:101C48000A128A15C0230A128A151B30F7009E3023
:101C5800F600F60B2D2EF70B2D2E0000F201333077
:101C68000A128A15C0230A128A15A630F600F60B46
:101C78003B2E0000F20133300A128A15C0230A12E3
:101C88008A15462E472E0000F20102300A128A15E4
:101C9800C0230A128A15A630F600F60B512E000052
:101CA800F20128300A128A15C0230A128A15A630B2
:101CB800F600F60B5D2E0000F20101300A128A15BB
:101CC800C0230A128A150430F7003D30F600F60BDF
:101CD8006B2EF70B6B2E702EF2010C300A128A1540
:101CE800C0230A128A15A630F600F60B792E0000DA
:101CF8000800F701F31F812E822E892EF209F309BD
:101D0800F20A0319F30AF701F70AF51F8C2E8D2E34
:101D1800962EF409F509F40A0319F50A0130FF00B3
:101D28007F08F706F801F9017208730403199D2E5C
:101D38009E2ED52EF601F60AAC2E01300310F20DB8
:101D4800F30DFF3E031DA22E0130FF007F08F607AA
:101D5800F31FAF2EB02EA12E01300310F80DF90D90
:101D6800FF3E031DB12E73087502031DBD2E7208B8
:101D78007402031CC02EC12EC82E7208F402730808
:101D8800031CF503F502781401300310F30CF20C70
:101D9800FF3E031DC92E0130F602031DD42ED52E99
:101DA800B02E77080319D92EDA2EDF2EF809F90993
:101DB800F80A0319F90A7908F3007808F20008000C
:101DC800F2008312031306083F39F6007208031D58
:101DD800EE2EEF2EF12E7608682F3730760603198F
:101DE800F62EF72EFD2E2F307606031DFC2EFD2E27
:101DF800322F76087A06031D022F032F272F013072
:101E0800A5070318A60A0030A607003026021530D9
:101E180003192502031C112F122F462FA501A60115
:101E28003F30FA003730760603191B2F1C2F212F5D
:101E38005530F4000030F500252F4430F400003010
:101E4800F5007408682F3F307A06031D2C2F2D2FBC
:101E5800462F7608FA00A501A601462F37307A06E4
:101E68000319372F382F3E2F2F307A06031D3D2FA9
:101E78003E2F462F7A08F3003F30FA00A501A6014D
:101E88007308682F3F30760603194B2F4C2F5F2FAE
:101E98007B080319502F512F5F2F3730760603190F
:101EA800562F572F5F2F2F30760603195C2F5D2F83
:101EB8005F2FFB01EF2E3F307606031D642F652F41
:101EC800672FFB01FB0A3F30080083120313BF0092
:101ED80005303E06031D712F722F732FAD01373069
:101EE8003F06031D782F792F892F04302D02031800
:101EF8007E2F7F2F892F0130FF007F08AD070A1240
:101F08008A1541210A128A15972F2F303F06031D83
:101F18008E2F8F2F972F2D080319932F942F972FDC
:101F28000130AD02832F0430831203132D06031DE5
:101F38009E2F9F2FCE2F2D08533E84008313000819
:101F4800F6000030031D8030F7008230F8000A12D6
:101F58008A152D230A128A15831203132D08543E5D
:101F6800840083130008F6000030031D8030F7005A
:101F7800C230F8000A128A152D230A128A15C030B9
:101F880083120313BC002A300A128A158A210A1206
:101F98008A15FC2F2D08543E840083130008F60090
:101FA8000030031D8030F7008230F8000A128A15CD
:101FB8002D230A128A15831203132D08553E840017
:101FC80083130008F6000030031D8030F700C2308C
:101FD800F8000A128A152D230A128A1580308312F6
:101FE8000313BC002A300A128A158A210A128A159C
:081FF800831203132D080800F9
:02400E00FB3F76
:00000001FF
