:020000040000FA
:060000000A128A110C280F
:10000800FE00030EF0000A08F1000A168A111B2CE4
:100018000A128A110F288313D430FD001230FE0013
:100028002E30FF00BB3084000A168A11F5210A120F
:100038008A110A168A1155210A128A11ED000A1628
:100048008A1156210A128A11EE000A168A115721BE
:100058000A128A11FA000A168A1158210A128A11FC
:10006800FB00A0308400BB300A168A1166210A12F0
:100078008A114B3084006D300A168A1166210A12E3
:100088008A1183010A128A1149280A168A116823DB
:100098000A128A11103083120313C900831603133E
:1000A800510883120313C3008316031352088312E3
:1000B8000313C40083160313530883120313C500E4
:1000C800C60136308400BB30B2000408B3000C30DF
:1000D800B4003208840083130008B500B20A33085C
:1000E800840035088000B30AB40B6D28B030F500E1
:1000F8008830F60000300A168A11BF230A128A11C6
:1001080001300A128A15A9210A128A1183120313CF
:10011800CA00823083120313B300DD30B200B20B81
:100128009328B30B93280A30F6000030F7000A161C
:100138008A11CC210A128A117308F9007208F80092
:100148000A168A11EF240A128A11760883120313F9
:10015800C70064304702031CB228B328B5286330AF
:10016800C7003E304A06031DBA28BB28D028BA303B
:10017800F2008830F30043300A168A11A4220A12CA
:100188008A11831203134708A00043300A168A1104
:100198007D260A128A11142B3D304A06031DD528E4
:1001A800D628FD28063046020318DB28DC28FD285F
:1001B8004608B2003207363E840083130008F20076
:1001C800840A00088403F30043300A168A11A42223
:1001D8000A128A110130FF007F0883120313C60731
:1001E8004708A00043300A168A117D260A128A1190
:1001F800142B3B304A06031D0229032927294608E8
:1002080003190729082927290130C6024608B20020
:100218003207363E840083130008F200840A00087F
:100228008403F30043300A168A11A4220A128A11A1
:10023800831203134708A00043300A168A117D264B
:100248000A128A11142B37304A0603192C292D2932
:1002580033292F304A06031D322933295F291030EC
:100268004906031D382939295F291230C9000A16A1
:100278008A11BB210A128A111030F6008830F70063
:100288008030F8000A168A11EC230A128A11F2014A
:10029800C4300A168A117F240A128A11F2010F301B
:1002A8000A168A117F240A128A1103308312031353
:1002B800C8001215142B13304906031D642965293B
:1002C800E22944304A06031D6A296B29E229D1290B
:1002D8001430C9000630C800142B0A168A11BB2135
:1002E8000A128A11153083120313C9000930C80095
:1002F800142B0A168A11BB210A128A114830F600FB
:100308008730F7008030F8000A168A11EC230A12A9
:100318008A115930F6008730F700C030F8000A1605
:100328008A11EC230A128A110A128A15E3230A1287
:100338008A11333083120313B400BB30B300DF30AB
:10034800B200B20BA529B30BA529B40BA52913300C
:1003580083120313C9000530C800142B0A168A112A
:10036800BB210A128A11173083120313C9000A30FD
:10037800C800142B1830C9000A168A11BB210A12AA
:100388008A116A30F6008730F7008030F8000A16C4
:100398008A11EC230A128A1159294208003A0319D2
:1003A8006C29013A03197129033A03197D29013A85
:1003B8000319B229073A0319BE29142B1430490628
:1003C800031DE729E829F32944304A06031DED29CE
:1003D800EE29F3291330C9000530C800142B443026
:1003E8004A06031DF829F929072A18304906031D6A
:1003F800FE29FF29072A1330C9000A168A11BB21D2
:100408000A128A11142B13304906031D0C2A0D2ACF
:100418001F2A55304A06031D122A132A1F2A0A16B4
:100428008A11BB210A128A11103083120313C900E2
:10043800E801E80A142B142B4708A50043300A16D4
:100448008A11CD250A128A11302B0A168A11BB216E
:100458000A128A11103083120313C900F2010C30FA
:100468000A168A117F240A128A11831203131211A1
:10047800302B0A168A11BB210A128A11F2010C309C
:100488000A168A117F240A128A1183120313121181
:100498001330C9000530C80084284808A5004A0858
:1004A8000A128A1566260A128A11013A03193D2A88
:1004B800033A0319292A302B4808A5004A080A12CA
:1004C8008A152E220A128A1183120313C200302BB6
:1004D8004808A7004A080A128A111C260A128A111B
:1004E800302B0A128A11D9260A128A111330831264
:1004F8000313C9000A168A11BB210A128A11302B6C
:100508000A168A11BB210A128A114830F600873070
:10051800F7008030F8000A168A11EC230A128A11B3
:100528005930F6008730F700C030F8000A168A11F3
:10053800EC230A128A110A128A15E3230A128A1175
:10054800333083120313B400BB30B300DF30B20082
:10055800B20BAC2AB30BAC2AB40BAC2A13308312FF
:100568000313C9000530C800302B4808A5004A0805
:100578000A128A1138230A128A111F3083120313B0
:1005880025062604031DC92ACA2A302B1330C900A0
:100598000530C8000A168A11BB210A128A1184285C
:1005A8001A3083120313B4005E30B3006D30B2000A
:1005B800B20BDC2AB30BDC2AB40BDC2AE32A133097
:1005C80083120313C9000530C8007E2A0A168A114F
:1005D800BB210A128A11133083120313C900053094
:1005E800C800F2010C300A168A117F240A128A11F7
:1005F800392A4808A5004A080A128A15FF240A124F
:100608008A11831203132608003A03190C2B302B86
:100618002508023A0319EA2A1D3A0319D42A302B6D
:10062800831203134908103A0319202A023A0319BE
:10063800512A013A0319602A073A03196C2A013A28
:100648000319752A033A0319842A013A0319B92AA6
:100658000F3A0319FD2A302B043083120313C80004
:1006680084280A128A110C2883120313AA000A305C
:100678002506031D402B412BCE2B0A168A113A273B
:100688000A128A110F3083160313350583120313D8
:10069800A7008316031334080F3983120313A80025
:1006A800A9012808F2002908F3000A30F4000030F4
:1006B800F5000A168A11C7220A128A118312031337
:1006C80027087207CB000030031801307307CC00ED
:1006D8000F3083160313370583120313A7008316FD
:1006E800031336080F3983120313A800A901280839
:1006F800F2002908F3000A30F4000030F5000A1669
:100708008A11C7220A128A11831203132708720753
:10071800CD000030031801307307CE000F30831668
:100728000313390583120313A7008316031338082C
:100738000F3983120313A800A9012808F200290819
:10074800F3000A30F4000030F5000A168A11C722B7
:100758000A128A118312031327087207CF00003088
:10076800031801307307D000E130F6008730F70036
:100778008030F8000A168A11EC230A128A11023016
:1007880083120313DA000030DB00E201E101E0012B
:100798003F30AA0060080319D22BD32BEE2C2F3040
:1007A80083120313A5000030A6001B2E5A08A700C9
:1007B80027074B3E8400013083138007840A0318FF
:1007C800800AF92C0330F2000030F3005A08013E89
:1007D800F4005B080318013E003EF5000A168A1172
:1007E800B5240A128A11730883120313DB007208F6
:1007F800DA00F92C0A168A113A270A128A110A30E5
:10080800F2000030F300831203134C08F5004B0884
:10081800F4000A168A11B5240A128A117208831282
:100828000313A7007308A8000A30F6000030F70089
:100838004C08F9004B08F8000A168A11EF240A122E
:100848008A11760883120313A90003300310A90D37
:10085800FF3E031D2A2C0310290D2704AB00510865
:10086800C0392B04D1005108F30002300A168A114E
:1008780065220A128A110A30F2000030F30083124E
:1008880003134E08F5004D08F4000A168A11B52422
:100898000A128A11720883120313A7007308A800AA
:1008A8000A30F6000030F7004E08F9004D08F8004D
:1008B8000A168A11EF240A128A1176088312031382
:1008C800A90003300310A90DFF3E031D662C031079
:1008D800290D2704AB00520880392B04D200520896
:1008E800F30001300A168A1165220A128A110A30A9
:1008F800F2000030F300831203135008F5004F088C
:10090800F4000A168A11B5240A128A117208831291
:100918000313A7007308A8000A30F6000030F70098
:100928005008F9004F08F8000A168A11EF240A1235
:100938008A11760883120313A90003300310A90D46
:10094800FF3E031DA22C0310290D2704AB005308FA
:1009580080392B04D3005308F30000300A168A119B
:1009680065220A128A11F20101300A168A117F24BF
:100978000A128A114930F6008830F7008230F800F0
:100988000A168A11EC230A128A116330F60088309D
:10099800F700C230F8000A168A11EC230A128A11ED
:1009A80083120313E001E00A1A3083120313A9002B
:1009B8005E30A8006D30A700A70BE02CA80BE02C38
:1009C800A90BE02CE72C1F3083120313A50000307D
:1009D800A6001B2E2A082F3A0319E62B183A0319EA
:1009E800DA2B733A0319FE2BF92C00304C0218301D
:1009F80003194B02031C012D022D042DCB01CC0140
:100A080000304E023C3003194D02031C0C2D0D2DF5
:100A18000F2DCD01CE01003050023C3003194F029A
:100A2800031C172D182D1A2DCF01D0010130FF00FE
:100A38007F08E20702306206031D232D242D762D40
:100A4800E20161080319292D2B2D01302C2D0030CE
:100A5800E10061080319312D322D762D662D3330D2
:100A6800F6008730F700C030F8000A168A11EC2328
:100A78000A128A11053083120313A9000F30A80047
:100A8800F030A700A70B462DA80B462DA90B462D25
:100A98000000762D3330F6008730F700C330F800B9
:100AA8000A168A11EC230A128A113E2D3330F600F9
:100AB8008730F700C630F8000A168A11EC230A12AC
:100AC8008A113E2D5B08003A03196B2D762D5A08C2
:100AD800003A0319332D013A03194E2D033A03192D
:100AE8005A2D762DC03083120313A3000A30F60066
:100AF8000030F7004C08F9004B08F8000A168A1174
:100B0800EF240A128A117608303E0A168A11042246
:100B18000A128A11C13083120313A3000A30F200AB
:100B28000030F3004C08F5004B08F4000A168A114F
:100B3800B5240A128A117208303E0A168A11042254
:100B48000A128A11C23083120313A3003A300A161C
:100B58008A1104220A128A11C33083120313A300D4
:100B68000A30F6000030F7004E08F9004D08F8008A
:100B78000A168A11EF240A128A117608303E0A16DC
:100B88008A1104220A128A11C43083120313A300A3
:100B98000A30F2000030F3004E08F5004D08F4006A
:100BA8000A168A11B5240A128A117208303E0A16EA
:100BB8008A1104220A128A11C53083120313A30072
:100BC8003A300A168A1104220A128A11C630831290
:100BD8000313A3000A30F6000030F7005008F900AC
:100BE8004F08F8000A168A11EF240A128A117608AB
:100BF800303E0A168A1104220A128A11C73083125B
:100C08000313A3000A30F2000030F3005008F50087
:100C18004F08F4000A168A11B5240A128A117208BC
:100C2800303E0A168A1104220A128A11D32B0800B0
:100C380083120313AB008C30F6008730F700803046
:100C4800F8000A168A11EC230A128A117A0A031D7F
:100C5800312E7B0A031D312E322E3E2ED030F60067
:100C68008730F700C030F8000A168A11EC230A1200
:100C78008A11D82E0630831203132706031D452E2A
:100C8800462E602EDC01DD010030A500A6000A1208
:100C98008A15CD220A128A11273083120313AA005B
:100CA8000D30A9002530A800A80B582EA90B582EE6
:100CB800AA0B582E5F2ED82E37302B06031D652E13
:100CC800662E9F2E5E085F0403196B2E6C2E7E2EF7
:100CD8000130DC070318DD0A0030DD070A305C0646
:100CE8005D04031D782E792E932E83120313DC01E5
:100CF800DD01932E0130DC070318DD0A0030DD0723
:100D08007B08803AA8005D08803A2802031D8E2ED1
:100D18005C087A020318912E922E932E792E831254
:100D280003135D08A6005C08A5000A128A15CD22E7
:100D38000A128A11D82E2F302B06031DA42EA52E99
:100D4800D82E5E085F040319AA2EAB2EBE2EFF30E4
:100D5800DC070318DD0AFF30DD075C0A031DB82E27
:100D68005D0A031DB82EB92E932E0930DC00003021
:100D7800DD00932E06302706031DC32EC42EC92E70
:100D88007B08DD007A08DC00932EFF30DC070318AF
:100D9800DD0AFF30DD075C0A031DD62E5D0A031D40
:100DA800D62ED72E932EC42E0800FF30FA00FF301F
:100DB800FB0083120313DE01DF017B30F60087306E
:100DC800F7008030F8000A168A11EC230A128A11FB
:100DD800333083120313A200BB30A100DF30A00020
:100DE800A00BF42EA10BF42EA20BF42E0A168A11D6
:100DF800BB210A128A1108002334203420342034FD
:100E080020342034543469346D346534203420342B
:100E180020342034203420342034203445347634AF
:100E280065346E3474342034203420342034203433
:100E380020342034533470346534653464340034D9
:100E480020342034203420342034203420342034FA
:100E580020342034203420342034203420342034EA
:100E6800203400344E346F3420346C346F3467349B
:100E78007334203461347634613469346C346134C9
:100E880062346C3465340034203420342034203407
:100E9800203420344F34703465346E342034203498
:100EA80020342034203420340034203420342034BA
:100EB80020342034433475347434653463346F34E7
:100EC8006D342034203420342034003445346E34DA
:100ED80074346534723420346E3465347734203495
:100EE8007034773464343A34203420340034203475
:100EF80020346C346F3467347334203463346C3486
:100F080065346134723465346434203420340034F8
:100F180023342034543449344D3445342034203477
:100F28002034203420344534203420345334503491
:100F38000034503461347334733477346F3472341A
:100F4800643420346334683461346E34673465340F
:100F580064340034523465342D3465346E3474345A
:100F68006534723420346E34653477342034703408
:100F780077346434003450346134733473347734E0
:100F88006F34723464342034203463346834613408
:100F98006E346734653400344E346F3420346C3426
:100FA8006F346734733420346134763461346C348C
:100FB800613462346C3465340034543469346D34CB
:100FC800653420342834483448343A344D344D3468
:100FD8003A34533453342934003459346F34753423
:100FE8002034613472346534203462346C346F34A4
:100FF80063346B34653464340034573472346F347A
:101008006E34673420347034613473347334773415
:1010180072346F346434003445346E347434653457
:1010280072342034503461347334733477346F3409
:101038007234643400344C344F34473449344E34B9
:1010480020345334553443344334453453345334BF
:1010580000344334683461346E3467346534203482
:1010680070346134733473347734643400346134E5
:101078007434743465346D34703474347334203497
:101088006C346534663474340034543469346D34E3
:10109800653420346334683461346E3467346534BD
:1010A8006434003444346F3477346E346C346F34C1
:1010B8006134643420346C346F346734003453340E
:1010C8007534633463346534733473346634753417
:1010D8006C346C3479340034733475346334633469
:1010E800653473347334663475346C346C347934E1
:1010F800003443346C3465346134723420346C34D5
:101108006F346734003453346534743420347434A1
:1011180069346D3465340034563469346534773451
:1011280020346C346F346734003477346134693474
:101138007434203466346F34723400344C346F3471
:101148006734733420343A34003466346134693493
:101158006C346534643400343134313431343134EE
:1011680000347334653463347334003443342034C6
:10117800003447343134003447343234003447348F
:101188003334003447343434003447344E34003474
:101198004734523400348316031388010911891027
:1011A8000A168A119D270A128A150800F701F31FEB
:1011B800DE28DF28E628F209F309F20A0319F30A00
:1011C800F701F70AF51FE928EA28F328F409F509D1
:1011D800F40A0319F50A0130FF007F08F706F80141
:1011E800F901720873040319FA28FB283229F60159
:1011F800F60A092901300310F20DF30DFF3E031D15
:10120800FF280130FF007F08F607F31F0C290D297E
:10121800FE2801300310F80DF90DFF3E031D0E29BD
:1012280073087502031D1A2972087402031C1D290C
:101238001E2925297208F4027308031CF503F50218
:10124800781401300310F30CF20CFF3E031D26291D
:101258000130F602031D312932290D2977080319B7
:10126800362937293C29F809F909F80A0319F90A2E
:101278007908F3007808F20008000030831203139D
:10128800A4000030A3000030A2000030A1007508BF
:10129800740473047204031952295329A029A5015F
:1012A800A50A63290130A0000310F20DF30DF40D17
:1012B800F50DA00B58290130FF007F08A507F51F81
:1012C8006629672956290130A0000310A10DA20D37
:1012D800A30DA40DA00B692975087902031D7E29A9
:1012E80074087802031D7E2973087702031D7E297E
:1012F80072087602031C8129822991297208F60254
:101308007308031C730FF7027408031C740FF802A8
:101318007508031C750FF902211401300310F50C30
:10132800F40CF30CF20CFF3E031D92290130A502C8
:10133800031D9F29A02967292408F5002308F40024
:101348002208F3002108F2000800F20083120313B8
:1013580006083F39F6007208031DB329B429B629D7
:1013680076082D2A373076060319BB29BC29C229ED
:101378002F307606031DC129C229F72976086D0684
:10138800031DC729C829EC290130D6070318D70A35
:101398000030D70700305702153003195602031CD6
:1013A800D629D7290B2AD601D7013F30ED0037308F
:1013B80076060319E029E129E6295530F3000030C3
:1013C800F400EA294430F3000030F40073082D2AB1
:1013D8003F306D06031DF129F2290B2A7608ED002E
:1013E800D601D7010B2A37306D060319FC29FD29D0
:1013F800032A2F306D06031D022A032A0B2A6D08C3
:10140800F5003F30ED00D601D70175082D2A3F3091
:1014180076060319102A112A242A6E080319152A98
:10142800162A242A3730760603191B2A1C2A242A4E
:101438002F3076060319212A222A242AEE01B429FC
:101448003F307606031D292A2A2A2C2AEE01EE0AA5
:101458003F30080083120313A80005302506031D3A
:10146800362A372A382AE50137302806031D3D2A4F
:101478003E2A4E2A043065020318432A442A4E2A7B
:101488000130FF007F08E5070A168A11BB210A12FE
:101498008A155C2A2F302806031D532A542A5C2AF1
:1014A80065080319582A592A5C2A0130E502482A96
:1014B8000430831203136506031D632A642A972ADE
:1014C8006508A6002607C53E840083130008F600B9
:1014D800840A00088403F7008230F8000A168A118B
:1014E800EC230A128A15831203136508A60026073F
:1014F800C73E840083130008F600840A00088403AA
:10150800F700C230F8000A168A11EC230A128A156D
:10151800C03083120313A3002A300A168A1104224A
:101528000A128A15C92A6508A6002607C73E84003C
:1015380083130008F600840A00088403F700823049
:10154800F8000A168A11EC230A128A15831203136B
:101558006508A6002607C93E840083130008F60024
:10156800840A00088403F700C230F8000A168A11BA
:10157800EC230A128A15803083120313A3002A3041
:101588000A168A1104220A128A158312031365089F
:1015980008000A168A11BB210A128A158C30F60037
:1015A8008730F7008030F8000A168A11EC230A12F7
:1015B8008A15C03083120313A3002508303E0A168B
:1015C8008A1104220A128A15C23083120313A30057
:1015D8000A30F20025080A168A1119220A128A15F9
:1015E800053E0A168A113D230A128A150A168A111F
:1015F80004220A128A15C33083120313A3000A3087
:10160800F20025080A168A1119220A128A15063EBE
:101618000A168A113D230A128A150A168A1104220B
:101628000A128A15C43083120313A3003A300A162B
:101638008A1104220A128A15C53083120313A300E3
:101648000A30F20025080A168A1119220A128A1588
:10165800073E0A168A113D230A128A150A168A11AC
:1016680004220A128A15C63083120313A3000A3013
:10167800F20025080A168A1119220A128A15083E4C
:101688000A168A113D230A128A150A168A1104229B
:101698000A128A15C73083120313A3003A300A16B8
:1016A8008A1104220A128A15C83083120313A30070
:1016B8000A30F20025080A168A1119220A128A1518
:1016C800093E0A168A113D230A128A150A168A113A
:1016D80004220A128A15C93083120313A3000A30A0
:1016E800F20025080A168A1119220A128A150A3EDA
:1016F8000A168A113D230A128A150A168A1104222B
:101708000A128A15CB3083120313A3000A30F200A1
:1017180025080A168A1119220A128A150B3E0A167A
:101728008A113D230A128A150A168A1104220A12FE
:101738008A15CC3083120313A3000A30F20025085F
:101748000A168A1119220A128A150C3E0A168A11DB
:101758003D230A128A150A168A1104220A128A15CA
:10176800CE3083120313A3000A30F20025080A16AC
:101778008A1119220A128A150D3E0A168A113D236A
:101788000A128A150A168A1104220A128A15CF30FB
:1017980083120313A3000A30F20025080A168A11DF
:1017A80019220A128A150E3E0A168A113D230A12B8
:1017B8008A150A168A1104220A128A150800FF30AF
:1017C80083120313AE00FF30AF00AA017A0A031D8B
:1017D800F12B7B0A031DF12BF22BFC2B3630F30087
:1017E8008730F4000A168A11EC220A128A15FE2C98
:1017F800A230F3008830F4000A168A11EC220A128B
:101808008A150A300A168A1196210A128A1500309A
:10181800F3008730F4000A168A11EC220A128A159E
:101828000A300A168A1196210A128A150D300A16EC
:101838008A1196210A128A15EE2C831203132E0898
:10184800013EAC002F080318013E003EAD000130F8
:10185800AE070318AF0A0030AF07B001B1010A3074
:10186800F200831203132C080A168A1119220A128D
:101878008A15831203133007053EAB003008203E5B
:1018880084002B080A168A113D230A128A1583132D
:101898008000013083120313B0070318B10A003027
:1018A800B1073108803AFF0080307F02031D5E2CAB
:1018B8000A303002031C612C622C332C8312031370
:1018C8002E08303E0A168A1196210A128A153230DD
:1018D800F3008730F4000A168A11EC220A128A15DE
:1018E8008312031320080A168A1196210A128A15F0
:1018F8008312031321080A168A1196210A128A15DF
:101908003A300A168A1196210A128A15831203138D
:1019180022080A168A1196210A128A1583120313BD
:1019280023080A168A1196210A128A153A300A16CD
:101938008A1196210A128A158312031324080A169B
:101948008A1196210A128A158312031325080A168A
:101958008A1196210A128A152F30F3008730F40075
:101968000A168A11EC220A128A1583120313260812
:101978000A168A1196210A128A1583120313270858
:101988000A168A1196210A128A152930F30087301F
:10199800F4000A168A11EC220A128A15831203131C
:1019A80028080A168A1196210A128A158312031327
:1019B80029080A168A1196210A128A150A300A1667
:1019C8008A1196210A128A150D300A168A11962153
:1019D8000A128A15831203132F08803AF6007B082F
:1019E800803A7602031DFA2C7A082E02031CFD2C7D
:1019F800FE2C212C080083120313AA0003302506AD
:101A0800031D072D082D502D2D30F2008730F300CF
:101A18000830F4000030F500AB300A168A1135257D
:101A28000A128A1583120313D801D9010530E6007A
:101A3800273083120313A9000D30A8002530A70012
:101A4800A70B242DA80B242DA90B242D2B2D0A160A
:101A58008A11BB210A128A156A30F6008730F7000E
:101A68008030F8000A168A11EC230A128A15F2014E
:101A7800C0300A168A117F240A128A15F2010F3023
:101A88000A168A117F240A128A152F30831203132B
:101A9800A5000030A600652E6608031D542D552D9F
:101AA8005A2D0230A5000030A600652E04305806D5
:101AB8005904031D602D612D8C2DF2010C300A167E
:101AC8008A117F240A128A152430F6008730F7001D
:101AD800C030F8000A168A11EC230A128A15AE30B3
:101AE800F6008730F7008030F8000A168A11EC23D8
:101AF8000A128A15F201C0300A168A117F240A12C6
:101B08008A15F2010F300A168A117F240A128A15E3
:101B1800831203135908803AFF0080307F02031DA7
:101B2800972D0830580203189A2D9B2DEA2DC82DA1
:101B38005808AB3E840031308313800058080339BD
:101B4800C03EA3002A300A168A1104220A128A15F6
:101B5800013083120313D8070318D90A0030D907B4
:101B68000530E600D22D5808AB3E84003030831390
:101B7800800058080339C03EA3002A300A168A118B
:101B880004220A128A15AC2D831203132A082F3A4D
:101B98000319B72D183A03199C2DD22D5908803AEC
:101BA800FF0080307F02031DDB2D08305802031828
:101BB800DE2DDF2DEA2DF2018312031358080339B5
:101BC800C03E0A168A117F240A128A150830831229
:101BD800031358065904031DF22DF32D492DF20164
:101BE8000C300A168A117F240A128A15AF30F200C7
:101BF8000430F3000030F400AB300A168A117D255A
:101C08000A128A1572087304031D0B2E0C2E492E16
:101C180083160313B301AF30F5000030F60000302F
:101C28000A168A11BF230A128A150A168A11BB21BD
:101C38000A128A159D30F6008730F7008030F800C8
:101C48000A168A11EC230A128A157030F6008830B9
:101C5800F700C230F8000A168A11EC230A128A1516
:101C6800333083120313A900BB30A800DF30A7006C
:101C7800A70B3C2EA80B3C2EA90B3C2E1F30831221
:101C88000313A5000030A600652E0A168A11BB2191
:101C98000A128A15BF30F6008730F7008030F80046
:101CA8000A168A11EC230A128A15A930F600883020
:101CB800F700C530F8000A168A11EC230A128A15B3
:101CC800342E080083120313AD006803031D6D2E24
:101CD8006E2E742EE6010A168A11BB210A128A1585
:101CE8000330831203132506031D7B2E7C2E872EBB
:101CF800E401E901EA01EB01EC013F30AD000330FA
:101D0800E3000530E6006608031D8B2E8C2E8F2E0F
:101D1800E8010230FF2F37302D06031D942E952E33
:101D2800B32E0430640203189A2E9B2EB32E640837
:101D3800693E84003130831380006408C43EA300E8
:101D48002A300A168A1104220A128A150130FF0065
:101D58007F0883120313E4070530E600CF2E2F30E7
:101D68002D06031DB82EB92ECF2E04306402031899
:101D7800BE2EBF2ECF2E6408693E840030308313F8
:101D880080006408C43EA3002A300A168A1104227F
:101D98000A128A15AA2E04306406031DD42ED52EE5
:101DA800FF2FF2010C300A168A117F240A128A15B5
:101DB80083120313AE01AF01831203132E08293EC9
:101DC80084002E080A168A113D230A128A158313E5
:101DD8008000013083120313AE070318AF0A0030E6
:101DE800AF072F08803AFF0080307F02031DFE2EC8
:101DF80004302E02031C012F022FE02E2930F2009E
:101E08000430F3000030F40069300A168A117D2589
:101E18000A128A1572087304031D132F142F342F06
:101E28000A168A11BB210A128A151F30F60088305B
:101E3800F7008230F8000A168A11EC230A128A1574
:101E4800333083120313A800BB30A700DF30A6008D
:101E5800A60B2C2FA70B2C2FA80B2C2F0130FF2FF4
:101E6800013083120313E3020A168A11BB210A12F6
:101E78008A158312031363080319432F442F742F01
:101E88000130F6008830F7008030F8000A168A1111
:101E9800EC230A128A15C03083120313A3006308C7
:101EA800303E0A168A1104220A128A153B30F600BF
:101EB8008830F700C230F8000A168A11EC230A129B
:101EC8008A154D3083120313A8001930A7004F302C
:101ED800A600A60B6D2FA70B6D2FA80B6D2FDC2F5F
:101EE8006308031D782F792FDC2FF130F600873037
:101EF800F7008030F8000A168A11EC230A128A15B6
:101F08009930F6008830F700C030F8000A168A11B8
:101F1800EC230A128A15B530F6008830F700CC3069
:101F2800F8000A168A11EC230A128A153C3083122B
:101F38000313E700D32FC930A3000A30F2000030A2
:101F4800F3006708A600A7012608F4002708F50093
:101F58000A128A15DA200A128A157208303E0A1601
:101F68008A1104220A128A15CA3083120313A300A5
:101F78000A30F2000030F3006708A600A70126081F
:101F8800F4002708F5000A168A1124260A128A1571
:101F98007208303E0A168A1104220A128A15831220
:101FA80003136708031DD92FDA2F9F2F0330E3008F
:101FB8000A168A11BB210A128A151030F6008830D9
:101FC800F7008030F8000A168A11EC230A128A15E5
:101FD800F201C4300A168A117F240A128A15F20106
:101FE8000F300A168A117F240A128A1583120313E6
:101FF800E4010530E6000800FF1B0A2883137F1858
:1020080083170008840A0319FF0A08007F087F392C
:0C2018008A000408840A0319FF0A8200F1
:1022AA003F340134FF34FF348316031306083F38E2
:1022BA0086000800831603139F17831203131F1443
:1022CA00080064008001840A040603190034040625
:1022DA0067290A168A11A1210A168A11831603137D
:1022EA00111408000A168A11A1210A168A118316E6
:1022FA00031311150800F2000A168A11A1210A1601
:10230A008A11720883120313930008000A168A11AD
:10231A0077210A168A110A168A116E210A168A115B
:10232A000800F20072088312031399000C1E9E29FA
:10233A009F299B290C120800831603131419A62936
:10234A00A729A12911081F39031DAC29AD29A129E3
:10235A0008008312031312149214FA30831603131B
:10236A0092008C148312031312110800F201013037
:10237A000A168A117F240A168A110430F7003D30A2
:10238A00F600F60BC629F70BC629CB2908008312DB
:10239A0003131F151F19D229D329CF291E08F500A7
:1023AA00831603131E08F4007508F3007408F2007C
:1023BA00080000300A168A1112230A168A11F6003A
:1023CA0076087F39F6007608F30000300A168A117B
:1023DA0065220A168A1108007E088A007F08820090
:1023EA000A168A11F1210A168A118000840A040841
:1023FA007D0603190034FF0A0319FE0AF529831220
:10240A000313A400F20123080A168A117F240A166C
:10241A008A11F201F20A8312031324080A168A1196
:10242A007F240A168A110800F400F301741C1E2A7C
:10243A001F2A232A7208FF007F08F3070310F20DF0
:10244A000310F40C7408031D2B2A2C2A1B2A730868
:10245A000800C9348834CC348834BD348834C03454
:10246A008834C3348834C6348834903488347D340C
:10247A00883456348834873488342D3488344F3439
:10248A004E340034F4000A168A116E210A168A1193
:10249A00A0300A168A1180210A168A1174080A16AF
:1024AA008A1180210A168A1173080A168A11802154
:1024BA000A168A110A168A1177210A168A11080041
:1024CA00F4000A168A116E210A168A11D0300A16E9
:1024DA008A1180210A168A1174080A168A11802123
:1024EA000A168A1173080A168A1180210A168A1195
:1024FA000A168A1177210A168A110800F2000A16AA
:10250A008A11A1210A168A118316031391150A1634
:10251A008A11A1210A168A11831203131308F300E0
:10252A007203031D992A9A2A9E2A83160313911667
:10253A00A12A831603139112111673080800F700D3
:10254A007708F6007308F5007208F400F20A031916
:10255A00F30A750883120313FF00740884000A162D
:10256A008A1100200A168A11FF00760884000130B9
:10257A00F6077F08831380000008031DC52AC62AB0
:10258A00A72A0800F601F701721CCC2ACD2AD32A01
:10259A007408F6070318F70A7508F70701300310DD
:1025AA00F40DF50DFF3E031DD42A01300310F30C80
:1025BA00F20CFF3E031DDB2A72087304031DE62A90
:1025CA00E72AC92A7708F3007608F2000800012BE7
:1025DA007408FF00730884000A168A1100200A167C
:1025EA008A110A168A1196210A168A110130F307EE
:1025FA000318F40A0030F407740883120313FF0067
:10260A00730884000A168A1100200A168A11003AF1
:10261A00031D102B112BED2A0800F4000A168A114B
:10262A006E210A168A11D0300A168A1180210A16DA
:10263A008A1174080A168A1180210A168A110A1642
:10264A008A118B210A168A11D1300A168A11802121
:10265A000A168A1100300A168A1183220A168A116A
:10266A00F5000A168A1177210A168A1175080800D8
:10267A00F4000A168A116E210A168A11A0300A1667
:10268A008A1180210A168A1174080A168A11802171
:10269A000A168A110A168A118B210A168A11A13082
:1026AA000A168A1180210A168A1100300A168A111E
:1026BA0083220A168A11F5000A168A1177210A1648
:1026CA008A1175080800003083120313A90001302B
:1026DA00A8008630A700A030A6000A168A114D2449
:1026EA000A168A110A168A11DE210A168A110A1294
:1026FA008A15CF200A168A110A168A1159210A1632
:10270A008A110A168A115F210A168A110A168A1173
:10271A00AE210A168A118B170B1708000530F8002C
:10272A000130FA070318FB0A0030FB070A307A0661
:10273A007B04031DA12BA22BAA2BFA01FB0101305A
:10274A0083120313DE000030DF000A30F2007A0839
:10275A000A168A1119220A168A117807F800A03077
:10276A00F5000030F60078080A168A11BF230A1607
:10277A008A110800F700DB2B7608FF007508840031
:10278A000A168A1100200A168A11F30077080A1617
:10279A008A1147220A168A110130F5070318F60A28
:1027AA000030F6070130FF007F08F707760883122A
:1027BA000313FF00750884000A168A1100200A16FE
:1027CA008A11003A031DEA2BEB2BC12B0800F201F8
:1027DA0078080A168A117F240A168A110A2CF2012D
:1027EA00F20A7708FF00760884000A168A11002088
:1027FA000A168A110A168A117F240A168A110130CA
:10280A00F6070318F70A0030F7077708831203134D
:10281A00FF00760884000A168A1100200A168A1117
:10282A00003A031D192C1A2CF42B080083120313E7
:10283A008C1C202C212C462C0130D4070318D50AD5
:10284A000030D507E2305406043003195506031D3B
:10285A002F2C302C452C67080319342C352C372C97
:10286A000130E7026708031D3B2C3C2C432C660809
:10287A000319402C412C432C0130E602D401D50126
:10288A008C1071088A00700E8300FE0E7E0E0900FD
:10289A008312031394152608AA002708AB002808F8
:1028AA00AC002908AD0002300310AA0DAB0DAC0D27
:1028BA00AD0DFF3E031D592C2D08F5002C08F40020
:1028CA002B08F3002A08F2000130F9003130F80031
:1028DA002D30F7000030F6000A128A1541210A1637
:1028EA008A117208FF3E831603139300831203139F
:1028FA0094160800F5007218832C872C8312031390
:10290A0009158A2C8312031309117508F0398800F6
:10291A008914A630F300F30B902C000083120313E2
:10292A00891075080F39F30003300310F30DFF3EC9
:10293A00031D9A2C0310730D88008914A630F30026
:10294A00F30BA52C00008312031389101B30F4002B
:10295A009E30F300F30BAF2CF40BAF2C00000800F1
:10296A00720873040319BA2CBB2CEA2CF601F60A76
:10297A00C92C01300310F20DF30DFF3E031DBF2CCD
:10298A000130FF007F08F607F31FCC2CCD2CBE2C9C
:10299A0073087502031DD32C72087402031CD62C0B
:1029AA00D72CDD2C7208F4027308031CF503F50218
:1029BA0001300310F30CF20CFF3E031DDE2C013034
:1029CA00F602031DE92CEA2CCD2C7508F3007408D5
:1029DA00F200080083120313A001A101760877040C
:1029EA000319F82CF92C302DA201A20A072D013067
:1029FA000310F60DF70DFF3E031DFD2C0130FF00FD
:102A0A007F08A207F71F0A2D0B2DFC2C013003109B
:102A1A00A00DA10DFF3E031D0C2D77087902031DA1
:102A2A00182D76087802031C1B2D1C2D232D7608E1
:102A3A00F8027708031CF903F90220140130031085
:102A4A00F70CF60CFF3E031D242D0130A202031DD4
:102A5A002F2D302D0B2D2108F7002008F600080035
:102A6A00F8007808F9005F2D0130F4020030031CE9
:102A7A00F503F5027308F7007208F600F20A031963
:102A8A00F30A770883120313FF00760884000A16F4
:102A9A008A1100200A168A11FF0079088400013081
:102AAA00F9077F08831380000008031D5D2D5E2D42
:102ABA005F2D6E2D74087504031D642D652D392D47
:102ACA006E2D79088400831380010130FF007F088E
:102ADA00F9070130F4020030031CF503F502740A09
:102AEA00031D7B2D750A031D7B2D7C2D662D080089
:102AFA00F7000130F3020030031CF403F402730AF6
:102B0A00031D8B2D740A031D8B2D8C2D9D2DF20117
:102B1A00F301CC2D0130FF007F08F7070130FF00D9
:102B2A007F08F2070130F3020030031CF403F402B9
:102B3A0077088400831300080319A42DA52DBE2D40
:102B4A007208840000080319AB2DAC2DBE2D730842
:102B5A0074040319B12DB22DBE2D72088400000829
:102B6A00F50077088400000875060319BD2DBE2DEF
:102B7A008F2D720884000008F50077088400000889
:102B8A00F60075087602F200F301031CF30308004D
:102B9A0083120313A8008E30F6008730F7008230C4
:102BAA00F8000A168A11EC230A168A110A168A11E3
:102BBA00D8260A168A11831203132808F600003051
:102BCA00F700CB30F8000A168A11EC230A168A118C
:102BDA00CE3083120313A3000A30F2000030F30050
:102BEA002508A600A7012608F4002708F5000A12FE
:102BFA008A15DA200A168A117208303E0A168A11D4
:102C0A0004220A168A11CF3083120313A3000A3052
:102C1A00F2000030F3002508A600A7012608F400F8
:102C2A002708F5000A168A1124260A168A1172083C
:102C3A00303E0A168A1104220A168A110800F70180
:102C4A00F51F282E292E302EF409F509F40A031946
:102C5A00F50AF701F70AF31F332E342E392EF2093B
:102C6A00F309F20A0319F30A7208730403193E2ED0
:102C7A003F2E6E2EF601F60A4D2E01300310F20D8C
:102C8A00F30DFF3E031D432E0130FF007F08F607B8
:102C9A00F31F502E512E422E73087502031D572E14
:102CAA0072087402031C5A2E5B2E612E7208F402FB
:102CBA007308031CF503F50201300310F30CF20C40
:102CCA00FF3E031D622E0130F602031D6D2E6E2E8D
:102CDA00512E77080319722E732E782EF409F509EE
:102CEA00F40A0319F50A7508F3007408F2000800DB
:102CFA0083120313A3000A168A113A270A168A11A5
:102D0A00B430F2000030F3000630F4000030F50071
:102D1A00A0300A168A1135250A168A11831203135E
:102D2A002308F2000030F3000230F4000030F5000E
:102D3A00A6300A168A1135250A168A110A30F200B7
:102D4A000030F300831203132008A100A201210816
:102D5A00F4002208F5000A128A15DA200A168A11E6
:102D6A007208303E83160313A8000A30F2000030BE
:102D7A00F300831203132008A100A2012108F40022
:102D8A002208F5000A168A1124260A168A117208E0
:102D9A00303E83160313A900AA010A168A11932347
:102DAA000A168A1108000A168A113A270A168A117F
:102DBA00C13083120313A3008316031334080A16BF
:102DCA008A1104220A168A11C23083120313A3003D
:102DDA008316031335080A168A1104220A168A1161
:102DEA00C33083120313A3003A300A168A1104224D
:102DFA000A168A11C43083120313A300831603131D
:102E0A0036080A168A1104220A168A11C530831254
:102E1A000313A3008316031337080A168A11042220
:102E2A000A168A11C63083120313A3003A300A160F
:102E3A008A1104220A168A11C73083120313A300C7
:102E4A008316031338080A168A1104220A168A11ED
:102E5A00C83083120313A3008316031339080A1612
:102E6A008A1104220A168A11080002300A168A11E7
:102E7A0012230A168A1183120313D10001300A168B
:102E8A008A1112230A168A1183120313D200003000
:102E9A000A168A1112230A168A1183120313D300FF
:102EAA005108F60004300310F60CFF3E031D582F9C
:102EBA0076080339303E83160313B40083120313D2
:102ECA0051080F39303E83160313B50083120313DA
:102EDA005208F60004300310F60CFF3E031D702F53
:102EEA0076080739303E83160313B600831203139C
:102EFA0052080F39303E83160313B70083120313A7
:102F0A005308F60004300310F60CFF3E031D882F09
:102F1A0076080739303E83160313B8008312031369
:102F2A0053080F39303E83160313B900BA0108005B
:102F3A00C330F700CD30F600F60BA12FF70BA12F07
:102F4A00F20133300A168A117F240A168A111B30BD
:102F5A00F7009E30F600F60BB02FF70BB02F0000EB
:102F6A00F20133300A168A117F240A168A11A63012
:102F7A00F600F60BBE2F0000F20133300A168A1152
:102F8A007F240A168A11C92FCA2F0000F2010230C3
:102F9A000A168A117F240A168A11A630F600F60B41
:102FAA00D42F0000F20128300A168A117F240A164B
:102FBA008A11A630F600F60BE02F0000F20101306C
:102FCA000A168A117F240A168A110430F7003D3046
:102FDA00F600F60BEE2FF70BEE2FF32FF2010C3063
:102FEA000A168A117F240A168A11A630F600F60BF1
:062FFA00FC2F000008009E
:02400E00FB3F76
:00000001FF
