:020000040000FA
:060000000A128A110C280F
:10000800FE00030EF0000A08F1000A128A15042CFB
:100018000A128A110F2883137030FD000A30FE007F
:100028000030FF00603084000A128A154A220A1242
:100038008A110A128A11FE240A128A11FA000A1277
:100048008A11FF240A128A11FB00A0308400AB3009
:100058000A128A15AB210A128A11453084006030D1
:100068000A128A15AB210A128A1183010A128A110F
:100078003D280A128A1526230A128A111030831283
:100088000313C2006B08B9006C08BA006D08BB0006
:10009800C10132308400600883138000840A61083B
:1000A8008000840A62088000840A63088000840A49
:1000B80064088000840A650880000030BF000030B2
:1000C800BE000030BD000030BC00AD30F50080300F
:1000D800F60000300A128A15A8230A128A11013084
:1000E8000A128A112F270A128A1183120313C400D5
:1000F800823083120313AF00DD30AE00AE0B8228CE
:10010800AF0B8228373083120313440603198D2856
:100118008E2894282F304406031D93289428FA2803
:100128003F304406031999289A28CB283F08B10084
:100138003E08B0003D08AF003C08AE000130BC07E7
:100148000030BD070318BE0ABE070318BF0ABF0761
:100158003108031DBD283008031DBD282F08031DC5
:10016800BD28C9302E02031DB928031CBC28BD2890
:1001780002293730831203134406031DC428C528F7
:10018800C8284430C40002295530C40002293F0859
:10019800031DDB283E08031DDB283D08031DDB2863
:1001A800C8303C02031DD8280318DB28DC280229A4
:1001B800831203133F083E043D043C040319E52859
:1001C800E62802290030BF000030BE000030BD0024
:1001D8000030BC0037304406031DF328F428F72804
:1001E8003730C40002292F30C40002290030BF0074
:1001F8000030BE000030BD000030BC000A30F60000
:100208000030F7000A128A1521220A128A1173088F
:10021800F9007208F8000A128A11B4270A128A1122
:10022800760883120313C30064304302031C1D299C
:100238001E2920296330C3003E304406031D2529AA
:1002480026293929B730F20039300A128A15832253
:100258000A128A11831203134308A00039300A12C4
:100268008A1576250A128A113F2A3D304406031D55
:100278003E293F29602906304102031844294529AF
:1002880060294108323E840083130008F2003930A7
:100298000A128A1583220A128A110130FF007F0888
:1002A80083120313C1074308A00039300A128A15C4
:1002B80076250A128A113F2A3B304406031D652918
:1002C80066298429410803196A296B298429013080
:1002D800C1024108323E840083130008F20039301D
:1002E8000A128A1583220A128A11831203134308F9
:1002F800A00039300A128A1576250A128A113F2A77
:1003080037304406031989298A2990292F30440651
:10031800031D8F299029BC2910304206031D9529F9
:100328009629BC291230C2000A128A1510220A1214
:100338008A114230F6008030F7008030F8000A1247
:100348008A15D5230A128A11F201C4300A128A15B5
:1003580068240A128A11F2010F300A128A156824D9
:100368000A128A11033083120313C00012153F2AA0
:1003780013304206031DC129C2293F2A44304406CE
:10038800031DC729C8293F2AD8291430C2003F2A8B
:100398001530C2003F2A1630C2003F2A1730C2006B
:1003A8003F2A1830C2003F2A3808003A0319C929E1
:1003B800013A0319CC29033A0319CF29013A031941
:1003C800D229073A0319D529E9293F2A4308A20067
:1003D80039300A128A151E260A128A114F2A0A1261
:1003E8008A1510220A128A11103083120313C200D0
:1003F800F2010C300A128A1568240A128A11831233
:10040800031312114F2A0A128A1510220A128A118E
:10041800F2010C300A128A1568240A128A11831212
:10042800031312111330C2000530C00073284008AE
:10043800A20044080A128A1157220A128A11013AA4
:100448000319072A033A0319F3294F2A4008A2007F
:1004580044080A128A1198260A128A118312031371
:10046800B8004F2A4008A40044080A128A11DB2564
:100478000A128A114F2A831203134208103A0319E9
:10048800EA29023A03191B2A013A03192A2A073AC8
:100498000319362A4F2A043083120313C000732825
:1004A8000A128A110C2883120313AA0003302206A9
:1004B800031D5F2A602A6B2AD101DC01DD01DE0100
:1004C800DF013F30AA000330D0000530D3005308C5
:1004D800031D6F2A702A722A0230E22B37302A064F
:1004E800031D772A782A962A0430510203187D2A98
:1004F8007E2A962A51085C3E84003130831380009E
:100508005108C43EA0002A300A128A1559220A123C
:100518008A110130FF007F0883120313D1070530C9
:10052800D300B22A2F302A06031D9B2A9C2AB22AFE
:10053800043051020318A12AA22AB22A51085C3EAB
:1005480084003030831380005108C43EA0002A3054
:100558000A128A1559220A128A118D2A0430510664
:10056800031DB72AB82AE22BF2010C300A128A15A9
:1005780068240A128A1183120313AB01AC01831297
:1005880003132B08263E84002B080A128A155123D0
:100598000A128A1183138000013083120313AB07F8
:1005A8000318AC0A0030AC072C08803AFF008030F2
:1005B8007F02031DE12A04302B02031CE42AE52AEA
:1005C800C32A2630F2000430F3000030F4005C3017
:1005D8000A128A1526250A128A1172087304031D45
:1005E800F62AF72A172B0A128A1510220A128A11DC
:1005F8005130F6008030F7008230F8000A128A1570
:10060800D5230A128A11333083120313A500BB3095
:10061800A400DF30A300A30B0F2BA40B0F2BA50BFB
:100628000F2B0130E22B013083120313D0020A1280
:100638008A1510220A128A1183120313500803190B
:10064800262B272B572B3330F6008030F7008030CD
:10065800F8000A128A15D5230A128A11C0308312AB
:100668000313A0005008303E0A128A1559220A12B4
:100678008A116D30F6008030F700C230F8000A1297
:100688008A15D5230A128A114D3083120313A50047
:100698001930A4004F30A300A30B502BA40B502BF0
:1006A800A50B502BBF2B5008031D5B2B5C2BBF2BBE
:1006B8002330F6008030F7008030F8000A128A15DF
:1006C800D5230A128A11A430F6008030F700C03012
:1006D800F8000A128A15D5230A128A11B230F600D8
:1006E8008030F700CC30F8000A128A15D5230A1298
:1006F8008A113C3083120313D400B62BC930A000F2
:100708000A30F2000030F3005408A300A4012308C3
:10071800F4002408F5000A128A1531270A128A11F2
:100728007208303E0A128A1559220A128A11CA30F2
:1007380083120313A0000A30F2000030F3005408BB
:10074800A300A4012308F4002408F5000A128A155E
:1007580075260A128A117208303E0A128A15592221
:100768000A128A11831203135408031DBC2BBD2BD4
:10077800822B0330D0000A128A1510220A128A111D
:100788004230F6008030F7008030F8000A128A15EF
:10079800D5230A128A11F201C4300A128A15682474
:1007A8000A128A11F2010F300A128A1568240A12F5
:1007B8008A1183120313D1010530D30008000130D8
:1007C800F6008030F7008030F8000A128A15D52329
:1007D8000A128A11C03083120313A0002208303E87
:1007E8000A128A1559220A128A11C2308312031377
:1007F800A0000A30F20022080A128A156E220A1294
:100808008A11053E0A128A1551230A128A110A1200
:100818008A1559220A128A11C33083120313A000C1
:100828000A30F20022080A128A156E220A128A1168
:10083800063E0A128A1551230A128A110A128A15CB
:1008480059220A128A11C43083120313A0003A30C5
:100858000A128A1559220A128A11C5308312031303
:10086800A0000A30F20022080A128A156E220A1223
:100878008A11073E0A128A1551230A128A110A128E
:100888008A1559220A128A11C63083120313A0004E
:100898000A30F20022080A128A156E220A128A11F8
:1008A800083E0A128A1551230A128A110A128A1559
:1008B80059220A128A11C73083120313A0003A3052
:1008C8000A128A1559220A128A11C8308312031390
:1008D800A0000A30F20022080A128A156E220A12B3
:1008E8008A11093E0A128A1551230A128A110A121C
:1008F8008A1559220A128A11C93083120313A000DB
:100908000A30F20022080A128A156E220A128A1187
:100918000A3E0A128A1551230A128A110A128A15E6
:1009280059220A128A11CA3083120313A0002030F8
:100938000A128A1559220A128A11CB30831203131C
:10094800A0000A30F20022080A128A156E220A1242
:100958008A110B3E0A128A1551230A128A110A12A9
:100968008A1559220A128A11CC3083120313A00067
:100978000A30F20022080A128A156E220A128A1117
:100988000C3E0A128A1551230A128A110A128A1574
:1009980059220A128A11CE3083120313A0000A309A
:1009A800F20022080A128A156E220A128A110D3ED6
:1009B8000A128A1551230A128A110A128A15592213
:1009C8000A128A11CF3083120313A0000A30F200F2
:1009D80022080A128A156E220A128A110E3E0A127B
:1009E8008A1551230A128A110A128A1559220A12E3
:1009F8008A1108003F340134FF1B0A2D83137F1826
:100A080083170008840A0319FF0A080005308A00C2
:100A18000408840A820700342334203454344934C7
:100A28004D344534203420342034203420344534A7
:100A3800203420345334503400344E346F3420344E
:100A48006C346F34673473342034613476346134F1
:100A58006C34613462346C346534003459346F3426
:100A680075342034613472346534203462346C3423
:100A78006F3463346B3465346434003457347234FF
:100A88006F346E34673420347034613473347334A3
:100A9800773472346F346434003445346E347434CB
:100AA8006534723420345034613473347334773499
:100AB8006F347234643400344C344F34473449341E
:100AC8004E3420345334553443344334453453344A
:100AD800533400344334683461346E3467346534D5
:100AE80020347034613473347334773464340034AC
:100AF80061347434743465346D34703474347334DC
:100B080020346C34653466347434003444346F34BF
:100B180077346E346C346F346134643420346C341C
:100B28006F346734003443346C3465346134723460
:100B380020346C346F34673400345334653474347F
:100B48002034743469346D3465340034563469346F
:100B58006534773420346C346F3467340034773438
:100B6800613469347434203466346F347234003438
:100B780031343134313431340034733465346334CE
:100B8800733400344334203400344734313400346F
:100B9800473432340034473433340034473434343F
:100BA800003447344E34003447345234003483120E
:100BB8000313A8000130F6008030F7008030F800F9
:100BC8000A128A15D5230A128A11831203136E0A90
:100BD800031DF22D6F0A031DF22DF32DFF2D123088
:100BE800F6008030F700C030F8000A128A15D523C5
:100BF8000A128A11972E60302406031D042E052E32
:100C08001F2ECC01CD010030A200A3000A128A11C8
:100C1800E3230A128A11273083120313A7000D3029
:100C2800A6002530A500A50B172EA60B172EA70B7F
:100C3800172E1E2E972E37302806031D242E252EFC
:100C48005E2E4E084F0403192A2E2B2E3D2E0130FE
:100C5800CC070318CD0A0030CD070A304C064D04E6
:100C6800031D372E382E522E83120313CC01CD01CB
:100C7800522E0130CC070318CD0A0030CD076F087B
:100C8800803AA5004D08803A2502031D4D2E4C08D8
:100C98006E020318502E512E522E382E8312031333
:100CA8004D08A3004C08A2000A128A11E3230A1275
:100CB8008A11972E2F302806031D632E642E972E37
:100CC8004E084F040319692E6A2E7D2EFF30CC077B
:100CD8000318CD0AFF30CD074C0A031D772E4D0AA5
:100CE800031D772E782E522E0930CC000030CD000F
:100CF800522E60302406031D822E832E882E6F0804
:100D0800CD006E08CC00522EFF30CC070318CD0A58
:100D1800FF30CD074C0A031D952E4D0A031D952E55
:100D2800962E522E832E080083120313A30005303B
:100D38002206031DA02EA12EA22ED2013730230693
:100D4800031DA72EA82EB82E043052020318AD2E6C
:100D5800AE2EB82E0130FF007F08D2070A128A157E
:100D680010220A128A11C62E2F302306031DBD2E0B
:100D7800BE2EC62E52080319C22EC32EC62E01300F
:100D8800D202B22E0430831203135206031DCD2E55
:100D9800CE2EFD2E5208653E840083130008F6000F
:100DA8000030031D8030F7008230F8000A128A15DF
:100DB800D5230A128A11831203135208663E84004F
:100DC80083130008F6000030031D8030F700C2309E
:100DD800F8000A128A15D5230A128A11C030831224
:100DE8000313A0002A300A128A1559220A128A11FE
:100DF8002B2F5208663E840083130008F60000304B
:100E0800031D8030F7008230F8000A128A15D523B6
:100E18000A128A11831203135208673E840083134F
:100E28000008F6000030031D8030F700C230F800DB
:100E38000A128A15D5230A128A11803083120313E5
:100E4800A0002A300A128A1559220A128A1183121E
:100E5800031352080800F2008312031306083F39EF
:100E6800F6007208031D392F3A2F3C2F7608B32F4E
:100E7800373076060319412F422F482F2F30760638
:100E8800031D472F482F7D2F76087A06031D4D2F07
:100E98004E2F722F0130CA070318CB0A0030CB0738
:100EA80000304B02153003194A02031C5C2F5D2FDA
:100EB800912FCA01CB013F30FA003730760603196B
:100EC800662F672F6C2F5530F3000030F400702F19
:100ED8004430F3000030F4007308B32F3F307A0633
:100EE800031D772F782F912F7608FA00CA01CB01BE
:100EF800912F37307A060319822F832F892F2F30AD
:100F08007A06031D882F892F912F7A08F5003F3024
:100F1800FA00CA01CB017508B32F3F3076060319D2
:100F2800962F972FAA2F7B0803199B2F9C2FAA2F48
:100F3800373076060319A12FA22FAA2F2F30760655
:100F48000319A72FA82FAA2FFB013A2F3F307606A7
:100F5800031DAF2FB02FB22FFB01FB0A3F30080053
:100F680083120313A001A101760877040319BD2F8A
:100F7800BE2FF52FA201A20ACC2F01300310F60DC7
:100F8800F70DFF3E031DC22F0130FF007F08A207A7
:100F9800F71FCF2FD02FC12F01300310A00DA10DA7
:100FA800FF3E031DD12F77087902031DDD2F760838
:100FB8007802031CE02FE12FE82F7608F802770863
:100FC800031CF903F902201401300310F70CF60C86
:100FD800FF3E031DE92F0130A202031DF42FF52F58
:100FE800D02F2108F7002008F60008008316031305
:080FF80006083F3886000800DE
:10134800831603139F17831203131F1408006400E6
:101358008001840A0406031900340406AC290A1221
:101368008A15E6210A128A15831603131114080038
:101378000A128A15E6210A128A1583160313111513
:1013880008000A128A15BC210A128A150A128A153F
:10139800B3210A128A150800F2000A128A15E621FA
:1013A8000A128A1572088312031393000800831621
:1013B80003138801091189100A128A15CE260A1208
:1013C8008A150800831603131419EB29EC29E6295A
:1013D80011081F39031DF129F229E6290800831293
:1013E800031312149214FA308316031392008C1408
:1013F8008312031312110800C634C934BA34BD3439
:10140800C034C3349B3488347B3492345F344F34D3
:101418004E340034FF34FF34F20101300A128A15C9
:1014280068240A128A150430F7003D30F600F60BDE
:101438001B2AF70B1B2A202A0800831203131F15E7
:101448001F19272A282A242A1E08F50083160313A1
:101458001E08F4007508F3007408F2000800003054
:101468000A128A15FB220A128A15F60076087F39B5
:10147800F6007608F30000300A128A159E220A1236
:101488008A1508007E088A007F0882000A128A15D9
:1014980046220A128A158000840A04087D06031968
:1014A8000034FF0A0319FE0A4A2A83120313A10013
:1014B800F20120080A128A1568240A128A15F20114
:1014C800F20A8312031321080A128A1568240A12E1
:1014D8008A150800F400F301741C732A742A782A08
:1014E8007208FF007F08F3070310F20D0310F40CD5
:1014F8007408031D802A812A702A73080800F400E2
:101508007408F3000130F207FF30720784000A12F2
:101518008A110A250A128A15FF007308840001300F
:10152800F3077F08831380000008031D9C2A9D2A67
:10153800862A0800F4000A128A15B3210A128A15AD
:10154800D0300A128A15D0210A128A1574080A1294
:101558008A15D0210A128A1573080A128A15D02111
:101568000A128A150A128A15BC210A128A1508005D
:10157800F4000A128A15B3210A128A15A0300A1239
:101588008A15D0210A128A1574080A128A15D021E0
:101598000A128A1573080A128A15D0210A128A15A6
:1015A8000A128A15BC210A128A150800F2000A12CA
:1015B8008A15E6210A128A158316031391150A1251
:1015C8008A15E6210A128A15831203131308F300F9
:1015D8007203031DF02AF12AF52A831603139116C4
:1015E800F82A831603139112111673080800F400E1
:1015F8000A128A15B3210A128A15D0300A128A15DE
:10160800D0210A128A1574080A128A15D0210A12E2
:101618008A150A128A15C5210A128A15D1300A12AA
:101628008A15D0210A128A1500300A128A15DA2280
:101638000A128A15F5000A128A15BC210A128A159F
:1016480075080800003083120313A9000130A800B0
:101658008630A700A030A6000A128A1536240A127E
:101668008A150A128A1533220A128A150A128A154D
:10167800DB210A128A150A128A11FA270A128A1518
:101688000A128A15A4210A128A150A128A15F32148
:101698000A128A158B170B170800F4000A128A150C
:1016A800B3210A128A15A0300A128A15D0210A120B
:1016B8008A1574080A128A15D0210A128A150A1284
:1016C8008A15C5210A128A15A1300A128A15D02155
:1016D8000A128A1500300A128A15DA220A128A15A5
:1016E800F5000A128A15BC210A128A157508080025
:1016F8000530F800013083120313EE070318EF0AD0
:101708000030EF070A306E066F04031D8C2B8D2BFB
:10171800932BEE01EF010130CE000030CF000A30EC
:10172800F2006E080A128A156E220A128A157807C4
:10173800F800A030F5000030F60078080A128A1583
:10174800A8230A128A150800F700C42B7608FF00A0
:10175800750884000A128A1100250A128A15F300F6
:1017680077080A128A15BC220A128A150130F50771
:101778000318F60A0030F6070130FF007F08F70764
:10178800760883120313FF00750884000A128A1171
:1017980000250A128A15003A031DD32BD42BAA2B35
:1017A8000800F20178080A128A1568240A128A15B4
:1017B800F32BF201F20A7708FF00760884000A1278
:1017C8008A1100250A128A150A128A1568240A1233
:1017D8008A150130F6070318F70A0030F70777086B
:1017E80083120313FF00760884000A128A11002569
:1017F8000A128A15003A031D022C032CDD2B08005F
:10180800831203138C1C092C0A2C2F2C0130C807B7
:101818000318C90A0030C907E23048060430031922
:101828004906031D182C192C2E2C540803191D2C9D
:101838001E2C202C0130D4025408031D242C252CE6
:101848002C2C53080319292C2A2C2C2C0130D302B8
:10185800C801C9018C1071088A00700E8300FE0E41
:101868007E0E09008312031394152608AA00270880
:10187800AB002808AC002908AD0002300310AA0DFF
:10188800AB0DAC0DAD0DFF3E031D422C2D08F50030
:101898002C08F4002B08F3002A08F2000130F900A4
:1018A8003130F8002D30F7000030F6000A128A15A2
:1018B80098270A128A157208FF3E831603139300AD
:1018C8008312031394160800F50072186C2C702C00
:1018D800831203130915732C831203130911750856
:1018E800F03988008914A630F300F30B792C000036
:1018F80083120313891075080F39F300033003109E
:10190800F30DFF3E031D832C0310730D880089140B
:10191800A630F300F30B8E2C0000831203138910FA
:101928001B30F4009E30F300F30B982CF40B982C2A
:1019380000000800F5007508F600BB2C0130F30222
:101948000030031CF403F402720884000130F2072B
:1019580083130008FF00760884000130F6077F082B
:1019680080000008031DB92CBA2CBB2CCA2C7308A4
:101978007404031DC02CC12CA22CCA2C7608840028
:10198800831380010130FF007F08F6070130F3025E
:101998000030031CF403F402730A031DD72C740AE5
:1019A800031DD72CD82CC22C080002300A128A1525
:1019B800FB220A128A1583120313C50001300A128A
:1019C8008A15FB220A128A1583120313C6000030F7
:1019D8000A128A15FB220A128A1583120313C700FA
:1019E8004508F60004300310F60CFF3E031DF72CE3
:1019F80076080339303ED50045080F39303ED60009
:101A08004608F60004300310F60CFF3E031D072DB0
:101A180076080739303ED70046080F39303ED800DF
:101A28004708F60004300310F60CFF3E031D172D7F
:101A380076080739303ED90047080F39303EDA00BA
:101A4800DB010800F7000130F3020030031CF40347
:101A5800F402730A031D342D740A031D342D352D29
:101A6800462DF201F301752D0130FF007F08F707BD
:101A78000130FF007F08F2070130F3020030031C39
:101A8800F403F402770884008313000803194D2D2A
:101A98004E2D672D7208840000080319542D552D0A
:101AA800672D7308740403195A2D5B2D672D72086E
:101AB80084000008F50077088400000875060319FB
:101AC800662D672D382D720884000008F500770808
:101AD80084000008F60075087602F200F301031C82
:101AE800F303080083120313A3005530F2000630F5
:101AF800F3000030F400A0300A128A159E240A125E
:101B08008A15831203132308F2000230F300003011
:101B1800F400A6300A128A159E240A128A150A3081
:101B2800F2000030F300831203132008A100A20181
:101B38002108F4002208F5000A128A1531270A1232
:101B48008A157208303E83160313A8000A30F20083
:101B58000030F300831203132008A100A20121081A
:101B6800F4002208F5000A128A1575260A128A1549
:101B78007208303E83160313A900AA010A128A15B7
:101B88007C230A128A1508000A128A15D9240A1217
:101B98008A15C13083120313A00055080A128A154A
:101BA80059220A128A15C23083120313A00056085C
:101BB8000A128A1559220A128A15C330831203138E
:101BC800A0003A300A128A1559220A128A15C4301E
:101BD80083120313A00057080A128A1559220A1201
:101BE8008A15C53083120313A00058080A128A15F3
:101BF80059220A128A15C63083120313A0003A30FC
:101C08000A128A1559220A128A15C7308312031339
:101C1800A00059080A128A1559220A128A15C830D2
:101C280083120313A0005A080A128A1559220A12AD
:101C38008A15080083120313A5000330F6008030CC
:101C4800F7008230F8000A128A15D5230A128A157D
:101C58000A128A15C8250A128A1583120313250841
:101C6800F6000030F700CB30F8000A128A15D523A9
:101C78000A128A15CE3083120313A0000A30F2002C
:101C88000030F3002208A300A4012308F40024086C
:101C9800F5000A128A1531270A128A157208303E91
:101CA8000A128A1559220A128A15CF308312031391
:101CB800A0000A30F2000030F3002208A300A401BB
:101CC8002308F4002408F5000A128A1575260A125A
:101CD8008A157208303E0A128A1559220A128A1584
:101CE8000800F701F51F792E7A2E812EF409F509DF
:101CF800F40A0319F50AF701F70AF31F842E852E53
:101D08008A2EF209F309F20A0319F30A7208730416
:101D180003198F2E902EBF2EF601F60A9E2E013043
:101D28000310F20DF30DFF3E031D942E0130FF004A
:101D38007F08F607F31FA12EA22E932E73087502B3
:101D4800031DA82E72087402031CAB2EAC2EB22EF3
:101D58007208F4027308031CF503F502013003103E
:101D6800F30CF20CFF3E031DB32E0130F602031DE7
:101D7800BE2EBF2EA22E77080319C32EC42EC92E3D
:101D8800F409F509F40A0319F50A7508F30074084B
:101D9800F2000800C330F700CD30F600F60BD22E63
:101DA800F70BD22EF20133300A128A1568240A1270
:101DB8008A151B30F7009E30F600F60BE12EF70B64
:101DC800E12E0000F20133300A128A1568240A1243
:101DD8008A15A630F600F60BEF2E0000F20133301C
:101DE8000A128A1568240A128A15FA2EFB2E000098
:101DF800F20102300A128A1568240A128A15A630DE
:101E0800F600F60B052F0000F20128300A128A1599
:101E180068240A128A15A630F600F60B112F000066
:101E2800F20101300A128A1568240A128A15043050
:101E3800F7003D30F600F60B1F2FF70B1F2F242F4E
:101E4800F2010C300A128A1568240A128A15A63083
:101E5800F600F60B2D2F00000800F701F31F352FB1
:101E6800362F3D2FF209F309F20A0319F30AF70195
:101E7800F70AF51F402F412F4A2FF409F509F40AF4
:101E88000319F50A0130FF007F08F706F801F90188
:101E9800720873040319512F522F892FF601F60A7D
:101EA800602F01300310F20DF30DFF3E031D562F76
:101EB8000130FF007F08F607F31F632F642F552FAB
:101EC80001300310F80DF90DFF3E031D652F73084F
:101ED8007502031D712F72087402031C742F752F6D
:101EE8007C2F7208F4027308031CF503F5027814BA
:101EF80001300310F30CF20CFF3E031D7D2F01305F
:101F0800F602031D882F892F642F770803198D2F58
:101F18008E2F932FF809F909F80A0319F90A790895
:101F2800F3007808F2000800003083120313A400BD
:101F38000030A3000030A2000030A100750874042E
:101F4800730472040319A92FAA2FF72FA501A50A54
:101F5800BA2F0130A0000310F20DF30DF40DF50DAA
:101F6800A00BAF2F0130FF007F08A507F51FBD2F7D
:101F7800BE2FAD2F0130A0000310A10DA20DA30D9F
:101F8800A40DA00BC02F75087902031DD52F740866
:101F98007802031DD52F73087702031DD52F720809
:101FA8007602031CD82FD92FE82F7208F60273087F
:101FB800031C730FF7027408031C740FF8027508EA
:101FC800031C750FF902211401300310F50CF40CF1
:101FD800F30CF20CFF3E031DE92F0130A502031D8F
:101FE800F62FF72FBE2F2408F5002308F400220847
:081FF800F3002108F2000800CB
:02400E00FB3F76
:00000001FF
